{
	"PAXX.sol": {
		"PRAXXIS": {
			"abi": [
				{
					"inputs": [],
					"stateMutability": "nonpayable",
					"type": "constructor"
				},
				{
					"anonymous": false,
					"inputs": [
						{
							"indexed": false,
							"internalType": "address",
							"name": "previousAdmin",
							"type": "address"
						},
						{
							"indexed": false,
							"internalType": "address",
							"name": "newAdmin",
							"type": "address"
						}
					],
					"name": "AdminChanged",
					"type": "event"
				},
				{
					"anonymous": false,
					"inputs": [
						{
							"indexed": true,
							"internalType": "address",
							"name": "owner",
							"type": "address"
						},
						{
							"indexed": true,
							"internalType": "address",
							"name": "spender",
							"type": "address"
						},
						{
							"indexed": false,
							"internalType": "uint256",
							"name": "value",
							"type": "uint256"
						}
					],
					"name": "Approval",
					"type": "event"
				},
				{
					"anonymous": false,
					"inputs": [
						{
							"indexed": true,
							"internalType": "address",
							"name": "beacon",
							"type": "address"
						}
					],
					"name": "BeaconUpgraded",
					"type": "event"
				},
				{
					"anonymous": false,
					"inputs": [
						{
							"indexed": false,
							"internalType": "uint8",
							"name": "version",
							"type": "uint8"
						}
					],
					"name": "Initialized",
					"type": "event"
				},
				{
					"anonymous": false,
					"inputs": [
						{
							"indexed": false,
							"internalType": "address",
							"name": "account",
							"type": "address"
						}
					],
					"name": "Paused",
					"type": "event"
				},
				{
					"anonymous": false,
					"inputs": [
						{
							"indexed": true,
							"internalType": "bytes32",
							"name": "role",
							"type": "bytes32"
						},
						{
							"indexed": true,
							"internalType": "bytes32",
							"name": "previousAdminRole",
							"type": "bytes32"
						},
						{
							"indexed": true,
							"internalType": "bytes32",
							"name": "newAdminRole",
							"type": "bytes32"
						}
					],
					"name": "RoleAdminChanged",
					"type": "event"
				},
				{
					"anonymous": false,
					"inputs": [
						{
							"indexed": true,
							"internalType": "bytes32",
							"name": "role",
							"type": "bytes32"
						},
						{
							"indexed": true,
							"internalType": "address",
							"name": "account",
							"type": "address"
						},
						{
							"indexed": true,
							"internalType": "address",
							"name": "sender",
							"type": "address"
						}
					],
					"name": "RoleGranted",
					"type": "event"
				},
				{
					"anonymous": false,
					"inputs": [
						{
							"indexed": true,
							"internalType": "bytes32",
							"name": "role",
							"type": "bytes32"
						},
						{
							"indexed": true,
							"internalType": "address",
							"name": "account",
							"type": "address"
						},
						{
							"indexed": true,
							"internalType": "address",
							"name": "sender",
							"type": "address"
						}
					],
					"name": "RoleRevoked",
					"type": "event"
				},
				{
					"anonymous": false,
					"inputs": [
						{
							"indexed": true,
							"internalType": "address",
							"name": "from",
							"type": "address"
						},
						{
							"indexed": true,
							"internalType": "address",
							"name": "to",
							"type": "address"
						},
						{
							"indexed": false,
							"internalType": "uint256",
							"name": "value",
							"type": "uint256"
						}
					],
					"name": "Transfer",
					"type": "event"
				},
				{
					"anonymous": false,
					"inputs": [
						{
							"indexed": false,
							"internalType": "address",
							"name": "account",
							"type": "address"
						}
					],
					"name": "Unpaused",
					"type": "event"
				},
				{
					"anonymous": false,
					"inputs": [
						{
							"indexed": true,
							"internalType": "address",
							"name": "implementation",
							"type": "address"
						}
					],
					"name": "Upgraded",
					"type": "event"
				},
				{
					"inputs": [],
					"name": "DEFAULT_ADMIN_ROLE",
					"outputs": [
						{
							"internalType": "bytes32",
							"name": "",
							"type": "bytes32"
						}
					],
					"stateMutability": "view",
					"type": "function"
				},
				{
					"inputs": [],
					"name": "PAUSER_ROLE",
					"outputs": [
						{
							"internalType": "bytes32",
							"name": "",
							"type": "bytes32"
						}
					],
					"stateMutability": "view",
					"type": "function"
				},
				{
					"inputs": [],
					"name": "UPGRADER_ROLE",
					"outputs": [
						{
							"internalType": "bytes32",
							"name": "",
							"type": "bytes32"
						}
					],
					"stateMutability": "view",
					"type": "function"
				},
				{
					"inputs": [
						{
							"internalType": "address",
							"name": "owner",
							"type": "address"
						},
						{
							"internalType": "address",
							"name": "spender",
							"type": "address"
						}
					],
					"name": "allowance",
					"outputs": [
						{
							"internalType": "uint256",
							"name": "",
							"type": "uint256"
						}
					],
					"stateMutability": "view",
					"type": "function"
				},
				{
					"inputs": [
						{
							"internalType": "address",
							"name": "spender",
							"type": "address"
						},
						{
							"internalType": "uint256",
							"name": "amount",
							"type": "uint256"
						}
					],
					"name": "approve",
					"outputs": [
						{
							"internalType": "bool",
							"name": "",
							"type": "bool"
						}
					],
					"stateMutability": "nonpayable",
					"type": "function"
				},
				{
					"inputs": [
						{
							"internalType": "address",
							"name": "account",
							"type": "address"
						}
					],
					"name": "balanceOf",
					"outputs": [
						{
							"internalType": "uint256",
							"name": "",
							"type": "uint256"
						}
					],
					"stateMutability": "view",
					"type": "function"
				},
				{
					"inputs": [
						{
							"internalType": "uint256",
							"name": "amount",
							"type": "uint256"
						}
					],
					"name": "burn",
					"outputs": [],
					"stateMutability": "nonpayable",
					"type": "function"
				},
				{
					"inputs": [
						{
							"internalType": "address",
							"name": "account",
							"type": "address"
						},
						{
							"internalType": "uint256",
							"name": "amount",
							"type": "uint256"
						}
					],
					"name": "burnFrom",
					"outputs": [],
					"stateMutability": "nonpayable",
					"type": "function"
				},
				{
					"inputs": [],
					"name": "decimals",
					"outputs": [
						{
							"internalType": "uint8",
							"name": "",
							"type": "uint8"
						}
					],
					"stateMutability": "view",
					"type": "function"
				},
				{
					"inputs": [
						{
							"internalType": "address",
							"name": "spender",
							"type": "address"
						},
						{
							"internalType": "uint256",
							"name": "subtractedValue",
							"type": "uint256"
						}
					],
					"name": "decreaseAllowance",
					"outputs": [
						{
							"internalType": "bool",
							"name": "",
							"type": "bool"
						}
					],
					"stateMutability": "nonpayable",
					"type": "function"
				},
				{
					"inputs": [
						{
							"internalType": "bytes32",
							"name": "role",
							"type": "bytes32"
						}
					],
					"name": "getRoleAdmin",
					"outputs": [
						{
							"internalType": "bytes32",
							"name": "",
							"type": "bytes32"
						}
					],
					"stateMutability": "view",
					"type": "function"
				},
				{
					"inputs": [
						{
							"internalType": "bytes32",
							"name": "role",
							"type": "bytes32"
						},
						{
							"internalType": "address",
							"name": "account",
							"type": "address"
						}
					],
					"name": "grantRole",
					"outputs": [],
					"stateMutability": "nonpayable",
					"type": "function"
				},
				{
					"inputs": [
						{
							"internalType": "bytes32",
							"name": "role",
							"type": "bytes32"
						},
						{
							"internalType": "address",
							"name": "account",
							"type": "address"
						}
					],
					"name": "hasRole",
					"outputs": [
						{
							"internalType": "bool",
							"name": "",
							"type": "bool"
						}
					],
					"stateMutability": "view",
					"type": "function"
				},
				{
					"inputs": [
						{
							"internalType": "address",
							"name": "spender",
							"type": "address"
						},
						{
							"internalType": "uint256",
							"name": "addedValue",
							"type": "uint256"
						}
					],
					"name": "increaseAllowance",
					"outputs": [
						{
							"internalType": "bool",
							"name": "",
							"type": "bool"
						}
					],
					"stateMutability": "nonpayable",
					"type": "function"
				},
				{
					"inputs": [],
					"name": "initialize",
					"outputs": [],
					"stateMutability": "nonpayable",
					"type": "function"
				},
				{
					"inputs": [],
					"name": "name",
					"outputs": [
						{
							"internalType": "string",
							"name": "",
							"type": "string"
						}
					],
					"stateMutability": "view",
					"type": "function"
				},
				{
					"inputs": [],
					"name": "pause",
					"outputs": [],
					"stateMutability": "nonpayable",
					"type": "function"
				},
				{
					"inputs": [],
					"name": "paused",
					"outputs": [
						{
							"internalType": "bool",
							"name": "",
							"type": "bool"
						}
					],
					"stateMutability": "view",
					"type": "function"
				},
				{
					"inputs": [],
					"name": "proxiableUUID",
					"outputs": [
						{
							"internalType": "bytes32",
							"name": "",
							"type": "bytes32"
						}
					],
					"stateMutability": "view",
					"type": "function"
				},
				{
					"inputs": [
						{
							"internalType": "bytes32",
							"name": "role",
							"type": "bytes32"
						},
						{
							"internalType": "address",
							"name": "account",
							"type": "address"
						}
					],
					"name": "renounceRole",
					"outputs": [],
					"stateMutability": "nonpayable",
					"type": "function"
				},
				{
					"inputs": [
						{
							"internalType": "bytes32",
							"name": "role",
							"type": "bytes32"
						},
						{
							"internalType": "address",
							"name": "account",
							"type": "address"
						}
					],
					"name": "revokeRole",
					"outputs": [],
					"stateMutability": "nonpayable",
					"type": "function"
				},
				{
					"inputs": [
						{
							"internalType": "bytes4",
							"name": "interfaceId",
							"type": "bytes4"
						}
					],
					"name": "supportsInterface",
					"outputs": [
						{
							"internalType": "bool",
							"name": "",
							"type": "bool"
						}
					],
					"stateMutability": "view",
					"type": "function"
				},
				{
					"inputs": [],
					"name": "symbol",
					"outputs": [
						{
							"internalType": "string",
							"name": "",
							"type": "string"
						}
					],
					"stateMutability": "view",
					"type": "function"
				},
				{
					"inputs": [],
					"name": "totalSupply",
					"outputs": [
						{
							"internalType": "uint256",
							"name": "",
							"type": "uint256"
						}
					],
					"stateMutability": "view",
					"type": "function"
				},
				{
					"inputs": [
						{
							"internalType": "address",
							"name": "to",
							"type": "address"
						},
						{
							"internalType": "uint256",
							"name": "amount",
							"type": "uint256"
						}
					],
					"name": "transfer",
					"outputs": [
						{
							"internalType": "bool",
							"name": "",
							"type": "bool"
						}
					],
					"stateMutability": "nonpayable",
					"type": "function"
				},
				{
					"inputs": [
						{
							"internalType": "address",
							"name": "from",
							"type": "address"
						},
						{
							"internalType": "address",
							"name": "to",
							"type": "address"
						},
						{
							"internalType": "uint256",
							"name": "amount",
							"type": "uint256"
						}
					],
					"name": "transferFrom",
					"outputs": [
						{
							"internalType": "bool",
							"name": "",
							"type": "bool"
						}
					],
					"stateMutability": "nonpayable",
					"type": "function"
				},
				{
					"inputs": [],
					"name": "unpause",
					"outputs": [],
					"stateMutability": "nonpayable",
					"type": "function"
				},
				{
					"inputs": [
						{
							"internalType": "address",
							"name": "newImplementation",
							"type": "address"
						}
					],
					"name": "upgradeTo",
					"outputs": [],
					"stateMutability": "nonpayable",
					"type": "function"
				},
				{
					"inputs": [
						{
							"internalType": "address",
							"name": "newImplementation",
							"type": "address"
						},
						{
							"internalType": "bytes",
							"name": "data",
							"type": "bytes"
						}
					],
					"name": "upgradeToAndCall",
					"outputs": [],
					"stateMutability": "payable",
					"type": "function"
				}
			],
			"devdoc": {
				"custom:security-contact": "sec@arcadia.global",
				"kind": "dev",
				"methods": {
					"allowance(address,address)": {
						"details": "See {IERC20-allowance}."
					},
					"approve(address,uint256)": {
						"details": "See {IERC20-approve}. NOTE: If `amount` is the maximum `uint256`, the allowance is not updated on `transferFrom`. This is semantically equivalent to an infinite approval. Requirements: - `spender` cannot be the zero address."
					},
					"balanceOf(address)": {
						"details": "See {IERC20-balanceOf}."
					},
					"burn(uint256)": {
						"details": "Destroys `amount` tokens from the caller. See {ERC20-_burn}."
					},
					"burnFrom(address,uint256)": {
						"details": "Destroys `amount` tokens from `account`, deducting from the caller's allowance. See {ERC20-_burn} and {ERC20-allowance}. Requirements: - the caller must have allowance for ``accounts``'s tokens of at least `amount`."
					},
					"constructor": {
						"custom:oz-upgrades-unsafe-allow": "constructor"
					},
					"decimals()": {
						"details": "Returns the number of decimals used to get its user representation. For example, if `decimals` equals `2`, a balance of `505` tokens should be displayed to a user as `5.05` (`505 / 10 ** 2`). Tokens usually opt for a value of 18, imitating the relationship between Ether and Wei. This is the default value returned by this function, unless it's overridden. NOTE: This information is only used for _display_ purposes: it in no way affects any of the arithmetic of the contract, including {IERC20-balanceOf} and {IERC20-transfer}."
					},
					"decreaseAllowance(address,uint256)": {
						"details": "Atomically decreases the allowance granted to `spender` by the caller. This is an alternative to {approve} that can be used as a mitigation for problems described in {IERC20-approve}. Emits an {Approval} event indicating the updated allowance. Requirements: - `spender` cannot be the zero address. - `spender` must have allowance for the caller of at least `subtractedValue`."
					},
					"getRoleAdmin(bytes32)": {
						"details": "Returns the admin role that controls `role`. See {grantRole} and {revokeRole}. To change a role's admin, use {_setRoleAdmin}."
					},
					"grantRole(bytes32,address)": {
						"details": "Grants `role` to `account`. If `account` had not been already granted `role`, emits a {RoleGranted} event. Requirements: - the caller must have ``role``'s admin role. May emit a {RoleGranted} event."
					},
					"hasRole(bytes32,address)": {
						"details": "Returns `true` if `account` has been granted `role`."
					},
					"increaseAllowance(address,uint256)": {
						"details": "Atomically increases the allowance granted to `spender` by the caller. This is an alternative to {approve} that can be used as a mitigation for problems described in {IERC20-approve}. Emits an {Approval} event indicating the updated allowance. Requirements: - `spender` cannot be the zero address."
					},
					"name()": {
						"details": "Returns the name of the token."
					},
					"paused()": {
						"details": "Returns true if the contract is paused, and false otherwise."
					},
					"proxiableUUID()": {
						"details": "Implementation of the ERC1822 {proxiableUUID} function. This returns the storage slot used by the implementation. It is used to validate the implementation's compatibility when performing an upgrade. IMPORTANT: A proxy pointing at a proxiable contract should not be considered proxiable itself, because this risks bricking a proxy that upgrades to it, by delegating to itself until out of gas. Thus it is critical that this function revert if invoked through a proxy. This is guaranteed by the `notDelegated` modifier."
					},
					"renounceRole(bytes32,address)": {
						"details": "Revokes `role` from the calling account. Roles are often managed via {grantRole} and {revokeRole}: this function's purpose is to provide a mechanism for accounts to lose their privileges if they are compromised (such as when a trusted device is misplaced). If the calling account had been revoked `role`, emits a {RoleRevoked} event. Requirements: - the caller must be `account`. May emit a {RoleRevoked} event."
					},
					"revokeRole(bytes32,address)": {
						"details": "Revokes `role` from `account`. If `account` had been granted `role`, emits a {RoleRevoked} event. Requirements: - the caller must have ``role``'s admin role. May emit a {RoleRevoked} event."
					},
					"supportsInterface(bytes4)": {
						"details": "See {IERC165-supportsInterface}."
					},
					"symbol()": {
						"details": "Returns the symbol of the token, usually a shorter version of the name."
					},
					"totalSupply()": {
						"details": "See {IERC20-totalSupply}."
					},
					"transfer(address,uint256)": {
						"details": "See {IERC20-transfer}. Requirements: - `to` cannot be the zero address. - the caller must have a balance of at least `amount`."
					},
					"transferFrom(address,address,uint256)": {
						"details": "See {IERC20-transferFrom}. Emits an {Approval} event indicating the updated allowance. This is not required by the EIP. See the note at the beginning of {ERC20}. NOTE: Does not update the allowance if the current allowance is the maximum `uint256`. Requirements: - `from` and `to` cannot be the zero address. - `from` must have a balance of at least `amount`. - the caller must have allowance for ``from``'s tokens of at least `amount`."
					},
					"upgradeTo(address)": {
						"custom:oz-upgrades-unsafe-allow-reachable": "delegatecall",
						"details": "Upgrade the implementation of the proxy to `newImplementation`. Calls {_authorizeUpgrade}. Emits an {Upgraded} event."
					},
					"upgradeToAndCall(address,bytes)": {
						"custom:oz-upgrades-unsafe-allow-reachable": "delegatecall",
						"details": "Upgrade the implementation of the proxy to `newImplementation`, and subsequently execute the function call encoded in `data`. Calls {_authorizeUpgrade}. Emits an {Upgraded} event."
					}
				},
				"version": 1
			},
			"evm": {
				"assembly": "    /* \"PAXX.sol\":634:2048  contract PRAXXIS is Initializable, ERC20Upgradeable, ERC20BurnableUpgradeable, PausableUpgradeable, AccessControlUpgradeable, UUPSUpgradeable {... */\n  mstore(0x40, 0xa0)\n    /* \"@openzeppelin/contracts-upgradeable@4.9.2/proxy/utils/UUPSUpgradeable.sol\":1332:1336  this */\n  address\n    /* \"@openzeppelin/contracts-upgradeable@4.9.2/proxy/utils/UUPSUpgradeable.sol\":1289:1337  address private immutable __self = address(this) */\n  0x80\n  mstore\n    /* \"PAXX.sol\":975:1028  constructor() {... */\n  callvalue\n  dup1\n  iszero\n  tag_1\n  jumpi\n  0x00\n  dup1\n  revert\ntag_1:\n  pop\n    /* \"PAXX.sol\":999:1021  _disableInitializers() */\n  tag_4\n    /* \"PAXX.sol\":999:1019  _disableInitializers */\n  tag_5\n    /* \"PAXX.sol\":999:1021  _disableInitializers() */\n  jump\t// in\ntag_4:\n    /* \"PAXX.sol\":634:2048  contract PRAXXIS is Initializable, ERC20Upgradeable, ERC20BurnableUpgradeable, PausableUpgradeable, AccessControlUpgradeable, UUPSUpgradeable {... */\n  jump(tag_14)\n    /* \"@openzeppelin/contracts-upgradeable@4.9.2/proxy/utils/Initializable.sol\":5939:6219  function _disableInitializers() internal virtual {... */\ntag_5:\n    /* \"@openzeppelin/contracts-upgradeable@4.9.2/proxy/utils/Initializable.sol\":6007:6020  _initializing */\n  sload(0x00)\n  0x0100\n  swap1\n  div\n  0xff\n  and\n    /* \"@openzeppelin/contracts-upgradeable@4.9.2/proxy/utils/Initializable.sol\":6006:6020  !_initializing */\n  iszero\n    /* \"@openzeppelin/contracts-upgradeable@4.9.2/proxy/utils/Initializable.sol\":5998:6064  require(!_initializing, \"Initializable: contract is initializing\") */\n  tag_8\n  jumpi\n  mload(0x40)\n  shl(0xe5, 0x461bcd)\n  dup2\n  mstore\n    /* \"#utility.yul\":216:218   */\n  0x20\n    /* \"@openzeppelin/contracts-upgradeable@4.9.2/proxy/utils/Initializable.sol\":5998:6064  require(!_initializing, \"Initializable: contract is initializing\") */\n  0x04\n  dup3\n  add\n    /* \"#utility.yul\":198:219   */\n  mstore\n    /* \"#utility.yul\":255:257   */\n  0x27\n    /* \"#utility.yul\":235:253   */\n  0x24\n  dup3\n  add\n    /* \"#utility.yul\":228:258   */\n  mstore\n    /* \"#utility.yul\":294:328   */\n  0x496e697469616c697a61626c653a20636f6e747261637420697320696e697469\n    /* \"#utility.yul\":274:292   */\n  0x44\n  dup3\n  add\n    /* \"#utility.yul\":267:329   */\n  mstore\n  shl(0xc8, 0x616c697a696e67)\n    /* \"#utility.yul\":345:363   */\n  0x64\n  dup3\n  add\n    /* \"#utility.yul\":338:375   */\n  mstore\n    /* \"#utility.yul\":392:411   */\n  0x84\n  add\n    /* \"@openzeppelin/contracts-upgradeable@4.9.2/proxy/utils/Initializable.sol\":5998:6064  require(!_initializing, \"Initializable: contract is initializing\") */\n  mload(0x40)\n  dup1\n  swap2\n  sub\n  swap1\n  revert\ntag_8:\n    /* \"@openzeppelin/contracts-upgradeable@4.9.2/proxy/utils/Initializable.sol\":6078:6090  _initialized */\n  sload(0x00)\n    /* \"@openzeppelin/contracts-upgradeable@4.9.2/proxy/utils/Initializable.sol\":6094:6109  type(uint8).max */\n  0xff\n    /* \"@openzeppelin/contracts-upgradeable@4.9.2/proxy/utils/Initializable.sol\":6078:6090  _initialized */\n  swap1\n  dup2\n  and\n    /* \"@openzeppelin/contracts-upgradeable@4.9.2/proxy/utils/Initializable.sol\":6078:6109  _initialized != type(uint8).max */\n  eq\n    /* \"@openzeppelin/contracts-upgradeable@4.9.2/proxy/utils/Initializable.sol\":6074:6213  if (_initialized != type(uint8).max) {... */\n  tag_11\n  jumpi\n    /* \"@openzeppelin/contracts-upgradeable@4.9.2/proxy/utils/Initializable.sol\":6125:6137  _initialized */\n  0x00\n    /* \"@openzeppelin/contracts-upgradeable@4.9.2/proxy/utils/Initializable.sol\":6125:6155  _initialized = type(uint8).max */\n  dup1\n  sload\n  not(0xff)\n  and\n    /* \"@openzeppelin/contracts-upgradeable@4.9.2/proxy/utils/Initializable.sol\":6140:6155  type(uint8).max */\n  0xff\n    /* \"@openzeppelin/contracts-upgradeable@4.9.2/proxy/utils/Initializable.sol\":6125:6155  _initialized = type(uint8).max */\n  swap1\n  dup2\n  or\n  swap1\n  swap2\n  sstore\n    /* \"@openzeppelin/contracts-upgradeable@4.9.2/proxy/utils/Initializable.sol\":6174:6202  Initialized(type(uint8).max) */\n  mload(0x40)\n    /* \"#utility.yul\":564:600   */\n  swap1\n  dup2\n  mstore\n    /* \"@openzeppelin/contracts-upgradeable@4.9.2/proxy/utils/Initializable.sol\":6174:6202  Initialized(type(uint8).max) */\n  0x7f26b83ff96e1f2b6a682f133852f6798a09c465da95921460cefb3847402498\n  swap1\n    /* \"#utility.yul\":552:554   */\n  0x20\n    /* \"#utility.yul\":537:555   */\n  add\n    /* \"@openzeppelin/contracts-upgradeable@4.9.2/proxy/utils/Initializable.sol\":6174:6202  Initialized(type(uint8).max) */\n  mload(0x40)\n  dup1\n  swap2\n  sub\n  swap1\n  log1\n    /* \"@openzeppelin/contracts-upgradeable@4.9.2/proxy/utils/Initializable.sol\":6074:6213  if (_initialized != type(uint8).max) {... */\ntag_11:\n    /* \"@openzeppelin/contracts-upgradeable@4.9.2/proxy/utils/Initializable.sol\":5939:6219  function _disableInitializers() internal virtual {... */\n  jump\t// out\n    /* \"#utility.yul\":422:606   */\ntag_14:\n    /* \"PAXX.sol\":634:2048  contract PRAXXIS is Initializable, ERC20Upgradeable, ERC20BurnableUpgradeable, PausableUpgradeable, AccessControlUpgradeable, UUPSUpgradeable {... */\n  mload(0x80)\n  codecopy(0x00, dataOffset(sub_0), dataSize(sub_0))\n  0x00\n  assignImmutable(\"0x3f2cb8b8a6f6ba8772056c1e4910fb442737deea593ec84e00cbccee66f6d0e1\")\n  return(0x00, dataSize(sub_0))\nstop\n\nsub_0: assembly {\n        /* \"PAXX.sol\":634:2048  contract PRAXXIS is Initializable, ERC20Upgradeable, ERC20BurnableUpgradeable, PausableUpgradeable, AccessControlUpgradeable, UUPSUpgradeable {... */\n      mstore(0x40, 0x80)\n      jumpi(tag_1, lt(calldatasize, 0x04))\n      shr(0xe0, calldataload(0x00))\n      dup1\n      0x52d1902d\n      gt\n      tag_31\n      jumpi\n      dup1\n      0x95d89b41\n      gt\n      tag_32\n      jumpi\n      dup1\n      0xd547741f\n      gt\n      tag_33\n      jumpi\n      dup1\n      0xd547741f\n      eq\n      tag_27\n      jumpi\n      dup1\n      0xdd62ed3e\n      eq\n      tag_28\n      jumpi\n      dup1\n      0xe63ab1e9\n      eq\n      tag_29\n      jumpi\n      dup1\n      0xf72c0d8b\n      eq\n      tag_30\n      jumpi\n      0x00\n      dup1\n      revert\n    tag_33:\n      dup1\n      0x95d89b41\n      eq\n      tag_23\n      jumpi\n      dup1\n      0xa217fddf\n      eq\n      tag_24\n      jumpi\n      dup1\n      0xa457c2d7\n      eq\n      tag_25\n      jumpi\n      dup1\n      0xa9059cbb\n      eq\n      tag_26\n      jumpi\n      0x00\n      dup1\n      revert\n    tag_32:\n      dup1\n      0x79cc6790\n      gt\n      tag_34\n      jumpi\n      dup1\n      0x79cc6790\n      eq\n      tag_19\n      jumpi\n      dup1\n      0x8129fc1c\n      eq\n      tag_20\n      jumpi\n      dup1\n      0x8456cb59\n      eq\n      tag_21\n      jumpi\n      dup1\n      0x91d14854\n      eq\n      tag_22\n      jumpi\n      0x00\n      dup1\n      revert\n    tag_34:\n      dup1\n      0x52d1902d\n      eq\n      tag_16\n      jumpi\n      dup1\n      0x5c975abb\n      eq\n      tag_17\n      jumpi\n      dup1\n      0x70a08231\n      eq\n      tag_18\n      jumpi\n      0x00\n      dup1\n      revert\n    tag_31:\n      dup1\n      0x313ce567\n      gt\n      tag_35\n      jumpi\n      dup1\n      0x39509351\n      gt\n      tag_36\n      jumpi\n      dup1\n      0x39509351\n      eq\n      tag_12\n      jumpi\n      dup1\n      0x3f4ba83a\n      eq\n      tag_13\n      jumpi\n      dup1\n      0x42966c68\n      eq\n      tag_14\n      jumpi\n      dup1\n      0x4f1ef286\n      eq\n      tag_15\n      jumpi\n      0x00\n      dup1\n      revert\n    tag_36:\n      dup1\n      0x313ce567\n      eq\n      tag_9\n      jumpi\n      dup1\n      0x36568abe\n      eq\n      tag_10\n      jumpi\n      dup1\n      0x3659cfe6\n      eq\n      tag_11\n      jumpi\n      0x00\n      dup1\n      revert\n    tag_35:\n      dup1\n      0x18160ddd\n      gt\n      tag_37\n      jumpi\n      dup1\n      0x18160ddd\n      eq\n      tag_5\n      jumpi\n      dup1\n      0x23b872dd\n      eq\n      tag_6\n      jumpi\n      dup1\n      0x248a9ca3\n      eq\n      tag_7\n      jumpi\n      dup1\n      0x2f2ff15d\n      eq\n      tag_8\n      jumpi\n      0x00\n      dup1\n      revert\n    tag_37:\n      dup1\n      0x01ffc9a7\n      eq\n      tag_2\n      jumpi\n      dup1\n      0x06fdde03\n      eq\n      tag_3\n      jumpi\n      dup1\n      0x095ea7b3\n      eq\n      tag_4\n      jumpi\n    tag_1:\n      0x00\n      dup1\n      revert\n        /* \"@openzeppelin/contracts-upgradeable@4.9.2/access/AccessControlUpgradeable.sol\":3029:3242  function supportsInterface(bytes4 interfaceId) public view virtual override returns (bool) {... */\n    tag_2:\n      callvalue\n      dup1\n      iszero\n      tag_38\n      jumpi\n      0x00\n      dup1\n      revert\n    tag_38:\n      pop\n      tag_39\n      tag_40\n      calldatasize\n      0x04\n      tag_41\n      jump\t// in\n    tag_40:\n      tag_42\n      jump\t// in\n    tag_39:\n      mload(0x40)\n        /* \"#utility.yul\":470:484   */\n      swap1\n      iszero\n        /* \"#utility.yul\":463:485   */\n      iszero\n        /* \"#utility.yul\":445:486   */\n      dup2\n      mstore\n        /* \"#utility.yul\":433:435   */\n      0x20\n        /* \"#utility.yul\":418:436   */\n      add\n        /* \"@openzeppelin/contracts-upgradeable@4.9.2/access/AccessControlUpgradeable.sol\":3029:3242  function supportsInterface(bytes4 interfaceId) public view virtual override returns (bool) {... */\n    tag_43:\n      mload(0x40)\n      dup1\n      swap2\n      sub\n      swap1\n      return\n        /* \"@openzeppelin/contracts-upgradeable@4.9.2/token/ERC20/ERC20Upgradeable.sol\":2495:2593  function name() public view virtual override returns (string memory) {... */\n    tag_3:\n      callvalue\n      dup1\n      iszero\n      tag_45\n      jumpi\n      0x00\n      dup1\n      revert\n    tag_45:\n      pop\n      tag_46\n      tag_47\n      jump\t// in\n    tag_46:\n      mload(0x40)\n      tag_43\n      swap2\n      swap1\n      tag_49\n      jump\t// in\n        /* \"@openzeppelin/contracts-upgradeable@4.9.2/token/ERC20/ERC20Upgradeable.sol\":4781:4978  function approve(address spender, uint256 amount) public virtual override returns (bool) {... */\n    tag_4:\n      callvalue\n      dup1\n      iszero\n      tag_50\n      jumpi\n      0x00\n      dup1\n      revert\n    tag_50:\n      pop\n      tag_39\n      tag_52\n      calldatasize\n      0x04\n      tag_53\n      jump\t// in\n    tag_52:\n      tag_54\n      jump\t// in\n        /* \"@openzeppelin/contracts-upgradeable@4.9.2/token/ERC20/ERC20Upgradeable.sol\":3592:3698  function totalSupply() public view virtual override returns (uint256) {... */\n    tag_5:\n      callvalue\n      dup1\n      iszero\n      tag_56\n      jumpi\n      0x00\n      dup1\n      revert\n    tag_56:\n      pop\n        /* \"@openzeppelin/contracts-upgradeable@4.9.2/token/ERC20/ERC20Upgradeable.sol\":3679:3691  _totalSupply */\n      sload(0x35)\n        /* \"@openzeppelin/contracts-upgradeable@4.9.2/token/ERC20/ERC20Upgradeable.sol\":3592:3698  function totalSupply() public view virtual override returns (uint256) {... */\n    tag_57:\n      mload(0x40)\n        /* \"#utility.yul\":1731:1756   */\n      swap1\n      dup2\n      mstore\n        /* \"#utility.yul\":1719:1721   */\n      0x20\n        /* \"#utility.yul\":1704:1722   */\n      add\n        /* \"@openzeppelin/contracts-upgradeable@4.9.2/token/ERC20/ERC20Upgradeable.sol\":3592:3698  function totalSupply() public view virtual override returns (uint256) {... */\n      tag_43\n        /* \"#utility.yul\":1585:1762   */\n      jump\n        /* \"@openzeppelin/contracts-upgradeable@4.9.2/token/ERC20/ERC20Upgradeable.sol\":5540:5796  function transferFrom(address from, address to, uint256 amount) public virtual override returns (bool) {... */\n    tag_6:\n      callvalue\n      dup1\n      iszero\n      tag_61\n      jumpi\n      0x00\n      dup1\n      revert\n    tag_61:\n      pop\n      tag_39\n      tag_63\n      calldatasize\n      0x04\n      tag_64\n      jump\t// in\n    tag_63:\n      tag_65\n      jump\t// in\n        /* \"@openzeppelin/contracts-upgradeable@4.9.2/access/AccessControlUpgradeable.sol\":4834:4963  function getRoleAdmin(bytes32 role) public view virtual override returns (bytes32) {... */\n    tag_7:\n      callvalue\n      dup1\n      iszero\n      tag_67\n      jumpi\n      0x00\n      dup1\n      revert\n    tag_67:\n      pop\n      tag_57\n      tag_69\n      calldatasize\n      0x04\n      tag_70\n      jump\t// in\n    tag_69:\n        /* \"@openzeppelin/contracts-upgradeable@4.9.2/access/AccessControlUpgradeable.sol\":4908:4915  bytes32 */\n      0x00\n        /* \"@openzeppelin/contracts-upgradeable@4.9.2/access/AccessControlUpgradeable.sol\":4934:4946  _roles[role] */\n      swap1\n      dup2\n      mstore\n        /* \"@openzeppelin/contracts-upgradeable@4.9.2/access/AccessControlUpgradeable.sol\":4934:4940  _roles */\n      0xfb\n        /* \"@openzeppelin/contracts-upgradeable@4.9.2/access/AccessControlUpgradeable.sol\":4934:4946  _roles[role] */\n      0x20\n      mstore\n      0x40\n      swap1\n      keccak256\n        /* \"@openzeppelin/contracts-upgradeable@4.9.2/access/AccessControlUpgradeable.sol\":4934:4956  _roles[role].adminRole */\n      0x01\n      add\n      sload\n      swap1\n        /* \"@openzeppelin/contracts-upgradeable@4.9.2/access/AccessControlUpgradeable.sol\":4834:4963  function getRoleAdmin(bytes32 role) public view virtual override returns (bytes32) {... */\n      jump\n        /* \"@openzeppelin/contracts-upgradeable@4.9.2/access/AccessControlUpgradeable.sol\":5259:5404  function grantRole(bytes32 role, address account) public virtual override onlyRole(getRoleAdmin(role)) {... */\n    tag_8:\n      callvalue\n      dup1\n      iszero\n      tag_74\n      jumpi\n      0x00\n      dup1\n      revert\n    tag_74:\n      pop\n      tag_75\n      tag_76\n      calldatasize\n      0x04\n      tag_77\n      jump\t// in\n    tag_76:\n      tag_78\n      jump\t// in\n    tag_75:\n      stop\n        /* \"@openzeppelin/contracts-upgradeable@4.9.2/token/ERC20/ERC20Upgradeable.sol\":3441:3532  function decimals() public view virtual override returns (uint8) {... */\n    tag_9:\n      callvalue\n      dup1\n      iszero\n      tag_79\n      jumpi\n      0x00\n      dup1\n      revert\n    tag_79:\n      pop\n      mload(0x40)\n        /* \"@openzeppelin/contracts-upgradeable@4.9.2/token/ERC20/ERC20Upgradeable.sol\":3523:3525  18 */\n      0x12\n        /* \"#utility.yul\":2868:2904   */\n      dup2\n      mstore\n        /* \"#utility.yul\":2856:2858   */\n      0x20\n        /* \"#utility.yul\":2841:2859   */\n      add\n        /* \"@openzeppelin/contracts-upgradeable@4.9.2/token/ERC20/ERC20Upgradeable.sol\":3441:3532  function decimals() public view virtual override returns (uint8) {... */\n      tag_43\n        /* \"#utility.yul\":2726:2910   */\n      jump\n        /* \"@openzeppelin/contracts-upgradeable@4.9.2/access/AccessControlUpgradeable.sol\":6368:6582  function renounceRole(bytes32 role, address account) public virtual override {... */\n    tag_10:\n      callvalue\n      dup1\n      iszero\n      tag_84\n      jumpi\n      0x00\n      dup1\n      revert\n    tag_84:\n      pop\n      tag_75\n      tag_86\n      calldatasize\n      0x04\n      tag_77\n      jump\t// in\n    tag_86:\n      tag_87\n      jump\t// in\n        /* \"@openzeppelin/contracts-upgradeable@4.9.2/proxy/utils/UUPSUpgradeable.sol\":3387:3582  function upgradeTo(address newImplementation) public virtual onlyProxy {... */\n    tag_11:\n      callvalue\n      dup1\n      iszero\n      tag_88\n      jumpi\n      0x00\n      dup1\n      revert\n    tag_88:\n      pop\n      tag_75\n      tag_90\n      calldatasize\n      0x04\n      tag_91\n      jump\t// in\n    tag_90:\n      tag_92\n      jump\t// in\n        /* \"@openzeppelin/contracts-upgradeable@4.9.2/token/ERC20/ERC20Upgradeable.sol\":6191:6425  function increaseAllowance(address spender, uint256 addedValue) public virtual returns (bool) {... */\n    tag_12:\n      callvalue\n      dup1\n      iszero\n      tag_93\n      jumpi\n      0x00\n      dup1\n      revert\n    tag_93:\n      pop\n      tag_39\n      tag_95\n      calldatasize\n      0x04\n      tag_53\n      jump\t// in\n    tag_95:\n      tag_96\n      jump\t// in\n        /* \"PAXX.sol\":1640:1715  function unpause() public onlyRole(PAUSER_ROLE) {... */\n    tag_13:\n      callvalue\n      dup1\n      iszero\n      tag_98\n      jumpi\n      0x00\n      dup1\n      revert\n    tag_98:\n      pop\n      tag_75\n      tag_100\n      jump\t// in\n        /* \"@openzeppelin/contracts-upgradeable@4.9.2/token/ERC20/extensions/ERC20BurnableUpgradeable.sol\":848:937  function burn(uint256 amount) public virtual {... */\n    tag_14:\n      callvalue\n      dup1\n      iszero\n      tag_101\n      jumpi\n      0x00\n      dup1\n      revert\n    tag_101:\n      pop\n      tag_75\n      tag_103\n      calldatasize\n      0x04\n      tag_70\n      jump\t// in\n    tag_103:\n      tag_105\n      jump\t// in\n        /* \"@openzeppelin/contracts-upgradeable@4.9.2/proxy/utils/UUPSUpgradeable.sol\":3901:4121  function upgradeToAndCall(address newImplementation, bytes memory data) public payable virtual onlyProxy {... */\n    tag_15:\n      tag_75\n      tag_107\n      calldatasize\n      0x04\n      tag_108\n      jump\t// in\n    tag_107:\n      tag_109\n      jump\t// in\n        /* \"@openzeppelin/contracts-upgradeable@4.9.2/proxy/utils/UUPSUpgradeable.sol\":3006:3137  function proxiableUUID() external view virtual override notDelegated returns (bytes32) {... */\n    tag_16:\n      callvalue\n      dup1\n      iszero\n      tag_110\n      jumpi\n      0x00\n      dup1\n      revert\n    tag_110:\n      pop\n      tag_57\n      tag_112\n      jump\t// in\n        /* \"@openzeppelin/contracts-upgradeable@4.9.2/security/PausableUpgradeable.sol\":1858:1942  function paused() public view virtual returns (bool) {... */\n    tag_17:\n      callvalue\n      dup1\n      iszero\n      tag_114\n      jumpi\n      0x00\n      dup1\n      revert\n    tag_114:\n      pop\n        /* \"@openzeppelin/contracts-upgradeable@4.9.2/security/PausableUpgradeable.sol\":1928:1935  _paused */\n      and(0xff, sload(0x97))\n        /* \"@openzeppelin/contracts-upgradeable@4.9.2/security/PausableUpgradeable.sol\":1858:1942  function paused() public view virtual returns (bool) {... */\n      jump(tag_39)\n        /* \"@openzeppelin/contracts-upgradeable@4.9.2/token/ERC20/ERC20Upgradeable.sol\":3756:3881  function balanceOf(address account) public view virtual override returns (uint256) {... */\n    tag_18:\n      callvalue\n      dup1\n      iszero\n      tag_118\n      jumpi\n      0x00\n      dup1\n      revert\n    tag_118:\n      pop\n      tag_57\n      tag_120\n      calldatasize\n      0x04\n      tag_91\n      jump\t// in\n    tag_120:\n      sub(shl(0xa0, 0x01), 0x01)\n        /* \"@openzeppelin/contracts-upgradeable@4.9.2/token/ERC20/ERC20Upgradeable.sol\":3856:3874  _balances[account] */\n      and\n        /* \"@openzeppelin/contracts-upgradeable@4.9.2/token/ERC20/ERC20Upgradeable.sol\":3830:3837  uint256 */\n      0x00\n        /* \"@openzeppelin/contracts-upgradeable@4.9.2/token/ERC20/ERC20Upgradeable.sol\":3856:3874  _balances[account] */\n      swap1\n      dup2\n      mstore\n        /* \"@openzeppelin/contracts-upgradeable@4.9.2/token/ERC20/ERC20Upgradeable.sol\":3856:3865  _balances */\n      0x33\n        /* \"@openzeppelin/contracts-upgradeable@4.9.2/token/ERC20/ERC20Upgradeable.sol\":3856:3874  _balances[account] */\n      0x20\n      mstore\n      0x40\n      swap1\n      keccak256\n      sload\n      swap1\n        /* \"@openzeppelin/contracts-upgradeable@4.9.2/token/ERC20/ERC20Upgradeable.sol\":3756:3881  function balanceOf(address account) public view virtual override returns (uint256) {... */\n      jump\n        /* \"@openzeppelin/contracts-upgradeable@4.9.2/token/ERC20/extensions/ERC20BurnableUpgradeable.sol\":1243:1404  function burnFrom(address account, uint256 amount) public virtual {... */\n    tag_19:\n      callvalue\n      dup1\n      iszero\n      tag_123\n      jumpi\n      0x00\n      dup1\n      revert\n    tag_123:\n      pop\n      tag_75\n      tag_125\n      calldatasize\n      0x04\n      tag_53\n      jump\t// in\n    tag_125:\n      tag_126\n      jump\t// in\n        /* \"PAXX.sol\":1140:1557  function initialize() initializer public {... */\n    tag_20:\n      callvalue\n      dup1\n      iszero\n      tag_127\n      jumpi\n      0x00\n      dup1\n      revert\n    tag_127:\n      pop\n      tag_75\n      tag_129\n      jump\t// in\n        /* \"PAXX.sol\":1563:1634  function pause() public onlyRole(PAUSER_ROLE) {... */\n    tag_21:\n      callvalue\n      dup1\n      iszero\n      tag_130\n      jumpi\n      0x00\n      dup1\n      revert\n    tag_130:\n      pop\n      tag_75\n      tag_132\n      jump\t// in\n        /* \"@openzeppelin/contracts-upgradeable@4.9.2/access/AccessControlUpgradeable.sol\":3329:3474  function hasRole(bytes32 role, address account) public view virtual override returns (bool) {... */\n    tag_22:\n      callvalue\n      dup1\n      iszero\n      tag_133\n      jumpi\n      0x00\n      dup1\n      revert\n    tag_133:\n      pop\n      tag_39\n      tag_135\n      calldatasize\n      0x04\n      tag_77\n      jump\t// in\n    tag_135:\n      tag_136\n      jump\t// in\n        /* \"@openzeppelin/contracts-upgradeable@4.9.2/token/ERC20/ERC20Upgradeable.sol\":2706:2808  function symbol() public view virtual override returns (string memory) {... */\n    tag_23:\n      callvalue\n      dup1\n      iszero\n      tag_138\n      jumpi\n      0x00\n      dup1\n      revert\n    tag_138:\n      pop\n      tag_46\n      tag_140\n      jump\t// in\n        /* \"@openzeppelin/contracts-upgradeable@4.9.2/access/AccessControlUpgradeable.sol\":2450:2499  bytes32 public constant DEFAULT_ADMIN_ROLE = 0x00 */\n    tag_24:\n      callvalue\n      dup1\n      iszero\n      tag_142\n      jumpi\n      0x00\n      dup1\n      revert\n    tag_142:\n      pop\n      tag_57\n        /* \"@openzeppelin/contracts-upgradeable@4.9.2/access/AccessControlUpgradeable.sol\":2495:2499  0x00 */\n      0x00\n        /* \"@openzeppelin/contracts-upgradeable@4.9.2/access/AccessControlUpgradeable.sol\":2450:2499  bytes32 public constant DEFAULT_ADMIN_ROLE = 0x00 */\n      dup2\n      jump\n        /* \"@openzeppelin/contracts-upgradeable@4.9.2/token/ERC20/ERC20Upgradeable.sol\":6912:7339  function decreaseAllowance(address spender, uint256 subtractedValue) public virtual returns (bool) {... */\n    tag_25:\n      callvalue\n      dup1\n      iszero\n      tag_146\n      jumpi\n      0x00\n      dup1\n      revert\n    tag_146:\n      pop\n      tag_39\n      tag_148\n      calldatasize\n      0x04\n      tag_53\n      jump\t// in\n    tag_148:\n      tag_149\n      jump\t// in\n        /* \"@openzeppelin/contracts-upgradeable@4.9.2/token/ERC20/ERC20Upgradeable.sol\":4077:4266  function transfer(address to, uint256 amount) public virtual override returns (bool) {... */\n    tag_26:\n      callvalue\n      dup1\n      iszero\n      tag_151\n      jumpi\n      0x00\n      dup1\n      revert\n    tag_151:\n      pop\n      tag_39\n      tag_153\n      calldatasize\n      0x04\n      tag_53\n      jump\t// in\n    tag_153:\n      tag_154\n      jump\t// in\n        /* \"@openzeppelin/contracts-upgradeable@4.9.2/access/AccessControlUpgradeable.sol\":5684:5831  function revokeRole(bytes32 role, address account) public virtual override onlyRole(getRoleAdmin(role)) {... */\n    tag_27:\n      callvalue\n      dup1\n      iszero\n      tag_156\n      jumpi\n      0x00\n      dup1\n      revert\n    tag_156:\n      pop\n      tag_75\n      tag_158\n      calldatasize\n      0x04\n      tag_77\n      jump\t// in\n    tag_158:\n      tag_159\n      jump\t// in\n        /* \"@openzeppelin/contracts-upgradeable@4.9.2/token/ERC20/ERC20Upgradeable.sol\":4324:4473  function allowance(address owner, address spender) public view virtual override returns (uint256) {... */\n    tag_28:\n      callvalue\n      dup1\n      iszero\n      tag_160\n      jumpi\n      0x00\n      dup1\n      revert\n    tag_160:\n      pop\n      tag_57\n      tag_162\n      calldatasize\n      0x04\n      tag_163\n      jump\t// in\n    tag_162:\n      tag_164\n      jump\t// in\n        /* \"PAXX.sol\":782:844  bytes32 public constant PAUSER_ROLE = keccak256(\"PAUSER_ROLE\") */\n    tag_29:\n      callvalue\n      dup1\n      iszero\n      tag_166\n      jumpi\n      0x00\n      dup1\n      revert\n    tag_166:\n      pop\n      tag_57\n      0x00\n      dup1\n      mload\n      0x20\n      data_9b87106a812d214d41ad9b68a21119e2948eaaf1040375c939ec808b8862455c\n      dup4\n      codecopy\n      dup2\n      mload\n      swap2\n      mstore\n      dup2\n      jump\n        /* \"PAXX.sol\":850:916  bytes32 public constant UPGRADER_ROLE = keccak256(\"UPGRADER_ROLE\") */\n    tag_30:\n      callvalue\n      dup1\n      iszero\n      tag_170\n      jumpi\n      0x00\n      dup1\n      revert\n    tag_170:\n      pop\n      tag_57\n        /* \"PAXX.sol\":890:916  keccak256(\"UPGRADER_ROLE\") */\n      0x189ab7a9244df0848122154315af71fe140f3db0fe014031783b0946b8c9d2e3\n        /* \"PAXX.sol\":850:916  bytes32 public constant UPGRADER_ROLE = keccak256(\"UPGRADER_ROLE\") */\n      dup2\n      jump\n        /* \"@openzeppelin/contracts-upgradeable@4.9.2/access/AccessControlUpgradeable.sol\":3029:3242  function supportsInterface(bytes4 interfaceId) public view virtual override returns (bool) {... */\n    tag_42:\n        /* \"@openzeppelin/contracts-upgradeable@4.9.2/access/AccessControlUpgradeable.sol\":3114:3118  bool */\n      0x00\n      not(sub(shl(0xe0, 0x01), 0x01))\n        /* \"@openzeppelin/contracts-upgradeable@4.9.2/access/AccessControlUpgradeable.sol\":3137:3195  interfaceId == type(IAccessControlUpgradeable).interfaceId */\n      dup3\n      and\n      shl(0xe0, 0x7965db0b)\n      eq\n      dup1\n        /* \"@openzeppelin/contracts-upgradeable@4.9.2/access/AccessControlUpgradeable.sol\":3137:3235  interfaceId == type(IAccessControlUpgradeable).interfaceId || super.supportsInterface(interfaceId) */\n      tag_176\n      jumpi\n      pop\n      shl(0xe0, 0x01ffc9a7)\n      not(sub(shl(0xe0, 0x01), 0x01))\n        /* \"@openzeppelin/contracts-upgradeable@4.9.2/utils/introspection/ERC165Upgradeable.sol\":1168:1219  interfaceId == type(IERC165Upgradeable).interfaceId */\n      dup4\n      and\n      eq\n        /* \"@openzeppelin/contracts-upgradeable@4.9.2/access/AccessControlUpgradeable.sol\":3199:3235  super.supportsInterface(interfaceId) */\n    tag_176:\n        /* \"@openzeppelin/contracts-upgradeable@4.9.2/access/AccessControlUpgradeable.sol\":3130:3235  return interfaceId == type(IAccessControlUpgradeable).interfaceId || super.supportsInterface(interfaceId) */\n      swap3\n        /* \"@openzeppelin/contracts-upgradeable@4.9.2/access/AccessControlUpgradeable.sol\":3029:3242  function supportsInterface(bytes4 interfaceId) public view virtual override returns (bool) {... */\n      swap2\n      pop\n      pop\n      jump\t// out\n        /* \"@openzeppelin/contracts-upgradeable@4.9.2/token/ERC20/ERC20Upgradeable.sol\":2495:2593  function name() public view virtual override returns (string memory) {... */\n    tag_47:\n        /* \"@openzeppelin/contracts-upgradeable@4.9.2/token/ERC20/ERC20Upgradeable.sol\":2549:2562  string memory */\n      0x60\n        /* \"@openzeppelin/contracts-upgradeable@4.9.2/token/ERC20/ERC20Upgradeable.sol\":2581:2586  _name */\n      0x36\n        /* \"@openzeppelin/contracts-upgradeable@4.9.2/token/ERC20/ERC20Upgradeable.sol\":2574:2586  return _name */\n      dup1\n      sload\n      tag_179\n      swap1\n      tag_180\n      jump\t// in\n    tag_179:\n      dup1\n      0x1f\n      add\n      0x20\n      dup1\n      swap2\n      div\n      mul\n      0x20\n      add\n      mload(0x40)\n      swap1\n      dup2\n      add\n      0x40\n      mstore\n      dup1\n      swap3\n      swap2\n      swap1\n      dup2\n      dup2\n      mstore\n      0x20\n      add\n      dup3\n      dup1\n      sload\n      tag_181\n      swap1\n      tag_180\n      jump\t// in\n    tag_181:\n      dup1\n      iszero\n      tag_182\n      jumpi\n      dup1\n      0x1f\n      lt\n      tag_183\n      jumpi\n      0x0100\n      dup1\n      dup4\n      sload\n      div\n      mul\n      dup4\n      mstore\n      swap2\n      0x20\n      add\n      swap2\n      jump(tag_182)\n    tag_183:\n      dup3\n      add\n      swap2\n      swap1\n      0x00\n      mstore\n      keccak256(0x00, 0x20)\n      swap1\n    tag_184:\n      dup2\n      sload\n      dup2\n      mstore\n      swap1\n      0x01\n      add\n      swap1\n      0x20\n      add\n      dup1\n      dup4\n      gt\n      tag_184\n      jumpi\n      dup3\n      swap1\n      sub\n      0x1f\n      and\n      dup3\n      add\n      swap2\n    tag_182:\n      pop\n      pop\n      pop\n      pop\n      pop\n      swap1\n      pop\n        /* \"@openzeppelin/contracts-upgradeable@4.9.2/token/ERC20/ERC20Upgradeable.sol\":2495:2593  function name() public view virtual override returns (string memory) {... */\n      swap1\n      jump\t// out\n        /* \"@openzeppelin/contracts-upgradeable@4.9.2/token/ERC20/ERC20Upgradeable.sol\":4781:4978  function approve(address spender, uint256 amount) public virtual override returns (bool) {... */\n    tag_54:\n        /* \"@openzeppelin/contracts-upgradeable@4.9.2/token/ERC20/ERC20Upgradeable.sol\":4864:4868  bool */\n      0x00\n        /* \"@openzeppelin/contracts-upgradeable@4.9.2/utils/ContextUpgradeable.sol\":929:939  msg.sender */\n      caller\n        /* \"@openzeppelin/contracts-upgradeable@4.9.2/token/ERC20/ERC20Upgradeable.sol\":4918:4950  _approve(owner, spender, amount) */\n      tag_188\n        /* \"@openzeppelin/contracts-upgradeable@4.9.2/utils/ContextUpgradeable.sol\":929:939  msg.sender */\n      dup2\n        /* \"@openzeppelin/contracts-upgradeable@4.9.2/token/ERC20/ERC20Upgradeable.sol\":4934:4941  spender */\n      dup6\n        /* \"@openzeppelin/contracts-upgradeable@4.9.2/token/ERC20/ERC20Upgradeable.sol\":4943:4949  amount */\n      dup6\n        /* \"@openzeppelin/contracts-upgradeable@4.9.2/token/ERC20/ERC20Upgradeable.sol\":4918:4926  _approve */\n      tag_189\n        /* \"@openzeppelin/contracts-upgradeable@4.9.2/token/ERC20/ERC20Upgradeable.sol\":4918:4950  _approve(owner, spender, amount) */\n      jump\t// in\n    tag_188:\n      pop\n        /* \"@openzeppelin/contracts-upgradeable@4.9.2/token/ERC20/ERC20Upgradeable.sol\":4967:4971  true */\n      0x01\n      swap4\n        /* \"@openzeppelin/contracts-upgradeable@4.9.2/token/ERC20/ERC20Upgradeable.sol\":4781:4978  function approve(address spender, uint256 amount) public virtual override returns (bool) {... */\n      swap3\n      pop\n      pop\n      pop\n      jump\t// out\n        /* \"@openzeppelin/contracts-upgradeable@4.9.2/token/ERC20/ERC20Upgradeable.sol\":5540:5796  function transferFrom(address from, address to, uint256 amount) public virtual override returns (bool) {... */\n    tag_65:\n        /* \"@openzeppelin/contracts-upgradeable@4.9.2/token/ERC20/ERC20Upgradeable.sol\":5637:5641  bool */\n      0x00\n        /* \"@openzeppelin/contracts-upgradeable@4.9.2/utils/ContextUpgradeable.sol\":929:939  msg.sender */\n      caller\n        /* \"@openzeppelin/contracts-upgradeable@4.9.2/token/ERC20/ERC20Upgradeable.sol\":5693:5731  _spendAllowance(from, spender, amount) */\n      tag_193\n        /* \"@openzeppelin/contracts-upgradeable@4.9.2/token/ERC20/ERC20Upgradeable.sol\":5709:5713  from */\n      dup6\n        /* \"@openzeppelin/contracts-upgradeable@4.9.2/utils/ContextUpgradeable.sol\":929:939  msg.sender */\n      dup3\n        /* \"@openzeppelin/contracts-upgradeable@4.9.2/token/ERC20/ERC20Upgradeable.sol\":5724:5730  amount */\n      dup6\n        /* \"@openzeppelin/contracts-upgradeable@4.9.2/token/ERC20/ERC20Upgradeable.sol\":5693:5708  _spendAllowance */\n      tag_194\n        /* \"@openzeppelin/contracts-upgradeable@4.9.2/token/ERC20/ERC20Upgradeable.sol\":5693:5731  _spendAllowance(from, spender, amount) */\n      jump\t// in\n    tag_193:\n        /* \"@openzeppelin/contracts-upgradeable@4.9.2/token/ERC20/ERC20Upgradeable.sol\":5741:5768  _transfer(from, to, amount) */\n      tag_195\n        /* \"@openzeppelin/contracts-upgradeable@4.9.2/token/ERC20/ERC20Upgradeable.sol\":5751:5755  from */\n      dup6\n        /* \"@openzeppelin/contracts-upgradeable@4.9.2/token/ERC20/ERC20Upgradeable.sol\":5757:5759  to */\n      dup6\n        /* \"@openzeppelin/contracts-upgradeable@4.9.2/token/ERC20/ERC20Upgradeable.sol\":5761:5767  amount */\n      dup6\n        /* \"@openzeppelin/contracts-upgradeable@4.9.2/token/ERC20/ERC20Upgradeable.sol\":5741:5750  _transfer */\n      tag_196\n        /* \"@openzeppelin/contracts-upgradeable@4.9.2/token/ERC20/ERC20Upgradeable.sol\":5741:5768  _transfer(from, to, amount) */\n      jump\t// in\n    tag_195:\n      pop\n        /* \"@openzeppelin/contracts-upgradeable@4.9.2/token/ERC20/ERC20Upgradeable.sol\":5785:5789  true */\n      0x01\n      swap5\n        /* \"@openzeppelin/contracts-upgradeable@4.9.2/token/ERC20/ERC20Upgradeable.sol\":5540:5796  function transferFrom(address from, address to, uint256 amount) public virtual override returns (bool) {... */\n      swap4\n      pop\n      pop\n      pop\n      pop\n      jump\t// out\n        /* \"@openzeppelin/contracts-upgradeable@4.9.2/access/AccessControlUpgradeable.sol\":5259:5404  function grantRole(bytes32 role, address account) public virtual override onlyRole(getRoleAdmin(role)) {... */\n    tag_78:\n        /* \"@openzeppelin/contracts-upgradeable@4.9.2/access/AccessControlUpgradeable.sol\":4908:4915  bytes32 */\n      0x00\n        /* \"@openzeppelin/contracts-upgradeable@4.9.2/access/AccessControlUpgradeable.sol\":4934:4946  _roles[role] */\n      dup3\n      dup2\n      mstore\n        /* \"@openzeppelin/contracts-upgradeable@4.9.2/access/AccessControlUpgradeable.sol\":4934:4940  _roles */\n      0xfb\n        /* \"@openzeppelin/contracts-upgradeable@4.9.2/access/AccessControlUpgradeable.sol\":4934:4946  _roles[role] */\n      0x20\n      mstore\n      0x40\n      swap1\n      keccak256\n        /* \"@openzeppelin/contracts-upgradeable@4.9.2/access/AccessControlUpgradeable.sol\":4934:4956  _roles[role].adminRole */\n      0x01\n      add\n      sload\n        /* \"@openzeppelin/contracts-upgradeable@4.9.2/access/AccessControlUpgradeable.sol\":2928:2944  _checkRole(role) */\n      tag_200\n        /* \"@openzeppelin/contracts-upgradeable@4.9.2/access/AccessControlUpgradeable.sol\":2939:2943  role */\n      dup2\n        /* \"@openzeppelin/contracts-upgradeable@4.9.2/access/AccessControlUpgradeable.sol\":2928:2938  _checkRole */\n      tag_201\n        /* \"@openzeppelin/contracts-upgradeable@4.9.2/access/AccessControlUpgradeable.sol\":2928:2944  _checkRole(role) */\n      jump\t// in\n    tag_200:\n        /* \"@openzeppelin/contracts-upgradeable@4.9.2/access/AccessControlUpgradeable.sol\":5372:5397  _grantRole(role, account) */\n      tag_203\n        /* \"@openzeppelin/contracts-upgradeable@4.9.2/access/AccessControlUpgradeable.sol\":5383:5387  role */\n      dup4\n        /* \"@openzeppelin/contracts-upgradeable@4.9.2/access/AccessControlUpgradeable.sol\":5389:5396  account */\n      dup4\n        /* \"@openzeppelin/contracts-upgradeable@4.9.2/access/AccessControlUpgradeable.sol\":5372:5382  _grantRole */\n      tag_204\n        /* \"@openzeppelin/contracts-upgradeable@4.9.2/access/AccessControlUpgradeable.sol\":5372:5397  _grantRole(role, account) */\n      jump\t// in\n    tag_203:\n        /* \"@openzeppelin/contracts-upgradeable@4.9.2/access/AccessControlUpgradeable.sol\":5259:5404  function grantRole(bytes32 role, address account) public virtual override onlyRole(getRoleAdmin(role)) {... */\n      pop\n      pop\n      pop\n      jump\t// out\n        /* \"@openzeppelin/contracts-upgradeable@4.9.2/access/AccessControlUpgradeable.sol\":6368:6582  function renounceRole(bytes32 role, address account) public virtual override {... */\n    tag_87:\n      sub(shl(0xa0, 0x01), 0x01)\n        /* \"@openzeppelin/contracts-upgradeable@4.9.2/access/AccessControlUpgradeable.sol\":6463:6486  account == _msgSender() */\n      dup2\n      and\n        /* \"@openzeppelin/contracts-upgradeable@4.9.2/utils/ContextUpgradeable.sol\":929:939  msg.sender */\n      caller\n        /* \"@openzeppelin/contracts-upgradeable@4.9.2/access/AccessControlUpgradeable.sol\":6463:6486  account == _msgSender() */\n      eq\n        /* \"@openzeppelin/contracts-upgradeable@4.9.2/access/AccessControlUpgradeable.sol\":6455:6538  require(account == _msgSender(), \"AccessControl: can only renounce roles for self\") */\n      tag_208\n      jumpi\n      mload(0x40)\n      shl(0xe5, 0x461bcd)\n      dup2\n      mstore\n        /* \"#utility.yul\":5275:5277   */\n      0x20\n        /* \"@openzeppelin/contracts-upgradeable@4.9.2/access/AccessControlUpgradeable.sol\":6455:6538  require(account == _msgSender(), \"AccessControl: can only renounce roles for self\") */\n      0x04\n      dup3\n      add\n        /* \"#utility.yul\":5257:5278   */\n      mstore\n        /* \"#utility.yul\":5314:5316   */\n      0x2f\n        /* \"#utility.yul\":5294:5312   */\n      0x24\n      dup3\n      add\n        /* \"#utility.yul\":5287:5317   */\n      mstore\n        /* \"#utility.yul\":5353:5387   */\n      0x416363657373436f6e74726f6c3a2063616e206f6e6c792072656e6f756e6365\n        /* \"#utility.yul\":5333:5351   */\n      0x44\n      dup3\n      add\n        /* \"#utility.yul\":5326:5388   */\n      mstore\n      shl(0x89, 0x103937b632b9903337b91039b2b633)\n        /* \"#utility.yul\":5404:5422   */\n      0x64\n      dup3\n      add\n        /* \"#utility.yul\":5397:5442   */\n      mstore\n        /* \"#utility.yul\":5459:5478   */\n      0x84\n      add\n        /* \"@openzeppelin/contracts-upgradeable@4.9.2/access/AccessControlUpgradeable.sol\":6455:6538  require(account == _msgSender(), \"AccessControl: can only renounce roles for self\") */\n    tag_209:\n      mload(0x40)\n      dup1\n      swap2\n      sub\n      swap1\n      revert\n    tag_208:\n        /* \"@openzeppelin/contracts-upgradeable@4.9.2/access/AccessControlUpgradeable.sol\":6549:6575  _revokeRole(role, account) */\n      tag_211\n        /* \"@openzeppelin/contracts-upgradeable@4.9.2/access/AccessControlUpgradeable.sol\":6561:6565  role */\n      dup3\n        /* \"@openzeppelin/contracts-upgradeable@4.9.2/access/AccessControlUpgradeable.sol\":6567:6574  account */\n      dup3\n        /* \"@openzeppelin/contracts-upgradeable@4.9.2/access/AccessControlUpgradeable.sol\":6549:6560  _revokeRole */\n      tag_212\n        /* \"@openzeppelin/contracts-upgradeable@4.9.2/access/AccessControlUpgradeable.sol\":6549:6575  _revokeRole(role, account) */\n      jump\t// in\n    tag_211:\n        /* \"@openzeppelin/contracts-upgradeable@4.9.2/access/AccessControlUpgradeable.sol\":6368:6582  function renounceRole(bytes32 role, address account) public virtual override {... */\n      pop\n      pop\n      jump\t// out\n        /* \"@openzeppelin/contracts-upgradeable@4.9.2/proxy/utils/UUPSUpgradeable.sol\":3387:3582  function upgradeTo(address newImplementation) public virtual onlyProxy {... */\n    tag_92:\n        /* \"@openzeppelin/contracts-upgradeable@4.9.2/proxy/utils/UUPSUpgradeable.sol\":1889:1893  this */\n      address\n      sub(shl(0xa0, 0x01), 0x01)\n        /* \"@openzeppelin/contracts-upgradeable@4.9.2/proxy/utils/UUPSUpgradeable.sol\":1898:1904  __self */\n      immutable(\"0x3f2cb8b8a6f6ba8772056c1e4910fb442737deea593ec84e00cbccee66f6d0e1\")\n        /* \"@openzeppelin/contracts-upgradeable@4.9.2/proxy/utils/UUPSUpgradeable.sol\":1881:1904  address(this) != __self */\n      and\n      eq\n      iszero\n        /* \"@openzeppelin/contracts-upgradeable@4.9.2/proxy/utils/UUPSUpgradeable.sol\":1873:1953  require(address(this) != __self, \"Function must be called through delegatecall\") */\n      tag_214\n      jumpi\n      mload(0x40)\n      shl(0xe5, 0x461bcd)\n      dup2\n      mstore\n      0x04\n      add\n      tag_209\n      swap1\n      tag_216\n      jump\t// in\n    tag_214:\n        /* \"@openzeppelin/contracts-upgradeable@4.9.2/proxy/utils/UUPSUpgradeable.sol\":1995:2001  __self */\n      immutable(\"0x3f2cb8b8a6f6ba8772056c1e4910fb442737deea593ec84e00cbccee66f6d0e1\")\n      sub(shl(0xa0, 0x01), 0x01)\n        /* \"@openzeppelin/contracts-upgradeable@4.9.2/proxy/utils/UUPSUpgradeable.sol\":1971:2001  _getImplementation() == __self */\n      and\n        /* \"@openzeppelin/contracts-upgradeable@4.9.2/proxy/utils/UUPSUpgradeable.sol\":1971:1991  _getImplementation() */\n      tag_217\n      0x00\n      dup1\n      mload\n      0x20\n      data_75b20eef8615de99c108b05f0dbda081c91897128caa336d75dffb97c4132b4d\n      dup4\n      codecopy\n      dup2\n      mload\n      swap2\n      mstore\n        /* \"@openzeppelin/contracts-upgradeable@4.9.2/proxy/ERC1967/ERC1967UpgradeUpgradeable.sol\":1536:1601  StorageSlotUpgradeable.getAddressSlot(_IMPLEMENTATION_SLOT).value */\n      sload\n      sub(shl(0xa0, 0x01), 0x01)\n      and\n      swap1\n        /* \"@openzeppelin/contracts-upgradeable@4.9.2/proxy/ERC1967/ERC1967UpgradeUpgradeable.sol\":1457:1608  function _getImplementation() internal view returns (address) {... */\n      jump\n        /* \"@openzeppelin/contracts-upgradeable@4.9.2/proxy/utils/UUPSUpgradeable.sol\":1971:1991  _getImplementation() */\n    tag_217:\n      sub(shl(0xa0, 0x01), 0x01)\n        /* \"@openzeppelin/contracts-upgradeable@4.9.2/proxy/utils/UUPSUpgradeable.sol\":1971:2001  _getImplementation() == __self */\n      and\n      eq\n        /* \"@openzeppelin/contracts-upgradeable@4.9.2/proxy/utils/UUPSUpgradeable.sol\":1963:2050  require(_getImplementation() == __self, \"Function must be called through active proxy\") */\n      tag_219\n      jumpi\n      mload(0x40)\n      shl(0xe5, 0x461bcd)\n      dup2\n      mstore\n      0x04\n      add\n      tag_209\n      swap1\n      tag_221\n      jump\t// in\n    tag_219:\n        /* \"@openzeppelin/contracts-upgradeable@4.9.2/proxy/utils/UUPSUpgradeable.sol\":3468:3504  _authorizeUpgrade(newImplementation) */\n      tag_223\n        /* \"@openzeppelin/contracts-upgradeable@4.9.2/proxy/utils/UUPSUpgradeable.sol\":3486:3503  newImplementation */\n      dup2\n        /* \"@openzeppelin/contracts-upgradeable@4.9.2/proxy/utils/UUPSUpgradeable.sol\":3468:3485  _authorizeUpgrade */\n      tag_224\n        /* \"@openzeppelin/contracts-upgradeable@4.9.2/proxy/utils/UUPSUpgradeable.sol\":3468:3504  _authorizeUpgrade(newImplementation) */\n      jump\t// in\n    tag_223:\n        /* \"@openzeppelin/contracts-upgradeable@4.9.2/proxy/utils/UUPSUpgradeable.sol\":3555:3567  new bytes(0) */\n      0x40\n      dup1\n      mload\n        /* \"@openzeppelin/contracts-upgradeable@4.9.2/proxy/utils/UUPSUpgradeable.sol\":3565:3566  0 */\n      0x00\n        /* \"@openzeppelin/contracts-upgradeable@4.9.2/proxy/utils/UUPSUpgradeable.sol\":3555:3567  new bytes(0) */\n      dup1\n      dup3\n      mstore\n      0x20\n      dup3\n      add\n      swap1\n      swap3\n      mstore\n        /* \"@openzeppelin/contracts-upgradeable@4.9.2/proxy/utils/UUPSUpgradeable.sol\":3514:3575  _upgradeToAndCallUUPS(newImplementation, new bytes(0), false) */\n      tag_225\n      swap2\n        /* \"@openzeppelin/contracts-upgradeable@4.9.2/proxy/utils/UUPSUpgradeable.sol\":3536:3553  newImplementation */\n      dup4\n      swap2\n        /* \"@openzeppelin/contracts-upgradeable@4.9.2/proxy/utils/UUPSUpgradeable.sol\":3555:3567  new bytes(0) */\n      swap1\n        /* \"@openzeppelin/contracts-upgradeable@4.9.2/proxy/utils/UUPSUpgradeable.sol\":3514:3535  _upgradeToAndCallUUPS */\n      tag_230\n        /* \"@openzeppelin/contracts-upgradeable@4.9.2/proxy/utils/UUPSUpgradeable.sol\":3514:3575  _upgradeToAndCallUUPS(newImplementation, new bytes(0), false) */\n      jump\t// in\n    tag_225:\n        /* \"@openzeppelin/contracts-upgradeable@4.9.2/proxy/utils/UUPSUpgradeable.sol\":3387:3582  function upgradeTo(address newImplementation) public virtual onlyProxy {... */\n      pop\n      jump\t// out\n        /* \"@openzeppelin/contracts-upgradeable@4.9.2/token/ERC20/ERC20Upgradeable.sol\":6191:6425  function increaseAllowance(address spender, uint256 addedValue) public virtual returns (bool) {... */\n    tag_96:\n        /* \"@openzeppelin/contracts-upgradeable@4.9.2/token/ERC20/ERC20Upgradeable.sol\":6279:6283  bool */\n      0x00\n        /* \"@openzeppelin/contracts-upgradeable@4.9.2/utils/ContextUpgradeable.sol\":929:939  msg.sender */\n      caller\n        /* \"@openzeppelin/contracts-upgradeable@4.9.2/token/ERC20/ERC20Upgradeable.sol\":6333:6397  _approve(owner, spender, allowance(owner, spender) + addedValue) */\n      tag_188\n        /* \"@openzeppelin/contracts-upgradeable@4.9.2/utils/ContextUpgradeable.sol\":929:939  msg.sender */\n      dup2\n        /* \"@openzeppelin/contracts-upgradeable@4.9.2/token/ERC20/ERC20Upgradeable.sol\":6349:6356  spender */\n      dup6\n        /* \"@openzeppelin/contracts-upgradeable@4.9.2/token/ERC20/ERC20Upgradeable.sol\":6386:6396  addedValue */\n      dup6\n        /* \"@openzeppelin/contracts-upgradeable@4.9.2/token/ERC20/ERC20Upgradeable.sol\":6358:6383  allowance(owner, spender) */\n      tag_234\n        /* \"@openzeppelin/contracts-upgradeable@4.9.2/utils/ContextUpgradeable.sol\":929:939  msg.sender */\n      dup4\n        /* \"@openzeppelin/contracts-upgradeable@4.9.2/token/ERC20/ERC20Upgradeable.sol\":6349:6356  spender */\n      dup4\n        /* \"@openzeppelin/contracts-upgradeable@4.9.2/token/ERC20/ERC20Upgradeable.sol\":6358:6367  allowance */\n      tag_164\n        /* \"@openzeppelin/contracts-upgradeable@4.9.2/token/ERC20/ERC20Upgradeable.sol\":6358:6383  allowance(owner, spender) */\n      jump\t// in\n    tag_234:\n        /* \"@openzeppelin/contracts-upgradeable@4.9.2/token/ERC20/ERC20Upgradeable.sol\":6358:6396  allowance(owner, spender) + addedValue */\n      tag_235\n      swap2\n      swap1\n      tag_236\n      jump\t// in\n    tag_235:\n        /* \"@openzeppelin/contracts-upgradeable@4.9.2/token/ERC20/ERC20Upgradeable.sol\":6333:6341  _approve */\n      tag_189\n        /* \"@openzeppelin/contracts-upgradeable@4.9.2/token/ERC20/ERC20Upgradeable.sol\":6333:6397  _approve(owner, spender, allowance(owner, spender) + addedValue) */\n      jump\t// in\n        /* \"PAXX.sol\":1640:1715  function unpause() public onlyRole(PAUSER_ROLE) {... */\n    tag_100:\n      0x00\n      dup1\n      mload\n      0x20\n      data_9b87106a812d214d41ad9b68a21119e2948eaaf1040375c939ec808b8862455c\n      dup4\n      codecopy\n      dup2\n      mload\n      swap2\n      mstore\n        /* \"@openzeppelin/contracts-upgradeable@4.9.2/access/AccessControlUpgradeable.sol\":2928:2944  _checkRole(role) */\n      tag_238\n        /* \"@openzeppelin/contracts-upgradeable@4.9.2/access/AccessControlUpgradeable.sol\":2939:2943  role */\n      dup2\n        /* \"@openzeppelin/contracts-upgradeable@4.9.2/access/AccessControlUpgradeable.sol\":2928:2938  _checkRole */\n      tag_201\n        /* \"@openzeppelin/contracts-upgradeable@4.9.2/access/AccessControlUpgradeable.sol\":2928:2944  _checkRole(role) */\n      jump\t// in\n    tag_238:\n        /* \"PAXX.sol\":1698:1708  _unpause() */\n      tag_225\n        /* \"PAXX.sol\":1698:1706  _unpause */\n      tag_241\n        /* \"PAXX.sol\":1698:1708  _unpause() */\n      jump\t// in\n        /* \"@openzeppelin/contracts-upgradeable@4.9.2/token/ERC20/extensions/ERC20BurnableUpgradeable.sol\":848:937  function burn(uint256 amount) public virtual {... */\n    tag_105:\n        /* \"@openzeppelin/contracts-upgradeable@4.9.2/token/ERC20/extensions/ERC20BurnableUpgradeable.sol\":903:930  _burn(_msgSender(), amount) */\n      tag_225\n        /* \"@openzeppelin/contracts-upgradeable@4.9.2/utils/ContextUpgradeable.sol\":929:939  msg.sender */\n      caller\n        /* \"@openzeppelin/contracts-upgradeable@4.9.2/token/ERC20/extensions/ERC20BurnableUpgradeable.sol\":923:929  amount */\n      dup3\n        /* \"@openzeppelin/contracts-upgradeable@4.9.2/token/ERC20/extensions/ERC20BurnableUpgradeable.sol\":903:908  _burn */\n      tag_245\n        /* \"@openzeppelin/contracts-upgradeable@4.9.2/token/ERC20/extensions/ERC20BurnableUpgradeable.sol\":903:930  _burn(_msgSender(), amount) */\n      jump\t// in\n        /* \"@openzeppelin/contracts-upgradeable@4.9.2/proxy/utils/UUPSUpgradeable.sol\":3901:4121  function upgradeToAndCall(address newImplementation, bytes memory data) public payable virtual onlyProxy {... */\n    tag_109:\n        /* \"@openzeppelin/contracts-upgradeable@4.9.2/proxy/utils/UUPSUpgradeable.sol\":1889:1893  this */\n      address\n      sub(shl(0xa0, 0x01), 0x01)\n        /* \"@openzeppelin/contracts-upgradeable@4.9.2/proxy/utils/UUPSUpgradeable.sol\":1898:1904  __self */\n      immutable(\"0x3f2cb8b8a6f6ba8772056c1e4910fb442737deea593ec84e00cbccee66f6d0e1\")\n        /* \"@openzeppelin/contracts-upgradeable@4.9.2/proxy/utils/UUPSUpgradeable.sol\":1881:1904  address(this) != __self */\n      and\n      eq\n      iszero\n        /* \"@openzeppelin/contracts-upgradeable@4.9.2/proxy/utils/UUPSUpgradeable.sol\":1873:1953  require(address(this) != __self, \"Function must be called through delegatecall\") */\n      tag_247\n      jumpi\n      mload(0x40)\n      shl(0xe5, 0x461bcd)\n      dup2\n      mstore\n      0x04\n      add\n      tag_209\n      swap1\n      tag_216\n      jump\t// in\n    tag_247:\n        /* \"@openzeppelin/contracts-upgradeable@4.9.2/proxy/utils/UUPSUpgradeable.sol\":1995:2001  __self */\n      immutable(\"0x3f2cb8b8a6f6ba8772056c1e4910fb442737deea593ec84e00cbccee66f6d0e1\")\n      sub(shl(0xa0, 0x01), 0x01)\n        /* \"@openzeppelin/contracts-upgradeable@4.9.2/proxy/utils/UUPSUpgradeable.sol\":1971:2001  _getImplementation() == __self */\n      and\n        /* \"@openzeppelin/contracts-upgradeable@4.9.2/proxy/utils/UUPSUpgradeable.sol\":1971:1991  _getImplementation() */\n      tag_249\n      0x00\n      dup1\n      mload\n      0x20\n      data_75b20eef8615de99c108b05f0dbda081c91897128caa336d75dffb97c4132b4d\n      dup4\n      codecopy\n      dup2\n      mload\n      swap2\n      mstore\n        /* \"@openzeppelin/contracts-upgradeable@4.9.2/proxy/ERC1967/ERC1967UpgradeUpgradeable.sol\":1536:1601  StorageSlotUpgradeable.getAddressSlot(_IMPLEMENTATION_SLOT).value */\n      sload\n      sub(shl(0xa0, 0x01), 0x01)\n      and\n      swap1\n        /* \"@openzeppelin/contracts-upgradeable@4.9.2/proxy/ERC1967/ERC1967UpgradeUpgradeable.sol\":1457:1608  function _getImplementation() internal view returns (address) {... */\n      jump\n        /* \"@openzeppelin/contracts-upgradeable@4.9.2/proxy/utils/UUPSUpgradeable.sol\":1971:1991  _getImplementation() */\n    tag_249:\n      sub(shl(0xa0, 0x01), 0x01)\n        /* \"@openzeppelin/contracts-upgradeable@4.9.2/proxy/utils/UUPSUpgradeable.sol\":1971:2001  _getImplementation() == __self */\n      and\n      eq\n        /* \"@openzeppelin/contracts-upgradeable@4.9.2/proxy/utils/UUPSUpgradeable.sol\":1963:2050  require(_getImplementation() == __self, \"Function must be called through active proxy\") */\n      tag_250\n      jumpi\n      mload(0x40)\n      shl(0xe5, 0x461bcd)\n      dup2\n      mstore\n      0x04\n      add\n      tag_209\n      swap1\n      tag_221\n      jump\t// in\n    tag_250:\n        /* \"@openzeppelin/contracts-upgradeable@4.9.2/proxy/utils/UUPSUpgradeable.sol\":4016:4052  _authorizeUpgrade(newImplementation) */\n      tag_253\n        /* \"@openzeppelin/contracts-upgradeable@4.9.2/proxy/utils/UUPSUpgradeable.sol\":4034:4051  newImplementation */\n      dup3\n        /* \"@openzeppelin/contracts-upgradeable@4.9.2/proxy/utils/UUPSUpgradeable.sol\":4016:4033  _authorizeUpgrade */\n      tag_224\n        /* \"@openzeppelin/contracts-upgradeable@4.9.2/proxy/utils/UUPSUpgradeable.sol\":4016:4052  _authorizeUpgrade(newImplementation) */\n      jump\t// in\n    tag_253:\n        /* \"@openzeppelin/contracts-upgradeable@4.9.2/proxy/utils/UUPSUpgradeable.sol\":4062:4114  _upgradeToAndCallUUPS(newImplementation, data, true) */\n      tag_211\n        /* \"@openzeppelin/contracts-upgradeable@4.9.2/proxy/utils/UUPSUpgradeable.sol\":4084:4101  newImplementation */\n      dup3\n        /* \"@openzeppelin/contracts-upgradeable@4.9.2/proxy/utils/UUPSUpgradeable.sol\":4103:4107  data */\n      dup3\n        /* \"@openzeppelin/contracts-upgradeable@4.9.2/proxy/utils/UUPSUpgradeable.sol\":4109:4113  true */\n      0x01\n        /* \"@openzeppelin/contracts-upgradeable@4.9.2/proxy/utils/UUPSUpgradeable.sol\":4062:4083  _upgradeToAndCallUUPS */\n      tag_230\n        /* \"@openzeppelin/contracts-upgradeable@4.9.2/proxy/utils/UUPSUpgradeable.sol\":4062:4114  _upgradeToAndCallUUPS(newImplementation, data, true) */\n      jump\t// in\n        /* \"@openzeppelin/contracts-upgradeable@4.9.2/proxy/utils/UUPSUpgradeable.sol\":3006:3137  function proxiableUUID() external view virtual override notDelegated returns (bytes32) {... */\n    tag_112:\n        /* \"@openzeppelin/contracts-upgradeable@4.9.2/proxy/utils/UUPSUpgradeable.sol\":3084:3091  bytes32 */\n      0x00\n        /* \"@openzeppelin/contracts-upgradeable@4.9.2/proxy/utils/UUPSUpgradeable.sol\":2324:2328  this */\n      address\n      sub(shl(0xa0, 0x01), 0x01)\n        /* \"@openzeppelin/contracts-upgradeable@4.9.2/proxy/utils/UUPSUpgradeable.sol\":2333:2339  __self */\n      immutable(\"0x3f2cb8b8a6f6ba8772056c1e4910fb442737deea593ec84e00cbccee66f6d0e1\")\n        /* \"@openzeppelin/contracts-upgradeable@4.9.2/proxy/utils/UUPSUpgradeable.sol\":2316:2339  address(this) == __self */\n      and\n      eq\n        /* \"@openzeppelin/contracts-upgradeable@4.9.2/proxy/utils/UUPSUpgradeable.sol\":2308:2400  require(address(this) == __self, \"UUPSUpgradeable: must not be called through delegatecall\") */\n      tag_256\n      jumpi\n      mload(0x40)\n      shl(0xe5, 0x461bcd)\n      dup2\n      mstore\n        /* \"#utility.yul\":6782:6784   */\n      0x20\n        /* \"@openzeppelin/contracts-upgradeable@4.9.2/proxy/utils/UUPSUpgradeable.sol\":2308:2400  require(address(this) == __self, \"UUPSUpgradeable: must not be called through delegatecall\") */\n      0x04\n      dup3\n      add\n        /* \"#utility.yul\":6764:6785   */\n      mstore\n        /* \"#utility.yul\":6821:6823   */\n      0x38\n        /* \"#utility.yul\":6801:6819   */\n      0x24\n      dup3\n      add\n        /* \"#utility.yul\":6794:6824   */\n      mstore\n        /* \"#utility.yul\":6860:6894   */\n      0x555550535570677261646561626c653a206d757374206e6f742062652063616c\n        /* \"#utility.yul\":6840:6858   */\n      0x44\n      dup3\n      add\n        /* \"#utility.yul\":6833:6895   */\n      mstore\n        /* \"#utility.yul\":6931:6957   */\n      0x6c6564207468726f7567682064656c656761746563616c6c0000000000000000\n        /* \"#utility.yul\":6911:6929   */\n      0x64\n      dup3\n      add\n        /* \"#utility.yul\":6904:6958   */\n      mstore\n        /* \"#utility.yul\":6975:6994   */\n      0x84\n      add\n        /* \"@openzeppelin/contracts-upgradeable@4.9.2/proxy/utils/UUPSUpgradeable.sol\":2308:2400  require(address(this) == __self, \"UUPSUpgradeable: must not be called through delegatecall\") */\n      tag_209\n        /* \"#utility.yul\":6580:7000   */\n      jump\n        /* \"@openzeppelin/contracts-upgradeable@4.9.2/proxy/utils/UUPSUpgradeable.sol\":2308:2400  require(address(this) == __self, \"UUPSUpgradeable: must not be called through delegatecall\") */\n    tag_256:\n      pop\n      0x00\n      dup1\n      mload\n      0x20\n      data_75b20eef8615de99c108b05f0dbda081c91897128caa336d75dffb97c4132b4d\n      dup4\n      codecopy\n      dup2\n      mload\n      swap2\n      mstore\n        /* \"@openzeppelin/contracts-upgradeable@4.9.2/proxy/utils/UUPSUpgradeable.sol\":3006:3137  function proxiableUUID() external view virtual override notDelegated returns (bytes32) {... */\n      swap1\n      jump\t// out\n        /* \"@openzeppelin/contracts-upgradeable@4.9.2/token/ERC20/extensions/ERC20BurnableUpgradeable.sol\":1243:1404  function burnFrom(address account, uint256 amount) public virtual {... */\n    tag_126:\n        /* \"@openzeppelin/contracts-upgradeable@4.9.2/token/ERC20/extensions/ERC20BurnableUpgradeable.sol\":1319:1365  _spendAllowance(account, _msgSender(), amount) */\n      tag_263\n        /* \"@openzeppelin/contracts-upgradeable@4.9.2/token/ERC20/extensions/ERC20BurnableUpgradeable.sol\":1335:1342  account */\n      dup3\n        /* \"@openzeppelin/contracts-upgradeable@4.9.2/utils/ContextUpgradeable.sol\":929:939  msg.sender */\n      caller\n        /* \"@openzeppelin/contracts-upgradeable@4.9.2/token/ERC20/extensions/ERC20BurnableUpgradeable.sol\":1358:1364  amount */\n      dup4\n        /* \"@openzeppelin/contracts-upgradeable@4.9.2/token/ERC20/extensions/ERC20BurnableUpgradeable.sol\":1319:1334  _spendAllowance */\n      tag_194\n        /* \"@openzeppelin/contracts-upgradeable@4.9.2/token/ERC20/extensions/ERC20BurnableUpgradeable.sol\":1319:1365  _spendAllowance(account, _msgSender(), amount) */\n      jump\t// in\n    tag_263:\n        /* \"@openzeppelin/contracts-upgradeable@4.9.2/token/ERC20/extensions/ERC20BurnableUpgradeable.sol\":1375:1397  _burn(account, amount) */\n      tag_211\n        /* \"@openzeppelin/contracts-upgradeable@4.9.2/token/ERC20/extensions/ERC20BurnableUpgradeable.sol\":1381:1388  account */\n      dup3\n        /* \"@openzeppelin/contracts-upgradeable@4.9.2/token/ERC20/extensions/ERC20BurnableUpgradeable.sol\":1390:1396  amount */\n      dup3\n        /* \"@openzeppelin/contracts-upgradeable@4.9.2/token/ERC20/extensions/ERC20BurnableUpgradeable.sol\":1375:1380  _burn */\n      tag_245\n        /* \"@openzeppelin/contracts-upgradeable@4.9.2/token/ERC20/extensions/ERC20BurnableUpgradeable.sol\":1375:1397  _burn(account, amount) */\n      jump\t// in\n        /* \"PAXX.sol\":1140:1557  function initialize() initializer public {... */\n    tag_129:\n        /* \"@openzeppelin/contracts-upgradeable@4.9.2/proxy/utils/Initializable.sol\":3279:3298  bool isTopLevelCall */\n      0x00\n        /* \"@openzeppelin/contracts-upgradeable@4.9.2/proxy/utils/Initializable.sol\":3302:3315  _initializing */\n      sload\n      0x0100\n      swap1\n      div\n      0xff\n      and\n        /* \"@openzeppelin/contracts-upgradeable@4.9.2/proxy/utils/Initializable.sol\":3301:3315  !_initializing */\n      iszero\n      dup1\n        /* \"@openzeppelin/contracts-upgradeable@4.9.2/proxy/utils/Initializable.sol\":3347:3381  isTopLevelCall && _initialized < 1 */\n      dup1\n      iszero\n      tag_267\n      jumpi\n      pop\n        /* \"@openzeppelin/contracts-upgradeable@4.9.2/proxy/utils/Initializable.sol\":3365:3377  _initialized */\n      sload(0x00)\n        /* \"@openzeppelin/contracts-upgradeable@4.9.2/proxy/utils/Initializable.sol\":3380:3381  1 */\n      0x01\n        /* \"@openzeppelin/contracts-upgradeable@4.9.2/proxy/utils/Initializable.sol\":3365:3377  _initialized */\n      0xff\n      swap1\n      swap2\n      and\n        /* \"@openzeppelin/contracts-upgradeable@4.9.2/proxy/utils/Initializable.sol\":3365:3381  _initialized < 1 */\n      lt\n        /* \"@openzeppelin/contracts-upgradeable@4.9.2/proxy/utils/Initializable.sol\":3347:3381  isTopLevelCall && _initialized < 1 */\n    tag_267:\n        /* \"@openzeppelin/contracts-upgradeable@4.9.2/proxy/utils/Initializable.sol\":3346:3454  (isTopLevelCall && _initialized < 1) || (!AddressUpgradeable.isContract(address(this)) && _initialized == 1) */\n      dup1\n      tag_271\n      jumpi\n      pop\n        /* \"@openzeppelin/contracts-upgradeable@4.9.2/proxy/utils/Initializable.sol\":3426:3430  this */\n      address\n        /* \"@openzeppelin/contracts-upgradeable@4.9.2/utils/AddressUpgradeable.sol\":1713:1732  account.code.length */\n      extcodesize\n        /* \"@openzeppelin/contracts-upgradeable@4.9.2/utils/AddressUpgradeable.sol\":1713:1736  account.code.length > 0 */\n      iszero\n      dup1\n      iszero\n        /* \"@openzeppelin/contracts-upgradeable@4.9.2/proxy/utils/Initializable.sol\":3387:3453  !AddressUpgradeable.isContract(address(this)) && _initialized == 1 */\n      tag_271\n      jumpi\n      pop\n        /* \"@openzeppelin/contracts-upgradeable@4.9.2/proxy/utils/Initializable.sol\":3436:3448  _initialized */\n      and(0xff, sload(0x00))\n      0x01\n        /* \"@openzeppelin/contracts-upgradeable@4.9.2/proxy/utils/Initializable.sol\":3436:3453  _initialized == 1 */\n      eq\n        /* \"@openzeppelin/contracts-upgradeable@4.9.2/proxy/utils/Initializable.sol\":3387:3453  !AddressUpgradeable.isContract(address(this)) && _initialized == 1 */\n    tag_271:\n        /* \"@openzeppelin/contracts-upgradeable@4.9.2/proxy/utils/Initializable.sol\":3325:3526  require(... */\n      tag_272\n      jumpi\n      mload(0x40)\n      shl(0xe5, 0x461bcd)\n      dup2\n      mstore\n        /* \"#utility.yul\":7207:7209   */\n      0x20\n        /* \"@openzeppelin/contracts-upgradeable@4.9.2/proxy/utils/Initializable.sol\":3325:3526  require(... */\n      0x04\n      dup3\n      add\n        /* \"#utility.yul\":7189:7210   */\n      mstore\n        /* \"#utility.yul\":7246:7248   */\n      0x2e\n        /* \"#utility.yul\":7226:7244   */\n      0x24\n      dup3\n      add\n        /* \"#utility.yul\":7219:7249   */\n      mstore\n        /* \"#utility.yul\":7285:7319   */\n      0x496e697469616c697a61626c653a20636f6e747261637420697320616c726561\n        /* \"#utility.yul\":7265:7283   */\n      0x44\n      dup3\n      add\n        /* \"#utility.yul\":7258:7320   */\n      mstore\n      shl(0x92, 0x191e481a5b9a5d1a585b1a5e9959)\n        /* \"#utility.yul\":7336:7354   */\n      0x64\n      dup3\n      add\n        /* \"#utility.yul\":7329:7373   */\n      mstore\n        /* \"#utility.yul\":7390:7409   */\n      0x84\n      add\n        /* \"@openzeppelin/contracts-upgradeable@4.9.2/proxy/utils/Initializable.sol\":3325:3526  require(... */\n      tag_209\n        /* \"#utility.yul\":7005:7415   */\n      jump\n        /* \"@openzeppelin/contracts-upgradeable@4.9.2/proxy/utils/Initializable.sol\":3325:3526  require(... */\n    tag_272:\n        /* \"@openzeppelin/contracts-upgradeable@4.9.2/proxy/utils/Initializable.sol\":3536:3548  _initialized */\n      0x00\n        /* \"@openzeppelin/contracts-upgradeable@4.9.2/proxy/utils/Initializable.sol\":3536:3552  _initialized = 1 */\n      dup1\n      sload\n      not(0xff)\n      and\n        /* \"@openzeppelin/contracts-upgradeable@4.9.2/proxy/utils/Initializable.sol\":3551:3552  1 */\n      0x01\n        /* \"@openzeppelin/contracts-upgradeable@4.9.2/proxy/utils/Initializable.sol\":3536:3552  _initialized = 1 */\n      or\n      swap1\n      sstore\n        /* \"@openzeppelin/contracts-upgradeable@4.9.2/proxy/utils/Initializable.sol\":3562:3627  if (isTopLevelCall) {... */\n      dup1\n      iszero\n      tag_275\n      jumpi\n        /* \"@openzeppelin/contracts-upgradeable@4.9.2/proxy/utils/Initializable.sol\":3596:3609  _initializing */\n      0x00\n        /* \"@openzeppelin/contracts-upgradeable@4.9.2/proxy/utils/Initializable.sol\":3596:3616  _initializing = true */\n      dup1\n      sload\n      not(0xff00)\n      and\n      0x0100\n      or\n      swap1\n      sstore\n        /* \"@openzeppelin/contracts-upgradeable@4.9.2/proxy/utils/Initializable.sol\":3562:3627  if (isTopLevelCall) {... */\n    tag_275:\n        /* \"PAXX.sol\":1191:1222  __ERC20_init(\"PRAXXIS\", \"PAXX\") */\n      tag_277\n      mload(0x40)\n      dup1\n      0x40\n      add\n      0x40\n      mstore\n      dup1\n      0x07\n      dup2\n      mstore\n      0x20\n      add\n      shl(0xc8, 0x50524158584953)\n      dup2\n      mstore\n      pop\n      mload(0x40)\n      dup1\n      0x40\n      add\n      0x40\n      mstore\n      dup1\n      0x04\n      dup2\n      mstore\n      0x20\n      add\n      shl(0xe3, 0x0a082b0b)\n      dup2\n      mstore\n      pop\n        /* \"PAXX.sol\":1191:1203  __ERC20_init */\n      tag_278\n        /* \"PAXX.sol\":1191:1222  __ERC20_init(\"PRAXXIS\", \"PAXX\") */\n      jump\t// in\n    tag_277:\n        /* \"PAXX.sol\":1232:1254  __ERC20Burnable_init() */\n      tag_279\n        /* \"PAXX.sol\":1232:1252  __ERC20Burnable_init */\n      tag_280\n        /* \"PAXX.sol\":1232:1254  __ERC20Burnable_init() */\n      jump\t// in\n    tag_279:\n        /* \"PAXX.sol\":1264:1281  __Pausable_init() */\n      tag_281\n        /* \"PAXX.sol\":1264:1279  __Pausable_init */\n      tag_282\n        /* \"PAXX.sol\":1264:1281  __Pausable_init() */\n      jump\t// in\n    tag_281:\n        /* \"PAXX.sol\":1291:1313  __AccessControl_init() */\n      tag_283\n        /* \"PAXX.sol\":1291:1311  __AccessControl_init */\n      tag_280\n        /* \"PAXX.sol\":1291:1313  __AccessControl_init() */\n      jump\t// in\n    tag_283:\n        /* \"PAXX.sol\":1323:1347  __UUPSUpgradeable_init() */\n      tag_285\n        /* \"PAXX.sol\":1323:1345  __UUPSUpgradeable_init */\n      tag_280\n        /* \"PAXX.sol\":1323:1347  __UUPSUpgradeable_init() */\n      jump\t// in\n    tag_285:\n        /* \"PAXX.sol\":1358:1400  _grantRole(DEFAULT_ADMIN_ROLE, msg.sender) */\n      tag_287\n        /* \"@openzeppelin/contracts-upgradeable@4.9.2/access/AccessControlUpgradeable.sol\":2495:2499  0x00 */\n      0x00\n        /* \"PAXX.sol\":1389:1399  msg.sender */\n      caller\n        /* \"PAXX.sol\":1358:1368  _grantRole */\n      tag_204\n        /* \"PAXX.sol\":1358:1400  _grantRole(DEFAULT_ADMIN_ROLE, msg.sender) */\n      jump\t// in\n    tag_287:\n        /* \"PAXX.sol\":1410:1445  _grantRole(PAUSER_ROLE, msg.sender) */\n      tag_288\n      0x00\n      dup1\n      mload\n      0x20\n      data_9b87106a812d214d41ad9b68a21119e2948eaaf1040375c939ec808b8862455c\n      dup4\n      codecopy\n      dup2\n      mload\n      swap2\n      mstore\n        /* \"PAXX.sol\":1434:1444  msg.sender */\n      caller\n        /* \"PAXX.sol\":1410:1420  _grantRole */\n      tag_204\n        /* \"PAXX.sol\":1410:1445  _grantRole(PAUSER_ROLE, msg.sender) */\n      jump\t// in\n    tag_288:\n        /* \"PAXX.sol\":1455:1503  _mint(msg.sender, 1000000000 * 10 ** decimals()) */\n      tag_289\n        /* \"PAXX.sol\":1461:1471  msg.sender */\n      caller\n        /* \"PAXX.sol\":1486:1502  10 ** decimals() */\n      tag_291\n        /* \"@openzeppelin/contracts-upgradeable@4.9.2/token/ERC20/ERC20Upgradeable.sol\":3523:3525  18 */\n      0x12\n        /* \"PAXX.sol\":1486:1488  10 */\n      0x0a\n        /* \"PAXX.sol\":1486:1502  10 ** decimals() */\n      tag_292\n      jump\t// in\n    tag_291:\n        /* \"PAXX.sol\":1473:1502  1000000000 * 10 ** decimals() */\n      tag_293\n      swap1\n        /* \"PAXX.sol\":1473:1483  1000000000 */\n      0x3b9aca00\n        /* \"PAXX.sol\":1473:1502  1000000000 * 10 ** decimals() */\n      tag_294\n      jump\t// in\n    tag_293:\n        /* \"PAXX.sol\":1455:1460  _mint */\n      tag_295\n        /* \"PAXX.sol\":1455:1503  _mint(msg.sender, 1000000000 * 10 ** decimals()) */\n      jump\t// in\n    tag_289:\n        /* \"PAXX.sol\":1513:1550  _grantRole(UPGRADER_ROLE, msg.sender) */\n      tag_296\n        /* \"PAXX.sol\":890:916  keccak256(\"UPGRADER_ROLE\") */\n      0x189ab7a9244df0848122154315af71fe140f3db0fe014031783b0946b8c9d2e3\n        /* \"PAXX.sol\":1539:1549  msg.sender */\n      caller\n        /* \"PAXX.sol\":1513:1523  _grantRole */\n      tag_204\n        /* \"PAXX.sol\":1513:1550  _grantRole(UPGRADER_ROLE, msg.sender) */\n      jump\t// in\n    tag_296:\n        /* \"@openzeppelin/contracts-upgradeable@4.9.2/proxy/utils/Initializable.sol\":3651:3665  isTopLevelCall */\n      dup1\n        /* \"@openzeppelin/contracts-upgradeable@4.9.2/proxy/utils/Initializable.sol\":3647:3746  if (isTopLevelCall) {... */\n      iszero\n      tag_225\n      jumpi\n        /* \"@openzeppelin/contracts-upgradeable@4.9.2/proxy/utils/Initializable.sol\":3697:3702  false */\n      0x00\n        /* \"@openzeppelin/contracts-upgradeable@4.9.2/proxy/utils/Initializable.sol\":3681:3702  _initializing = false */\n      dup1\n      sload\n      not(0xff00)\n      and\n      swap1\n      sstore\n        /* \"@openzeppelin/contracts-upgradeable@4.9.2/proxy/utils/Initializable.sol\":3721:3735  Initialized(1) */\n      mload(0x40)\n      0x01\n        /* \"#utility.yul\":2868:2904   */\n      dup2\n      mstore\n        /* \"@openzeppelin/contracts-upgradeable@4.9.2/proxy/utils/Initializable.sol\":3721:3735  Initialized(1) */\n      0x7f26b83ff96e1f2b6a682f133852f6798a09c465da95921460cefb3847402498\n      swap1\n        /* \"#utility.yul\":2856:2858   */\n      0x20\n        /* \"#utility.yul\":2841:2859   */\n      add\n        /* \"@openzeppelin/contracts-upgradeable@4.9.2/proxy/utils/Initializable.sol\":3721:3735  Initialized(1) */\n      mload(0x40)\n      dup1\n      swap2\n      sub\n      swap1\n      log1\n        /* \"@openzeppelin/contracts-upgradeable@4.9.2/proxy/utils/Initializable.sol\":3269:3752  {... */\n      pop\n        /* \"PAXX.sol\":1140:1557  function initialize() initializer public {... */\n      jump\t// out\n        /* \"PAXX.sol\":1563:1634  function pause() public onlyRole(PAUSER_ROLE) {... */\n    tag_132:\n      0x00\n      dup1\n      mload\n      0x20\n      data_9b87106a812d214d41ad9b68a21119e2948eaaf1040375c939ec808b8862455c\n      dup4\n      codecopy\n      dup2\n      mload\n      swap2\n      mstore\n        /* \"@openzeppelin/contracts-upgradeable@4.9.2/access/AccessControlUpgradeable.sol\":2928:2944  _checkRole(role) */\n      tag_301\n        /* \"@openzeppelin/contracts-upgradeable@4.9.2/access/AccessControlUpgradeable.sol\":2939:2943  role */\n      dup2\n        /* \"@openzeppelin/contracts-upgradeable@4.9.2/access/AccessControlUpgradeable.sol\":2928:2938  _checkRole */\n      tag_201\n        /* \"@openzeppelin/contracts-upgradeable@4.9.2/access/AccessControlUpgradeable.sol\":2928:2944  _checkRole(role) */\n      jump\t// in\n    tag_301:\n        /* \"PAXX.sol\":1619:1627  _pause() */\n      tag_225\n        /* \"PAXX.sol\":1619:1625  _pause */\n      tag_304\n        /* \"PAXX.sol\":1619:1627  _pause() */\n      jump\t// in\n        /* \"@openzeppelin/contracts-upgradeable@4.9.2/access/AccessControlUpgradeable.sol\":3329:3474  function hasRole(bytes32 role, address account) public view virtual override returns (bool) {... */\n    tag_136:\n        /* \"@openzeppelin/contracts-upgradeable@4.9.2/access/AccessControlUpgradeable.sol\":3415:3419  bool */\n      0x00\n        /* \"@openzeppelin/contracts-upgradeable@4.9.2/access/AccessControlUpgradeable.sol\":3438:3450  _roles[role] */\n      swap2\n      dup3\n      mstore\n        /* \"@openzeppelin/contracts-upgradeable@4.9.2/access/AccessControlUpgradeable.sol\":3438:3444  _roles */\n      0xfb\n        /* \"@openzeppelin/contracts-upgradeable@4.9.2/access/AccessControlUpgradeable.sol\":3438:3450  _roles[role] */\n      0x20\n      swap1\n      dup2\n      mstore\n      0x40\n      dup1\n      dup5\n      keccak256\n      sub(shl(0xa0, 0x01), 0x01)\n        /* \"@openzeppelin/contracts-upgradeable@4.9.2/access/AccessControlUpgradeable.sol\":3438:3467  _roles[role].members[account] */\n      swap4\n      swap1\n      swap4\n      and\n      dup5\n      mstore\n      swap2\n      swap1\n      mstore\n      swap1\n      keccak256\n      sload\n      0xff\n      and\n      swap1\n        /* \"@openzeppelin/contracts-upgradeable@4.9.2/access/AccessControlUpgradeable.sol\":3329:3474  function hasRole(bytes32 role, address account) public view virtual override returns (bool) {... */\n      jump\t// out\n        /* \"@openzeppelin/contracts-upgradeable@4.9.2/token/ERC20/ERC20Upgradeable.sol\":2706:2808  function symbol() public view virtual override returns (string memory) {... */\n    tag_140:\n        /* \"@openzeppelin/contracts-upgradeable@4.9.2/token/ERC20/ERC20Upgradeable.sol\":2762:2775  string memory */\n      0x60\n        /* \"@openzeppelin/contracts-upgradeable@4.9.2/token/ERC20/ERC20Upgradeable.sol\":2794:2801  _symbol */\n      0x37\n        /* \"@openzeppelin/contracts-upgradeable@4.9.2/token/ERC20/ERC20Upgradeable.sol\":2787:2801  return _symbol */\n      dup1\n      sload\n      tag_179\n      swap1\n      tag_180\n      jump\t// in\n        /* \"@openzeppelin/contracts-upgradeable@4.9.2/token/ERC20/ERC20Upgradeable.sol\":6912:7339  function decreaseAllowance(address spender, uint256 subtractedValue) public virtual returns (bool) {... */\n    tag_149:\n        /* \"@openzeppelin/contracts-upgradeable@4.9.2/token/ERC20/ERC20Upgradeable.sol\":7005:7009  bool */\n      0x00\n        /* \"@openzeppelin/contracts-upgradeable@4.9.2/utils/ContextUpgradeable.sol\":929:939  msg.sender */\n      caller\n        /* \"@openzeppelin/contracts-upgradeable@4.9.2/token/ERC20/ERC20Upgradeable.sol\":7005:7009  bool */\n      dup2\n        /* \"@openzeppelin/contracts-upgradeable@4.9.2/token/ERC20/ERC20Upgradeable.sol\":7086:7111  allowance(owner, spender) */\n      tag_314\n        /* \"@openzeppelin/contracts-upgradeable@4.9.2/utils/ContextUpgradeable.sol\":929:939  msg.sender */\n      dup3\n        /* \"@openzeppelin/contracts-upgradeable@4.9.2/token/ERC20/ERC20Upgradeable.sol\":7103:7110  spender */\n      dup7\n        /* \"@openzeppelin/contracts-upgradeable@4.9.2/token/ERC20/ERC20Upgradeable.sol\":7086:7095  allowance */\n      tag_164\n        /* \"@openzeppelin/contracts-upgradeable@4.9.2/token/ERC20/ERC20Upgradeable.sol\":7086:7111  allowance(owner, spender) */\n      jump\t// in\n    tag_314:\n        /* \"@openzeppelin/contracts-upgradeable@4.9.2/token/ERC20/ERC20Upgradeable.sol\":7059:7111  uint256 currentAllowance = allowance(owner, spender) */\n      swap1\n      pop\n        /* \"@openzeppelin/contracts-upgradeable@4.9.2/token/ERC20/ERC20Upgradeable.sol\":7149:7164  subtractedValue */\n      dup4\n        /* \"@openzeppelin/contracts-upgradeable@4.9.2/token/ERC20/ERC20Upgradeable.sol\":7129:7145  currentAllowance */\n      dup2\n        /* \"@openzeppelin/contracts-upgradeable@4.9.2/token/ERC20/ERC20Upgradeable.sol\":7129:7164  currentAllowance >= subtractedValue */\n      lt\n      iszero\n        /* \"@openzeppelin/contracts-upgradeable@4.9.2/token/ERC20/ERC20Upgradeable.sol\":7121:7206  require(currentAllowance >= subtractedValue, \"ERC20: decreased allowance below zero\") */\n      tag_315\n      jumpi\n      mload(0x40)\n      shl(0xe5, 0x461bcd)\n      dup2\n      mstore\n        /* \"#utility.yul\":9377:9379   */\n      0x20\n        /* \"@openzeppelin/contracts-upgradeable@4.9.2/token/ERC20/ERC20Upgradeable.sol\":7121:7206  require(currentAllowance >= subtractedValue, \"ERC20: decreased allowance below zero\") */\n      0x04\n      dup3\n      add\n        /* \"#utility.yul\":9359:9380   */\n      mstore\n        /* \"#utility.yul\":9416:9418   */\n      0x25\n        /* \"#utility.yul\":9396:9414   */\n      0x24\n      dup3\n      add\n        /* \"#utility.yul\":9389:9419   */\n      mstore\n        /* \"#utility.yul\":9455:9489   */\n      0x45524332303a2064656372656173656420616c6c6f77616e63652062656c6f77\n        /* \"#utility.yul\":9435:9453   */\n      0x44\n      dup3\n      add\n        /* \"#utility.yul\":9428:9490   */\n      mstore\n      shl(0xd8, 0x207a65726f)\n        /* \"#utility.yul\":9506:9524   */\n      0x64\n      dup3\n      add\n        /* \"#utility.yul\":9499:9534   */\n      mstore\n        /* \"#utility.yul\":9551:9570   */\n      0x84\n      add\n        /* \"@openzeppelin/contracts-upgradeable@4.9.2/token/ERC20/ERC20Upgradeable.sol\":7121:7206  require(currentAllowance >= subtractedValue, \"ERC20: decreased allowance below zero\") */\n      tag_209\n        /* \"#utility.yul\":9175:9576   */\n      jump\n        /* \"@openzeppelin/contracts-upgradeable@4.9.2/token/ERC20/ERC20Upgradeable.sol\":7121:7206  require(currentAllowance >= subtractedValue, \"ERC20: decreased allowance below zero\") */\n    tag_315:\n        /* \"@openzeppelin/contracts-upgradeable@4.9.2/token/ERC20/ERC20Upgradeable.sol\":7240:7300  _approve(owner, spender, currentAllowance - subtractedValue) */\n      tag_195\n        /* \"@openzeppelin/contracts-upgradeable@4.9.2/token/ERC20/ERC20Upgradeable.sol\":7249:7254  owner */\n      dup3\n        /* \"@openzeppelin/contracts-upgradeable@4.9.2/token/ERC20/ERC20Upgradeable.sol\":7256:7263  spender */\n      dup7\n        /* \"@openzeppelin/contracts-upgradeable@4.9.2/token/ERC20/ERC20Upgradeable.sol\":7284:7299  subtractedValue */\n      dup7\n        /* \"@openzeppelin/contracts-upgradeable@4.9.2/token/ERC20/ERC20Upgradeable.sol\":7265:7281  currentAllowance */\n      dup5\n        /* \"@openzeppelin/contracts-upgradeable@4.9.2/token/ERC20/ERC20Upgradeable.sol\":7265:7299  currentAllowance - subtractedValue */\n      sub\n        /* \"@openzeppelin/contracts-upgradeable@4.9.2/token/ERC20/ERC20Upgradeable.sol\":7240:7248  _approve */\n      tag_189\n        /* \"@openzeppelin/contracts-upgradeable@4.9.2/token/ERC20/ERC20Upgradeable.sol\":7240:7300  _approve(owner, spender, currentAllowance - subtractedValue) */\n      jump\t// in\n        /* \"@openzeppelin/contracts-upgradeable@4.9.2/token/ERC20/ERC20Upgradeable.sol\":4077:4266  function transfer(address to, uint256 amount) public virtual override returns (bool) {... */\n    tag_154:\n        /* \"@openzeppelin/contracts-upgradeable@4.9.2/token/ERC20/ERC20Upgradeable.sol\":4156:4160  bool */\n      0x00\n        /* \"@openzeppelin/contracts-upgradeable@4.9.2/utils/ContextUpgradeable.sol\":929:939  msg.sender */\n      caller\n        /* \"@openzeppelin/contracts-upgradeable@4.9.2/token/ERC20/ERC20Upgradeable.sol\":4210:4238  _transfer(owner, to, amount) */\n      tag_188\n        /* \"@openzeppelin/contracts-upgradeable@4.9.2/utils/ContextUpgradeable.sol\":929:939  msg.sender */\n      dup2\n        /* \"@openzeppelin/contracts-upgradeable@4.9.2/token/ERC20/ERC20Upgradeable.sol\":4227:4229  to */\n      dup6\n        /* \"@openzeppelin/contracts-upgradeable@4.9.2/token/ERC20/ERC20Upgradeable.sol\":4231:4237  amount */\n      dup6\n        /* \"@openzeppelin/contracts-upgradeable@4.9.2/token/ERC20/ERC20Upgradeable.sol\":4210:4219  _transfer */\n      tag_196\n        /* \"@openzeppelin/contracts-upgradeable@4.9.2/token/ERC20/ERC20Upgradeable.sol\":4210:4238  _transfer(owner, to, amount) */\n      jump\t// in\n        /* \"@openzeppelin/contracts-upgradeable@4.9.2/access/AccessControlUpgradeable.sol\":5684:5831  function revokeRole(bytes32 role, address account) public virtual override onlyRole(getRoleAdmin(role)) {... */\n    tag_159:\n        /* \"@openzeppelin/contracts-upgradeable@4.9.2/access/AccessControlUpgradeable.sol\":4908:4915  bytes32 */\n      0x00\n        /* \"@openzeppelin/contracts-upgradeable@4.9.2/access/AccessControlUpgradeable.sol\":4934:4946  _roles[role] */\n      dup3\n      dup2\n      mstore\n        /* \"@openzeppelin/contracts-upgradeable@4.9.2/access/AccessControlUpgradeable.sol\":4934:4940  _roles */\n      0xfb\n        /* \"@openzeppelin/contracts-upgradeable@4.9.2/access/AccessControlUpgradeable.sol\":4934:4946  _roles[role] */\n      0x20\n      mstore\n      0x40\n      swap1\n      keccak256\n        /* \"@openzeppelin/contracts-upgradeable@4.9.2/access/AccessControlUpgradeable.sol\":4934:4956  _roles[role].adminRole */\n      0x01\n      add\n      sload\n        /* \"@openzeppelin/contracts-upgradeable@4.9.2/access/AccessControlUpgradeable.sol\":2928:2944  _checkRole(role) */\n      tag_324\n        /* \"@openzeppelin/contracts-upgradeable@4.9.2/access/AccessControlUpgradeable.sol\":2939:2943  role */\n      dup2\n        /* \"@openzeppelin/contracts-upgradeable@4.9.2/access/AccessControlUpgradeable.sol\":2928:2938  _checkRole */\n      tag_201\n        /* \"@openzeppelin/contracts-upgradeable@4.9.2/access/AccessControlUpgradeable.sol\":2928:2944  _checkRole(role) */\n      jump\t// in\n    tag_324:\n        /* \"@openzeppelin/contracts-upgradeable@4.9.2/access/AccessControlUpgradeable.sol\":5798:5824  _revokeRole(role, account) */\n      tag_203\n        /* \"@openzeppelin/contracts-upgradeable@4.9.2/access/AccessControlUpgradeable.sol\":5810:5814  role */\n      dup4\n        /* \"@openzeppelin/contracts-upgradeable@4.9.2/access/AccessControlUpgradeable.sol\":5816:5823  account */\n      dup4\n        /* \"@openzeppelin/contracts-upgradeable@4.9.2/access/AccessControlUpgradeable.sol\":5798:5809  _revokeRole */\n      tag_212\n        /* \"@openzeppelin/contracts-upgradeable@4.9.2/access/AccessControlUpgradeable.sol\":5798:5824  _revokeRole(role, account) */\n      jump\t// in\n        /* \"@openzeppelin/contracts-upgradeable@4.9.2/token/ERC20/ERC20Upgradeable.sol\":4324:4473  function allowance(address owner, address spender) public view virtual override returns (uint256) {... */\n    tag_164:\n      sub(shl(0xa0, 0x01), 0x01)\n        /* \"@openzeppelin/contracts-upgradeable@4.9.2/token/ERC20/ERC20Upgradeable.sol\":4439:4457  _allowances[owner] */\n      swap2\n      dup3\n      and\n        /* \"@openzeppelin/contracts-upgradeable@4.9.2/token/ERC20/ERC20Upgradeable.sol\":4413:4420  uint256 */\n      0x00\n        /* \"@openzeppelin/contracts-upgradeable@4.9.2/token/ERC20/ERC20Upgradeable.sol\":4439:4457  _allowances[owner] */\n      swap1\n      dup2\n      mstore\n        /* \"@openzeppelin/contracts-upgradeable@4.9.2/token/ERC20/ERC20Upgradeable.sol\":4439:4450  _allowances */\n      0x34\n        /* \"@openzeppelin/contracts-upgradeable@4.9.2/token/ERC20/ERC20Upgradeable.sol\":4439:4457  _allowances[owner] */\n      0x20\n      swap1\n      dup2\n      mstore\n      0x40\n      dup1\n      dup4\n      keccak256\n        /* \"@openzeppelin/contracts-upgradeable@4.9.2/token/ERC20/ERC20Upgradeable.sol\":4439:4466  _allowances[owner][spender] */\n      swap4\n      swap1\n      swap5\n      and\n      dup3\n      mstore\n      swap2\n      swap1\n      swap2\n      mstore\n      keccak256\n      sload\n      swap1\n        /* \"@openzeppelin/contracts-upgradeable@4.9.2/token/ERC20/ERC20Upgradeable.sol\":4324:4473  function allowance(address owner, address spender) public view virtual override returns (uint256) {... */\n      jump\t// out\n        /* \"@openzeppelin/contracts-upgradeable@4.9.2/token/ERC20/ERC20Upgradeable.sol\":10794:11134  function _approve(address owner, address spender, uint256 amount) internal virtual {... */\n    tag_189:\n      sub(shl(0xa0, 0x01), 0x01)\n        /* \"@openzeppelin/contracts-upgradeable@4.9.2/token/ERC20/ERC20Upgradeable.sol\":10895:10914  owner != address(0) */\n      dup4\n      and\n        /* \"@openzeppelin/contracts-upgradeable@4.9.2/token/ERC20/ERC20Upgradeable.sol\":10887:10955  require(owner != address(0), \"ERC20: approve from the zero address\") */\n      tag_331\n      jumpi\n      mload(0x40)\n      shl(0xe5, 0x461bcd)\n      dup2\n      mstore\n        /* \"#utility.yul\":9783:9785   */\n      0x20\n        /* \"@openzeppelin/contracts-upgradeable@4.9.2/token/ERC20/ERC20Upgradeable.sol\":10887:10955  require(owner != address(0), \"ERC20: approve from the zero address\") */\n      0x04\n      dup3\n      add\n        /* \"#utility.yul\":9765:9786   */\n      mstore\n        /* \"#utility.yul\":9822:9824   */\n      0x24\n        /* \"#utility.yul\":9802:9820   */\n      dup1\n      dup3\n      add\n        /* \"#utility.yul\":9795:9825   */\n      mstore\n        /* \"#utility.yul\":9861:9895   */\n      0x45524332303a20617070726f76652066726f6d20746865207a65726f20616464\n        /* \"#utility.yul\":9841:9859   */\n      0x44\n      dup3\n      add\n        /* \"#utility.yul\":9834:9896   */\n      mstore\n      shl(0xe0, 0x72657373)\n        /* \"#utility.yul\":9912:9930   */\n      0x64\n      dup3\n      add\n        /* \"#utility.yul\":9905:9939   */\n      mstore\n        /* \"#utility.yul\":9956:9975   */\n      0x84\n      add\n        /* \"@openzeppelin/contracts-upgradeable@4.9.2/token/ERC20/ERC20Upgradeable.sol\":10887:10955  require(owner != address(0), \"ERC20: approve from the zero address\") */\n      tag_209\n        /* \"#utility.yul\":9581:9981   */\n      jump\n        /* \"@openzeppelin/contracts-upgradeable@4.9.2/token/ERC20/ERC20Upgradeable.sol\":10887:10955  require(owner != address(0), \"ERC20: approve from the zero address\") */\n    tag_331:\n      sub(shl(0xa0, 0x01), 0x01)\n        /* \"@openzeppelin/contracts-upgradeable@4.9.2/token/ERC20/ERC20Upgradeable.sol\":10973:10994  spender != address(0) */\n      dup3\n      and\n        /* \"@openzeppelin/contracts-upgradeable@4.9.2/token/ERC20/ERC20Upgradeable.sol\":10965:11033  require(spender != address(0), \"ERC20: approve to the zero address\") */\n      tag_334\n      jumpi\n      mload(0x40)\n      shl(0xe5, 0x461bcd)\n      dup2\n      mstore\n        /* \"#utility.yul\":10188:10190   */\n      0x20\n        /* \"@openzeppelin/contracts-upgradeable@4.9.2/token/ERC20/ERC20Upgradeable.sol\":10965:11033  require(spender != address(0), \"ERC20: approve to the zero address\") */\n      0x04\n      dup3\n      add\n        /* \"#utility.yul\":10170:10191   */\n      mstore\n        /* \"#utility.yul\":10227:10229   */\n      0x22\n        /* \"#utility.yul\":10207:10225   */\n      0x24\n      dup3\n      add\n        /* \"#utility.yul\":10200:10230   */\n      mstore\n        /* \"#utility.yul\":10266:10300   */\n      0x45524332303a20617070726f766520746f20746865207a65726f206164647265\n        /* \"#utility.yul\":10246:10264   */\n      0x44\n      dup3\n      add\n        /* \"#utility.yul\":10239:10301   */\n      mstore\n      shl(0xf0, 0x7373)\n        /* \"#utility.yul\":10317:10335   */\n      0x64\n      dup3\n      add\n        /* \"#utility.yul\":10310:10342   */\n      mstore\n        /* \"#utility.yul\":10359:10378   */\n      0x84\n      add\n        /* \"@openzeppelin/contracts-upgradeable@4.9.2/token/ERC20/ERC20Upgradeable.sol\":10965:11033  require(spender != address(0), \"ERC20: approve to the zero address\") */\n      tag_209\n        /* \"#utility.yul\":9986:10384   */\n      jump\n        /* \"@openzeppelin/contracts-upgradeable@4.9.2/token/ERC20/ERC20Upgradeable.sol\":10965:11033  require(spender != address(0), \"ERC20: approve to the zero address\") */\n    tag_334:\n      sub(shl(0xa0, 0x01), 0x01)\n        /* \"@openzeppelin/contracts-upgradeable@4.9.2/token/ERC20/ERC20Upgradeable.sol\":11044:11062  _allowances[owner] */\n      dup4\n      dup2\n      and\n      0x00\n      dup2\n      dup2\n      mstore\n        /* \"@openzeppelin/contracts-upgradeable@4.9.2/token/ERC20/ERC20Upgradeable.sol\":11044:11055  _allowances */\n      0x34\n        /* \"@openzeppelin/contracts-upgradeable@4.9.2/token/ERC20/ERC20Upgradeable.sol\":11044:11062  _allowances[owner] */\n      0x20\n      swap1\n      dup2\n      mstore\n      0x40\n      dup1\n      dup4\n      keccak256\n        /* \"@openzeppelin/contracts-upgradeable@4.9.2/token/ERC20/ERC20Upgradeable.sol\":11044:11071  _allowances[owner][spender] */\n      swap5\n      dup8\n      and\n      dup1\n      dup5\n      mstore\n      swap5\n      dup3\n      mstore\n      swap2\n      dup3\n      swap1\n      keccak256\n        /* \"@openzeppelin/contracts-upgradeable@4.9.2/token/ERC20/ERC20Upgradeable.sol\":11044:11080  _allowances[owner][spender] = amount */\n      dup6\n      swap1\n      sstore\n        /* \"@openzeppelin/contracts-upgradeable@4.9.2/token/ERC20/ERC20Upgradeable.sol\":11095:11127  Approval(owner, spender, amount) */\n      swap1\n      mload\n        /* \"#utility.yul\":1731:1756   */\n      dup5\n      dup2\n      mstore\n        /* \"@openzeppelin/contracts-upgradeable@4.9.2/token/ERC20/ERC20Upgradeable.sol\":11095:11127  Approval(owner, spender, amount) */\n      0x8c5be1e5ebec7d5bd14f71427d1e84f3dd0314c0f7b2291e5b200ac8c7c3b925\n      swap2\n        /* \"#utility.yul\":1704:1722   */\n      add\n        /* \"@openzeppelin/contracts-upgradeable@4.9.2/token/ERC20/ERC20Upgradeable.sol\":11095:11127  Approval(owner, spender, amount) */\n      mload(0x40)\n      dup1\n      swap2\n      sub\n      swap1\n      log3\n        /* \"@openzeppelin/contracts-upgradeable@4.9.2/token/ERC20/ERC20Upgradeable.sol\":10794:11134  function _approve(address owner, address spender, uint256 amount) internal virtual {... */\n      pop\n      pop\n      pop\n      jump\t// out\n        /* \"@openzeppelin/contracts-upgradeable@4.9.2/token/ERC20/ERC20Upgradeable.sol\":11415:11826  function _spendAllowance(address owner, address spender, uint256 amount) internal virtual {... */\n    tag_194:\n        /* \"@openzeppelin/contracts-upgradeable@4.9.2/token/ERC20/ERC20Upgradeable.sol\":11515:11539  uint256 currentAllowance */\n      0x00\n        /* \"@openzeppelin/contracts-upgradeable@4.9.2/token/ERC20/ERC20Upgradeable.sol\":11542:11567  allowance(owner, spender) */\n      tag_339\n        /* \"@openzeppelin/contracts-upgradeable@4.9.2/token/ERC20/ERC20Upgradeable.sol\":11552:11557  owner */\n      dup5\n        /* \"@openzeppelin/contracts-upgradeable@4.9.2/token/ERC20/ERC20Upgradeable.sol\":11559:11566  spender */\n      dup5\n        /* \"@openzeppelin/contracts-upgradeable@4.9.2/token/ERC20/ERC20Upgradeable.sol\":11542:11551  allowance */\n      tag_164\n        /* \"@openzeppelin/contracts-upgradeable@4.9.2/token/ERC20/ERC20Upgradeable.sol\":11542:11567  allowance(owner, spender) */\n      jump\t// in\n    tag_339:\n        /* \"@openzeppelin/contracts-upgradeable@4.9.2/token/ERC20/ERC20Upgradeable.sol\":11515:11567  uint256 currentAllowance = allowance(owner, spender) */\n      swap1\n      pop\n      not(0x00)\n        /* \"@openzeppelin/contracts-upgradeable@4.9.2/token/ERC20/ERC20Upgradeable.sol\":11581:11597  currentAllowance */\n      dup2\n        /* \"@openzeppelin/contracts-upgradeable@4.9.2/token/ERC20/ERC20Upgradeable.sol\":11581:11618  currentAllowance != type(uint256).max */\n      eq\n        /* \"@openzeppelin/contracts-upgradeable@4.9.2/token/ERC20/ERC20Upgradeable.sol\":11577:11820  if (currentAllowance != type(uint256).max) {... */\n      tag_344\n      jumpi\n        /* \"@openzeppelin/contracts-upgradeable@4.9.2/token/ERC20/ERC20Upgradeable.sol\":11662:11668  amount */\n      dup2\n        /* \"@openzeppelin/contracts-upgradeable@4.9.2/token/ERC20/ERC20Upgradeable.sol\":11642:11658  currentAllowance */\n      dup2\n        /* \"@openzeppelin/contracts-upgradeable@4.9.2/token/ERC20/ERC20Upgradeable.sol\":11642:11668  currentAllowance >= amount */\n      lt\n      iszero\n        /* \"@openzeppelin/contracts-upgradeable@4.9.2/token/ERC20/ERC20Upgradeable.sol\":11634:11702  require(currentAllowance >= amount, \"ERC20: insufficient allowance\") */\n      tag_341\n      jumpi\n      mload(0x40)\n      shl(0xe5, 0x461bcd)\n      dup2\n      mstore\n        /* \"#utility.yul\":10591:10593   */\n      0x20\n        /* \"@openzeppelin/contracts-upgradeable@4.9.2/token/ERC20/ERC20Upgradeable.sol\":11634:11702  require(currentAllowance >= amount, \"ERC20: insufficient allowance\") */\n      0x04\n      dup3\n      add\n        /* \"#utility.yul\":10573:10594   */\n      mstore\n        /* \"#utility.yul\":10630:10632   */\n      0x1d\n        /* \"#utility.yul\":10610:10628   */\n      0x24\n      dup3\n      add\n        /* \"#utility.yul\":10603:10633   */\n      mstore\n        /* \"#utility.yul\":10669:10700   */\n      0x45524332303a20696e73756666696369656e7420616c6c6f77616e6365000000\n        /* \"#utility.yul\":10649:10667   */\n      0x44\n      dup3\n      add\n        /* \"#utility.yul\":10642:10701   */\n      mstore\n        /* \"#utility.yul\":10718:10736   */\n      0x64\n      add\n        /* \"@openzeppelin/contracts-upgradeable@4.9.2/token/ERC20/ERC20Upgradeable.sol\":11634:11702  require(currentAllowance >= amount, \"ERC20: insufficient allowance\") */\n      tag_209\n        /* \"#utility.yul\":10389:10742   */\n      jump\n        /* \"@openzeppelin/contracts-upgradeable@4.9.2/token/ERC20/ERC20Upgradeable.sol\":11634:11702  require(currentAllowance >= amount, \"ERC20: insufficient allowance\") */\n    tag_341:\n        /* \"@openzeppelin/contracts-upgradeable@4.9.2/token/ERC20/ERC20Upgradeable.sol\":11744:11795  _approve(owner, spender, currentAllowance - amount) */\n      tag_344\n        /* \"@openzeppelin/contracts-upgradeable@4.9.2/token/ERC20/ERC20Upgradeable.sol\":11753:11758  owner */\n      dup5\n        /* \"@openzeppelin/contracts-upgradeable@4.9.2/token/ERC20/ERC20Upgradeable.sol\":11760:11767  spender */\n      dup5\n        /* \"@openzeppelin/contracts-upgradeable@4.9.2/token/ERC20/ERC20Upgradeable.sol\":11788:11794  amount */\n      dup5\n        /* \"@openzeppelin/contracts-upgradeable@4.9.2/token/ERC20/ERC20Upgradeable.sol\":11769:11785  currentAllowance */\n      dup5\n        /* \"@openzeppelin/contracts-upgradeable@4.9.2/token/ERC20/ERC20Upgradeable.sol\":11769:11794  currentAllowance - amount */\n      sub\n        /* \"@openzeppelin/contracts-upgradeable@4.9.2/token/ERC20/ERC20Upgradeable.sol\":11744:11752  _approve */\n      tag_189\n        /* \"@openzeppelin/contracts-upgradeable@4.9.2/token/ERC20/ERC20Upgradeable.sol\":11744:11795  _approve(owner, spender, currentAllowance - amount) */\n      jump\t// in\n    tag_344:\n        /* \"@openzeppelin/contracts-upgradeable@4.9.2/token/ERC20/ERC20Upgradeable.sol\":11505:11826  {... */\n      pop\n        /* \"@openzeppelin/contracts-upgradeable@4.9.2/token/ERC20/ERC20Upgradeable.sol\":11415:11826  function _spendAllowance(address owner, address spender, uint256 amount) internal virtual {... */\n      pop\n      pop\n      pop\n      jump\t// out\n        /* \"@openzeppelin/contracts-upgradeable@4.9.2/token/ERC20/ERC20Upgradeable.sol\":7793:8581  function _transfer(address from, address to, uint256 amount) internal virtual {... */\n    tag_196:\n      sub(shl(0xa0, 0x01), 0x01)\n        /* \"@openzeppelin/contracts-upgradeable@4.9.2/token/ERC20/ERC20Upgradeable.sol\":7889:7907  from != address(0) */\n      dup4\n      and\n        /* \"@openzeppelin/contracts-upgradeable@4.9.2/token/ERC20/ERC20Upgradeable.sol\":7881:7949  require(from != address(0), \"ERC20: transfer from the zero address\") */\n      tag_346\n      jumpi\n      mload(0x40)\n      shl(0xe5, 0x461bcd)\n      dup2\n      mstore\n        /* \"#utility.yul\":10949:10951   */\n      0x20\n        /* \"@openzeppelin/contracts-upgradeable@4.9.2/token/ERC20/ERC20Upgradeable.sol\":7881:7949  require(from != address(0), \"ERC20: transfer from the zero address\") */\n      0x04\n      dup3\n      add\n        /* \"#utility.yul\":10931:10952   */\n      mstore\n        /* \"#utility.yul\":10988:10990   */\n      0x25\n        /* \"#utility.yul\":10968:10986   */\n      0x24\n      dup3\n      add\n        /* \"#utility.yul\":10961:10991   */\n      mstore\n        /* \"#utility.yul\":11027:11061   */\n      0x45524332303a207472616e736665722066726f6d20746865207a65726f206164\n        /* \"#utility.yul\":11007:11025   */\n      0x44\n      dup3\n      add\n        /* \"#utility.yul\":11000:11062   */\n      mstore\n      shl(0xd8, 0x6472657373)\n        /* \"#utility.yul\":11078:11096   */\n      0x64\n      dup3\n      add\n        /* \"#utility.yul\":11071:11106   */\n      mstore\n        /* \"#utility.yul\":11123:11142   */\n      0x84\n      add\n        /* \"@openzeppelin/contracts-upgradeable@4.9.2/token/ERC20/ERC20Upgradeable.sol\":7881:7949  require(from != address(0), \"ERC20: transfer from the zero address\") */\n      tag_209\n        /* \"#utility.yul\":10747:11148   */\n      jump\n        /* \"@openzeppelin/contracts-upgradeable@4.9.2/token/ERC20/ERC20Upgradeable.sol\":7881:7949  require(from != address(0), \"ERC20: transfer from the zero address\") */\n    tag_346:\n      sub(shl(0xa0, 0x01), 0x01)\n        /* \"@openzeppelin/contracts-upgradeable@4.9.2/token/ERC20/ERC20Upgradeable.sol\":7967:7983  to != address(0) */\n      dup3\n      and\n        /* \"@openzeppelin/contracts-upgradeable@4.9.2/token/ERC20/ERC20Upgradeable.sol\":7959:8023  require(to != address(0), \"ERC20: transfer to the zero address\") */\n      tag_349\n      jumpi\n      mload(0x40)\n      shl(0xe5, 0x461bcd)\n      dup2\n      mstore\n        /* \"#utility.yul\":11355:11357   */\n      0x20\n        /* \"@openzeppelin/contracts-upgradeable@4.9.2/token/ERC20/ERC20Upgradeable.sol\":7959:8023  require(to != address(0), \"ERC20: transfer to the zero address\") */\n      0x04\n      dup3\n      add\n        /* \"#utility.yul\":11337:11358   */\n      mstore\n        /* \"#utility.yul\":11394:11396   */\n      0x23\n        /* \"#utility.yul\":11374:11392   */\n      0x24\n      dup3\n      add\n        /* \"#utility.yul\":11367:11397   */\n      mstore\n        /* \"#utility.yul\":11433:11467   */\n      0x45524332303a207472616e7366657220746f20746865207a65726f2061646472\n        /* \"#utility.yul\":11413:11431   */\n      0x44\n      dup3\n      add\n        /* \"#utility.yul\":11406:11468   */\n      mstore\n      shl(0xe8, 0x657373)\n        /* \"#utility.yul\":11484:11502   */\n      0x64\n      dup3\n      add\n        /* \"#utility.yul\":11477:11510   */\n      mstore\n        /* \"#utility.yul\":11527:11546   */\n      0x84\n      add\n        /* \"@openzeppelin/contracts-upgradeable@4.9.2/token/ERC20/ERC20Upgradeable.sol\":7959:8023  require(to != address(0), \"ERC20: transfer to the zero address\") */\n      tag_209\n        /* \"#utility.yul\":11153:11552   */\n      jump\n        /* \"@openzeppelin/contracts-upgradeable@4.9.2/token/ERC20/ERC20Upgradeable.sol\":7959:8023  require(to != address(0), \"ERC20: transfer to the zero address\") */\n    tag_349:\n        /* \"@openzeppelin/contracts-upgradeable@4.9.2/token/ERC20/ERC20Upgradeable.sol\":8034:8072  _beforeTokenTransfer(from, to, amount) */\n      tag_352\n        /* \"@openzeppelin/contracts-upgradeable@4.9.2/token/ERC20/ERC20Upgradeable.sol\":8055:8059  from */\n      dup4\n        /* \"@openzeppelin/contracts-upgradeable@4.9.2/token/ERC20/ERC20Upgradeable.sol\":8061:8063  to */\n      dup4\n        /* \"@openzeppelin/contracts-upgradeable@4.9.2/token/ERC20/ERC20Upgradeable.sol\":8065:8071  amount */\n      dup4\n        /* \"@openzeppelin/contracts-upgradeable@4.9.2/token/ERC20/ERC20Upgradeable.sol\":8034:8054  _beforeTokenTransfer */\n      tag_353\n        /* \"@openzeppelin/contracts-upgradeable@4.9.2/token/ERC20/ERC20Upgradeable.sol\":8034:8072  _beforeTokenTransfer(from, to, amount) */\n      jump\t// in\n    tag_352:\n      sub(shl(0xa0, 0x01), 0x01)\n        /* \"@openzeppelin/contracts-upgradeable@4.9.2/token/ERC20/ERC20Upgradeable.sol\":8105:8120  _balances[from] */\n      dup4\n      and\n        /* \"@openzeppelin/contracts-upgradeable@4.9.2/token/ERC20/ERC20Upgradeable.sol\":8083:8102  uint256 fromBalance */\n      0x00\n        /* \"@openzeppelin/contracts-upgradeable@4.9.2/token/ERC20/ERC20Upgradeable.sol\":8105:8120  _balances[from] */\n      swap1\n      dup2\n      mstore\n        /* \"@openzeppelin/contracts-upgradeable@4.9.2/token/ERC20/ERC20Upgradeable.sol\":8105:8114  _balances */\n      0x33\n        /* \"@openzeppelin/contracts-upgradeable@4.9.2/token/ERC20/ERC20Upgradeable.sol\":8105:8120  _balances[from] */\n      0x20\n      mstore\n      0x40\n      swap1\n      keccak256\n      sload\n        /* \"@openzeppelin/contracts-upgradeable@4.9.2/token/ERC20/ERC20Upgradeable.sol\":8138:8159  fromBalance >= amount */\n      dup2\n      dup2\n      lt\n      iszero\n        /* \"@openzeppelin/contracts-upgradeable@4.9.2/token/ERC20/ERC20Upgradeable.sol\":8130:8202  require(fromBalance >= amount, \"ERC20: transfer amount exceeds balance\") */\n      tag_354\n      jumpi\n      mload(0x40)\n      shl(0xe5, 0x461bcd)\n      dup2\n      mstore\n        /* \"#utility.yul\":11759:11761   */\n      0x20\n        /* \"@openzeppelin/contracts-upgradeable@4.9.2/token/ERC20/ERC20Upgradeable.sol\":8130:8202  require(fromBalance >= amount, \"ERC20: transfer amount exceeds balance\") */\n      0x04\n      dup3\n      add\n        /* \"#utility.yul\":11741:11762   */\n      mstore\n        /* \"#utility.yul\":11798:11800   */\n      0x26\n        /* \"#utility.yul\":11778:11796   */\n      0x24\n      dup3\n      add\n        /* \"#utility.yul\":11771:11801   */\n      mstore\n        /* \"#utility.yul\":11837:11871   */\n      0x45524332303a207472616e7366657220616d6f756e7420657863656564732062\n        /* \"#utility.yul\":11817:11835   */\n      0x44\n      dup3\n      add\n        /* \"#utility.yul\":11810:11872   */\n      mstore\n      shl(0xd0, 0x616c616e6365)\n        /* \"#utility.yul\":11888:11906   */\n      0x64\n      dup3\n      add\n        /* \"#utility.yul\":11881:11917   */\n      mstore\n        /* \"#utility.yul\":11934:11953   */\n      0x84\n      add\n        /* \"@openzeppelin/contracts-upgradeable@4.9.2/token/ERC20/ERC20Upgradeable.sol\":8130:8202  require(fromBalance >= amount, \"ERC20: transfer amount exceeds balance\") */\n      tag_209\n        /* \"#utility.yul\":11557:11959   */\n      jump\n        /* \"@openzeppelin/contracts-upgradeable@4.9.2/token/ERC20/ERC20Upgradeable.sol\":8130:8202  require(fromBalance >= amount, \"ERC20: transfer amount exceeds balance\") */\n    tag_354:\n      sub(shl(0xa0, 0x01), 0x01)\n        /* \"@openzeppelin/contracts-upgradeable@4.9.2/token/ERC20/ERC20Upgradeable.sol\":8236:8251  _balances[from] */\n      dup1\n      dup6\n      and\n      0x00\n      dup2\n      dup2\n      mstore\n        /* \"@openzeppelin/contracts-upgradeable@4.9.2/token/ERC20/ERC20Upgradeable.sol\":8236:8245  _balances */\n      0x33\n        /* \"@openzeppelin/contracts-upgradeable@4.9.2/token/ERC20/ERC20Upgradeable.sol\":8236:8251  _balances[from] */\n      0x20\n      mstore\n      0x40\n      dup1\n      dup3\n      keccak256\n        /* \"@openzeppelin/contracts-upgradeable@4.9.2/token/ERC20/ERC20Upgradeable.sol\":8254:8274  fromBalance - amount */\n      dup7\n      dup7\n      sub\n        /* \"@openzeppelin/contracts-upgradeable@4.9.2/token/ERC20/ERC20Upgradeable.sol\":8236:8274  _balances[from] = fromBalance - amount */\n      swap1\n      sstore\n        /* \"@openzeppelin/contracts-upgradeable@4.9.2/token/ERC20/ERC20Upgradeable.sol\":8451:8464  _balances[to] */\n      swap3\n      dup7\n      and\n      dup1\n      dup3\n      mstore\n      swap1\n      dup4\n      swap1\n      keccak256\n        /* \"@openzeppelin/contracts-upgradeable@4.9.2/token/ERC20/ERC20Upgradeable.sol\":8451:8474  _balances[to] += amount */\n      dup1\n      sload\n      dup7\n      add\n      swap1\n      sstore\n        /* \"@openzeppelin/contracts-upgradeable@4.9.2/token/ERC20/ERC20Upgradeable.sol\":8500:8526  Transfer(from, to, amount) */\n      swap2\n      mload\n      0xddf252ad1be2c89b69c2b068fc378daa952ba7f163c4a11628f55a4df523b3ef\n      swap1\n      tag_357\n      swap1\n        /* \"@openzeppelin/contracts-upgradeable@4.9.2/token/ERC20/ERC20Upgradeable.sol\":8268:8274  amount */\n      dup7\n        /* \"#utility.yul\":1731:1756   */\n      dup2\n      mstore\n        /* \"#utility.yul\":1719:1721   */\n      0x20\n        /* \"#utility.yul\":1704:1722   */\n      add\n      swap1\n        /* \"#utility.yul\":1585:1762   */\n      jump\n        /* \"@openzeppelin/contracts-upgradeable@4.9.2/token/ERC20/ERC20Upgradeable.sol\":8500:8526  Transfer(from, to, amount) */\n    tag_357:\n      mload(0x40)\n      dup1\n      swap2\n      sub\n      swap1\n      log3\n        /* \"@openzeppelin/contracts-upgradeable@4.9.2/token/ERC20/ERC20Upgradeable.sol\":8537:8574  _afterTokenTransfer(from, to, amount) */\n      tag_344\n        /* \"@openzeppelin/contracts-upgradeable@4.9.2/access/AccessControlUpgradeable.sol\":5259:5404  function grantRole(bytes32 role, address account) public virtual override onlyRole(getRoleAdmin(role)) {... */\n      jump\n        /* \"@openzeppelin/contracts-upgradeable@4.9.2/access/AccessControlUpgradeable.sol\":3768:3871  function _checkRole(bytes32 role) internal view virtual {... */\n    tag_201:\n        /* \"@openzeppelin/contracts-upgradeable@4.9.2/access/AccessControlUpgradeable.sol\":3834:3864  _checkRole(role, _msgSender()) */\n      tag_225\n        /* \"@openzeppelin/contracts-upgradeable@4.9.2/access/AccessControlUpgradeable.sol\":3845:3849  role */\n      dup2\n        /* \"@openzeppelin/contracts-upgradeable@4.9.2/utils/ContextUpgradeable.sol\":929:939  msg.sender */\n      caller\n        /* \"@openzeppelin/contracts-upgradeable@4.9.2/access/AccessControlUpgradeable.sol\":3834:3844  _checkRole */\n      tag_363\n        /* \"@openzeppelin/contracts-upgradeable@4.9.2/access/AccessControlUpgradeable.sol\":3834:3864  _checkRole(role, _msgSender()) */\n      jump\t// in\n        /* \"@openzeppelin/contracts-upgradeable@4.9.2/access/AccessControlUpgradeable.sol\":7917:8150  function _grantRole(bytes32 role, address account) internal virtual {... */\n    tag_204:\n        /* \"@openzeppelin/contracts-upgradeable@4.9.2/access/AccessControlUpgradeable.sol\":8000:8022  hasRole(role, account) */\n      tag_365\n        /* \"@openzeppelin/contracts-upgradeable@4.9.2/access/AccessControlUpgradeable.sol\":8008:8012  role */\n      dup3\n        /* \"@openzeppelin/contracts-upgradeable@4.9.2/access/AccessControlUpgradeable.sol\":8014:8021  account */\n      dup3\n        /* \"@openzeppelin/contracts-upgradeable@4.9.2/access/AccessControlUpgradeable.sol\":8000:8007  hasRole */\n      tag_136\n        /* \"@openzeppelin/contracts-upgradeable@4.9.2/access/AccessControlUpgradeable.sol\":8000:8022  hasRole(role, account) */\n      jump\t// in\n    tag_365:\n        /* \"@openzeppelin/contracts-upgradeable@4.9.2/access/AccessControlUpgradeable.sol\":7995:8144  if (!hasRole(role, account)) {... */\n      tag_211\n      jumpi\n        /* \"@openzeppelin/contracts-upgradeable@4.9.2/access/AccessControlUpgradeable.sol\":8038:8050  _roles[role] */\n      0x00\n      dup3\n      dup2\n      mstore\n        /* \"@openzeppelin/contracts-upgradeable@4.9.2/access/AccessControlUpgradeable.sol\":8038:8044  _roles */\n      0xfb\n        /* \"@openzeppelin/contracts-upgradeable@4.9.2/access/AccessControlUpgradeable.sol\":8038:8050  _roles[role] */\n      0x20\n      swap1\n      dup2\n      mstore\n      0x40\n      dup1\n      dup4\n      keccak256\n      sub(shl(0xa0, 0x01), 0x01)\n        /* \"@openzeppelin/contracts-upgradeable@4.9.2/access/AccessControlUpgradeable.sol\":8038:8067  _roles[role].members[account] */\n      dup6\n      and\n      dup5\n      mstore\n      swap1\n      swap2\n      mstore\n      swap1\n      keccak256\n        /* \"@openzeppelin/contracts-upgradeable@4.9.2/access/AccessControlUpgradeable.sol\":8038:8074  _roles[role].members[account] = true */\n      dup1\n      sload\n      not(0xff)\n      and\n        /* \"@openzeppelin/contracts-upgradeable@4.9.2/access/AccessControlUpgradeable.sol\":8070:8074  true */\n      0x01\n        /* \"@openzeppelin/contracts-upgradeable@4.9.2/access/AccessControlUpgradeable.sol\":8038:8074  _roles[role].members[account] = true */\n      or\n      swap1\n      sstore\n        /* \"@openzeppelin/contracts-upgradeable@4.9.2/access/AccessControlUpgradeable.sol\":8120:8132  _msgSender() */\n      tag_367\n        /* \"@openzeppelin/contracts-upgradeable@4.9.2/utils/ContextUpgradeable.sol\":929:939  msg.sender */\n      caller\n      swap1\n        /* \"@openzeppelin/contracts-upgradeable@4.9.2/utils/ContextUpgradeable.sol\":850:946  function _msgSender() internal view virtual returns (address) {... */\n      jump\n        /* \"@openzeppelin/contracts-upgradeable@4.9.2/access/AccessControlUpgradeable.sol\":8120:8132  _msgSender() */\n    tag_367:\n      sub(shl(0xa0, 0x01), 0x01)\n        /* \"@openzeppelin/contracts-upgradeable@4.9.2/access/AccessControlUpgradeable.sol\":8093:8133  RoleGranted(role, account, _msgSender()) */\n      and\n        /* \"@openzeppelin/contracts-upgradeable@4.9.2/access/AccessControlUpgradeable.sol\":8111:8118  account */\n      dup2\n      sub(shl(0xa0, 0x01), 0x01)\n        /* \"@openzeppelin/contracts-upgradeable@4.9.2/access/AccessControlUpgradeable.sol\":8093:8133  RoleGranted(role, account, _msgSender()) */\n      and\n        /* \"@openzeppelin/contracts-upgradeable@4.9.2/access/AccessControlUpgradeable.sol\":8105:8109  role */\n      dup4\n        /* \"@openzeppelin/contracts-upgradeable@4.9.2/access/AccessControlUpgradeable.sol\":8093:8133  RoleGranted(role, account, _msgSender()) */\n      0x2f8788117e7eff1d82e926ec794901d17c78024a50270940304540a733656f0d\n      mload(0x40)\n      mload(0x40)\n      dup1\n      swap2\n      sub\n      swap1\n      log4\n        /* \"@openzeppelin/contracts-upgradeable@4.9.2/access/AccessControlUpgradeable.sol\":7917:8150  function _grantRole(bytes32 role, address account) internal virtual {... */\n      pop\n      pop\n      jump\t// out\n        /* \"@openzeppelin/contracts-upgradeable@4.9.2/access/AccessControlUpgradeable.sol\":8321:8555  function _revokeRole(bytes32 role, address account) internal virtual {... */\n    tag_212:\n        /* \"@openzeppelin/contracts-upgradeable@4.9.2/access/AccessControlUpgradeable.sol\":8404:8426  hasRole(role, account) */\n      tag_369\n        /* \"@openzeppelin/contracts-upgradeable@4.9.2/access/AccessControlUpgradeable.sol\":8412:8416  role */\n      dup3\n        /* \"@openzeppelin/contracts-upgradeable@4.9.2/access/AccessControlUpgradeable.sol\":8418:8425  account */\n      dup3\n        /* \"@openzeppelin/contracts-upgradeable@4.9.2/access/AccessControlUpgradeable.sol\":8404:8411  hasRole */\n      tag_136\n        /* \"@openzeppelin/contracts-upgradeable@4.9.2/access/AccessControlUpgradeable.sol\":8404:8426  hasRole(role, account) */\n      jump\t// in\n    tag_369:\n        /* \"@openzeppelin/contracts-upgradeable@4.9.2/access/AccessControlUpgradeable.sol\":8400:8549  if (hasRole(role, account)) {... */\n      iszero\n      tag_211\n      jumpi\n        /* \"@openzeppelin/contracts-upgradeable@4.9.2/access/AccessControlUpgradeable.sol\":8474:8479  false */\n      0x00\n        /* \"@openzeppelin/contracts-upgradeable@4.9.2/access/AccessControlUpgradeable.sol\":8442:8454  _roles[role] */\n      dup3\n      dup2\n      mstore\n        /* \"@openzeppelin/contracts-upgradeable@4.9.2/access/AccessControlUpgradeable.sol\":8442:8448  _roles */\n      0xfb\n        /* \"@openzeppelin/contracts-upgradeable@4.9.2/access/AccessControlUpgradeable.sol\":8442:8454  _roles[role] */\n      0x20\n      swap1\n      dup2\n      mstore\n      0x40\n      dup1\n      dup4\n      keccak256\n      sub(shl(0xa0, 0x01), 0x01)\n        /* \"@openzeppelin/contracts-upgradeable@4.9.2/access/AccessControlUpgradeable.sol\":8442:8471  _roles[role].members[account] */\n      dup6\n      and\n      dup1\n      dup6\n      mstore\n      swap3\n      mstore\n      dup1\n      dup4\n      keccak256\n        /* \"@openzeppelin/contracts-upgradeable@4.9.2/access/AccessControlUpgradeable.sol\":8442:8479  _roles[role].members[account] = false */\n      dup1\n      sload\n      not(0xff)\n      and\n      swap1\n      sstore\n        /* \"@openzeppelin/contracts-upgradeable@4.9.2/access/AccessControlUpgradeable.sol\":8498:8538  RoleRevoked(role, account, _msgSender()) */\n      mload\n        /* \"@openzeppelin/contracts-upgradeable@4.9.2/utils/ContextUpgradeable.sol\":929:939  msg.sender */\n      caller\n      swap3\n        /* \"@openzeppelin/contracts-upgradeable@4.9.2/access/AccessControlUpgradeable.sol\":8442:8454  _roles[role] */\n      dup6\n      swap2\n        /* \"@openzeppelin/contracts-upgradeable@4.9.2/access/AccessControlUpgradeable.sol\":8498:8538  RoleRevoked(role, account, _msgSender()) */\n      0xf6391f5c32d9c69d2a47ea670b442974b53935d1edc7fd64eb21e047a839171b\n      swap2\n        /* \"@openzeppelin/contracts-upgradeable@4.9.2/access/AccessControlUpgradeable.sol\":8474:8479  false */\n      swap1\n        /* \"@openzeppelin/contracts-upgradeable@4.9.2/access/AccessControlUpgradeable.sol\":8498:8538  RoleRevoked(role, account, _msgSender()) */\n      log4\n        /* \"@openzeppelin/contracts-upgradeable@4.9.2/access/AccessControlUpgradeable.sol\":8321:8555  function _revokeRole(bytes32 role, address account) internal virtual {... */\n      pop\n      pop\n      jump\t// out\n        /* \"PAXX.sol\":1920:2046  function _authorizeUpgrade(address newImplementation)... */\n    tag_224:\n        /* \"PAXX.sol\":890:916  keccak256(\"UPGRADER_ROLE\") */\n      0x189ab7a9244df0848122154315af71fe140f3db0fe014031783b0946b8c9d2e3\n        /* \"@openzeppelin/contracts-upgradeable@4.9.2/access/AccessControlUpgradeable.sol\":2928:2944  _checkRole(role) */\n      tag_211\n        /* \"@openzeppelin/contracts-upgradeable@4.9.2/access/AccessControlUpgradeable.sol\":2939:2943  role */\n      dup2\n        /* \"@openzeppelin/contracts-upgradeable@4.9.2/access/AccessControlUpgradeable.sol\":2928:2938  _checkRole */\n      tag_201\n        /* \"@openzeppelin/contracts-upgradeable@4.9.2/access/AccessControlUpgradeable.sol\":2928:2944  _checkRole(role) */\n      jump\t// in\n        /* \"@openzeppelin/contracts-upgradeable@4.9.2/proxy/ERC1967/ERC1967UpgradeUpgradeable.sol\":2820:3764  function _upgradeToAndCallUUPS(address newImplementation, bytes memory data, bool forceCall) internal {... */\n    tag_230:\n        /* \"@openzeppelin/contracts-upgradeable@4.9.2/proxy/ERC1967/ERC1967UpgradeUpgradeable.sol\":971:1037  0x4910fdfa16fed3260ed0e7147f7cc6da11a60208b5b9406d12a635614ffd9143 */\n      0x4910fdfa16fed3260ed0e7147f7cc6da11a60208b5b9406d12a635614ffd9143\n        /* \"@openzeppelin/contracts-upgradeable@4.9.2/proxy/ERC1967/ERC1967UpgradeUpgradeable.sol\":3236:3295  StorageSlotUpgradeable.getBooleanSlot(_ROLLBACK_SLOT).value */\n      sload\n      0xff\n      and\n        /* \"@openzeppelin/contracts-upgradeable@4.9.2/proxy/ERC1967/ERC1967UpgradeUpgradeable.sol\":3232:3758  if (StorageSlotUpgradeable.getBooleanSlot(_ROLLBACK_SLOT).value) {... */\n      iszero\n      tag_381\n      jumpi\n        /* \"@openzeppelin/contracts-upgradeable@4.9.2/proxy/ERC1967/ERC1967UpgradeUpgradeable.sol\":3311:3348  _setImplementation(newImplementation) */\n      tag_203\n        /* \"@openzeppelin/contracts-upgradeable@4.9.2/proxy/ERC1967/ERC1967UpgradeUpgradeable.sol\":3330:3347  newImplementation */\n      dup4\n        /* \"@openzeppelin/contracts-upgradeable@4.9.2/proxy/ERC1967/ERC1967UpgradeUpgradeable.sol\":3311:3329  _setImplementation */\n      tag_383\n        /* \"@openzeppelin/contracts-upgradeable@4.9.2/proxy/ERC1967/ERC1967UpgradeUpgradeable.sol\":3311:3348  _setImplementation(newImplementation) */\n      jump\t// in\n        /* \"@openzeppelin/contracts-upgradeable@4.9.2/proxy/ERC1967/ERC1967UpgradeUpgradeable.sol\":3232:3758  if (StorageSlotUpgradeable.getBooleanSlot(_ROLLBACK_SLOT).value) {... */\n    tag_381:\n        /* \"@openzeppelin/contracts-upgradeable@4.9.2/proxy/ERC1967/ERC1967UpgradeUpgradeable.sol\":3412:3429  newImplementation */\n      dup3\n      sub(shl(0xa0, 0x01), 0x01)\n        /* \"@openzeppelin/contracts-upgradeable@4.9.2/proxy/ERC1967/ERC1967UpgradeUpgradeable.sol\":3383:3444  IERC1822ProxiableUpgradeable(newImplementation).proxiableUUID */\n      and\n      0x52d1902d\n        /* \"@openzeppelin/contracts-upgradeable@4.9.2/proxy/ERC1967/ERC1967UpgradeUpgradeable.sol\":3383:3446  IERC1822ProxiableUpgradeable(newImplementation).proxiableUUID() */\n      mload(0x40)\n      dup2\n      0xffffffff\n      and\n      0xe0\n      shl\n      dup2\n      mstore\n      0x04\n      add\n      0x20\n      mload(0x40)\n      dup1\n      dup4\n      sub\n      dup2\n      dup7\n      dup1\n      extcodesize\n      iszero\n      dup1\n      iszero\n      tag_385\n      jumpi\n      0x00\n      dup1\n      revert\n    tag_385:\n      pop\n      gas\n      staticcall\n      swap3\n      pop\n      pop\n      pop\n      dup1\n      iszero\n      tag_386\n      jumpi\n      pop\n      0x40\n      dup1\n      mload\n      0x1f\n      returndatasize\n      swap1\n      dup2\n      add\n      not(0x1f)\n      and\n      dup3\n      add\n      swap1\n      swap3\n      mstore\n      tag_387\n      swap2\n      dup2\n      add\n      swap1\n      tag_388\n      jump\t// in\n    tag_387:\n      0x01\n    tag_386:\n        /* \"@openzeppelin/contracts-upgradeable@4.9.2/proxy/ERC1967/ERC1967UpgradeUpgradeable.sol\":3379:3681  try IERC1822ProxiableUpgradeable(newImplementation).proxiableUUID() returns (bytes32 slot) {... */\n      tag_389\n      jumpi\n        /* \"@openzeppelin/contracts-upgradeable@4.9.2/proxy/ERC1967/ERC1967UpgradeUpgradeable.sol\":3610:3666  revert(\"ERC1967Upgrade: new implementation is not UUPS\") */\n      mload(0x40)\n      shl(0xe5, 0x461bcd)\n      dup2\n      mstore\n        /* \"#utility.yul\":12355:12357   */\n      0x20\n        /* \"@openzeppelin/contracts-upgradeable@4.9.2/proxy/ERC1967/ERC1967UpgradeUpgradeable.sol\":3610:3666  revert(\"ERC1967Upgrade: new implementation is not UUPS\") */\n      0x04\n      dup3\n      add\n        /* \"#utility.yul\":12337:12358   */\n      mstore\n        /* \"#utility.yul\":12394:12396   */\n      0x2e\n        /* \"#utility.yul\":12374:12392   */\n      0x24\n      dup3\n      add\n        /* \"#utility.yul\":12367:12397   */\n      mstore\n        /* \"#utility.yul\":12433:12467   */\n      0x45524331393637557067726164653a206e657720696d706c656d656e74617469\n        /* \"#utility.yul\":12413:12431   */\n      0x44\n      dup3\n      add\n        /* \"#utility.yul\":12406:12468   */\n      mstore\n      shl(0x90, 0x6f6e206973206e6f742055555053)\n        /* \"#utility.yul\":12484:12502   */\n      0x64\n      dup3\n      add\n        /* \"#utility.yul\":12477:12521   */\n      mstore\n        /* \"#utility.yul\":12538:12557   */\n      0x84\n      add\n        /* \"@openzeppelin/contracts-upgradeable@4.9.2/proxy/ERC1967/ERC1967UpgradeUpgradeable.sol\":3610:3666  revert(\"ERC1967Upgrade: new implementation is not UUPS\") */\n      tag_209\n        /* \"#utility.yul\":12153:12563   */\n      jump\n        /* \"@openzeppelin/contracts-upgradeable@4.9.2/proxy/ERC1967/ERC1967UpgradeUpgradeable.sol\":3379:3681  try IERC1822ProxiableUpgradeable(newImplementation).proxiableUUID() returns (bytes32 slot) {... */\n    tag_389:\n      0x00\n      dup1\n      mload\n      0x20\n      data_75b20eef8615de99c108b05f0dbda081c91897128caa336d75dffb97c4132b4d\n      dup4\n      codecopy\n      dup2\n      mload\n      swap2\n      mstore\n        /* \"@openzeppelin/contracts-upgradeable@4.9.2/proxy/ERC1967/ERC1967UpgradeUpgradeable.sol\":3496:3524  slot == _IMPLEMENTATION_SLOT */\n      dup2\n      eq\n        /* \"@openzeppelin/contracts-upgradeable@4.9.2/proxy/ERC1967/ERC1967UpgradeUpgradeable.sol\":3488:3570  require(slot == _IMPLEMENTATION_SLOT, \"ERC1967Upgrade: unsupported proxiableUUID\") */\n      tag_396\n      jumpi\n      mload(0x40)\n      shl(0xe5, 0x461bcd)\n      dup2\n      mstore\n        /* \"#utility.yul\":12770:12772   */\n      0x20\n        /* \"@openzeppelin/contracts-upgradeable@4.9.2/proxy/ERC1967/ERC1967UpgradeUpgradeable.sol\":3488:3570  require(slot == _IMPLEMENTATION_SLOT, \"ERC1967Upgrade: unsupported proxiableUUID\") */\n      0x04\n      dup3\n      add\n        /* \"#utility.yul\":12752:12773   */\n      mstore\n        /* \"#utility.yul\":12809:12811   */\n      0x29\n        /* \"#utility.yul\":12789:12807   */\n      0x24\n      dup3\n      add\n        /* \"#utility.yul\":12782:12812   */\n      mstore\n        /* \"#utility.yul\":12848:12882   */\n      0x45524331393637557067726164653a20756e737570706f727465642070726f78\n        /* \"#utility.yul\":12828:12846   */\n      0x44\n      dup3\n      add\n        /* \"#utility.yul\":12821:12883   */\n      mstore\n      shl(0xba, 0x1a58589b1955555251)\n        /* \"#utility.yul\":12899:12917   */\n      0x64\n      dup3\n      add\n        /* \"#utility.yul\":12892:12931   */\n      mstore\n        /* \"#utility.yul\":12948:12967   */\n      0x84\n      add\n        /* \"@openzeppelin/contracts-upgradeable@4.9.2/proxy/ERC1967/ERC1967UpgradeUpgradeable.sol\":3488:3570  require(slot == _IMPLEMENTATION_SLOT, \"ERC1967Upgrade: unsupported proxiableUUID\") */\n      tag_209\n        /* \"#utility.yul\":12568:12973   */\n      jump\n        /* \"@openzeppelin/contracts-upgradeable@4.9.2/proxy/ERC1967/ERC1967UpgradeUpgradeable.sol\":3488:3570  require(slot == _IMPLEMENTATION_SLOT, \"ERC1967Upgrade: unsupported proxiableUUID\") */\n    tag_396:\n        /* \"@openzeppelin/contracts-upgradeable@4.9.2/proxy/ERC1967/ERC1967UpgradeUpgradeable.sol\":3447:3585  returns (bytes32 slot) {... */\n      pop\n        /* \"@openzeppelin/contracts-upgradeable@4.9.2/proxy/ERC1967/ERC1967UpgradeUpgradeable.sol\":3694:3747  _upgradeToAndCall(newImplementation, data, forceCall) */\n      tag_203\n        /* \"@openzeppelin/contracts-upgradeable@4.9.2/proxy/ERC1967/ERC1967UpgradeUpgradeable.sol\":3712:3729  newImplementation */\n      dup4\n        /* \"@openzeppelin/contracts-upgradeable@4.9.2/proxy/ERC1967/ERC1967UpgradeUpgradeable.sol\":3731:3735  data */\n      dup4\n        /* \"@openzeppelin/contracts-upgradeable@4.9.2/proxy/ERC1967/ERC1967UpgradeUpgradeable.sol\":3737:3746  forceCall */\n      dup4\n        /* \"@openzeppelin/contracts-upgradeable@4.9.2/proxy/ERC1967/ERC1967UpgradeUpgradeable.sol\":3694:3711  _upgradeToAndCall */\n      tag_400\n        /* \"@openzeppelin/contracts-upgradeable@4.9.2/proxy/ERC1967/ERC1967UpgradeUpgradeable.sol\":3694:3747  _upgradeToAndCall(newImplementation, data, forceCall) */\n      jump\t// in\n        /* \"@openzeppelin/contracts-upgradeable@4.9.2/security/PausableUpgradeable.sol\":2676:2793  function _unpause() internal virtual whenPaused {... */\n    tag_241:\n        /* \"@openzeppelin/contracts-upgradeable@4.9.2/security/PausableUpgradeable.sol\":1729:1745  _requirePaused() */\n      tag_402\n        /* \"@openzeppelin/contracts-upgradeable@4.9.2/security/PausableUpgradeable.sol\":1729:1743  _requirePaused */\n      tag_403\n        /* \"@openzeppelin/contracts-upgradeable@4.9.2/security/PausableUpgradeable.sol\":1729:1745  _requirePaused() */\n      jump\t// in\n    tag_402:\n        /* \"@openzeppelin/contracts-upgradeable@4.9.2/security/PausableUpgradeable.sol\":2734:2741  _paused */\n      0x97\n        /* \"@openzeppelin/contracts-upgradeable@4.9.2/security/PausableUpgradeable.sol\":2734:2749  _paused = false */\n      dup1\n      sload\n      not(0xff)\n      and\n      swap1\n      sstore\n        /* \"@openzeppelin/contracts-upgradeable@4.9.2/security/PausableUpgradeable.sol\":2764:2786  Unpaused(_msgSender()) */\n      0x5db9ee0a495bf2e6ff9c91a7834c1ba4fdd244a5e8aa4e537bd38aeae4b073aa\n        /* \"@openzeppelin/contracts-upgradeable@4.9.2/utils/ContextUpgradeable.sol\":929:939  msg.sender */\n      caller\n        /* \"@openzeppelin/contracts-upgradeable@4.9.2/security/PausableUpgradeable.sol\":2773:2785  _msgSender() */\n    tag_405:\n        /* \"@openzeppelin/contracts-upgradeable@4.9.2/security/PausableUpgradeable.sol\":2764:2786  Unpaused(_msgSender()) */\n      mload(0x40)\n      sub(shl(0xa0, 0x01), 0x01)\n        /* \"#utility.yul\":13142:13174   */\n      swap1\n      swap2\n      and\n        /* \"#utility.yul\":13124:13175   */\n      dup2\n      mstore\n        /* \"#utility.yul\":13112:13114   */\n      0x20\n        /* \"#utility.yul\":13097:13115   */\n      add\n        /* \"@openzeppelin/contracts-upgradeable@4.9.2/security/PausableUpgradeable.sol\":2764:2786  Unpaused(_msgSender()) */\n      mload(0x40)\n      dup1\n      swap2\n      sub\n      swap1\n      log1\n        /* \"@openzeppelin/contracts-upgradeable@4.9.2/security/PausableUpgradeable.sol\":2676:2793  function _unpause() internal virtual whenPaused {... */\n      jump\t// out\n        /* \"@openzeppelin/contracts-upgradeable@4.9.2/token/ERC20/ERC20Upgradeable.sol\":9712:10371  function _burn(address account, uint256 amount) internal virtual {... */\n    tag_245:\n      sub(shl(0xa0, 0x01), 0x01)\n        /* \"@openzeppelin/contracts-upgradeable@4.9.2/token/ERC20/ERC20Upgradeable.sol\":9795:9816  account != address(0) */\n      dup3\n      and\n        /* \"@openzeppelin/contracts-upgradeable@4.9.2/token/ERC20/ERC20Upgradeable.sol\":9787:9854  require(account != address(0), \"ERC20: burn from the zero address\") */\n      tag_409\n      jumpi\n      mload(0x40)\n      shl(0xe5, 0x461bcd)\n      dup2\n      mstore\n        /* \"#utility.yul\":13388:13390   */\n      0x20\n        /* \"@openzeppelin/contracts-upgradeable@4.9.2/token/ERC20/ERC20Upgradeable.sol\":9787:9854  require(account != address(0), \"ERC20: burn from the zero address\") */\n      0x04\n      dup3\n      add\n        /* \"#utility.yul\":13370:13391   */\n      mstore\n        /* \"#utility.yul\":13427:13429   */\n      0x21\n        /* \"#utility.yul\":13407:13425   */\n      0x24\n      dup3\n      add\n        /* \"#utility.yul\":13400:13430   */\n      mstore\n        /* \"#utility.yul\":13466:13500   */\n      0x45524332303a206275726e2066726f6d20746865207a65726f20616464726573\n        /* \"#utility.yul\":13446:13464   */\n      0x44\n      dup3\n      add\n        /* \"#utility.yul\":13439:13501   */\n      mstore\n      shl(0xf8, 0x73)\n        /* \"#utility.yul\":13517:13535   */\n      0x64\n      dup3\n      add\n        /* \"#utility.yul\":13510:13541   */\n      mstore\n        /* \"#utility.yul\":13558:13577   */\n      0x84\n      add\n        /* \"@openzeppelin/contracts-upgradeable@4.9.2/token/ERC20/ERC20Upgradeable.sol\":9787:9854  require(account != address(0), \"ERC20: burn from the zero address\") */\n      tag_209\n        /* \"#utility.yul\":13186:13583   */\n      jump\n        /* \"@openzeppelin/contracts-upgradeable@4.9.2/token/ERC20/ERC20Upgradeable.sol\":9787:9854  require(account != address(0), \"ERC20: burn from the zero address\") */\n    tag_409:\n        /* \"@openzeppelin/contracts-upgradeable@4.9.2/token/ERC20/ERC20Upgradeable.sol\":9865:9914  _beforeTokenTransfer(account, address(0), amount) */\n      tag_412\n        /* \"@openzeppelin/contracts-upgradeable@4.9.2/token/ERC20/ERC20Upgradeable.sol\":9886:9893  account */\n      dup3\n        /* \"@openzeppelin/contracts-upgradeable@4.9.2/token/ERC20/ERC20Upgradeable.sol\":9903:9904  0 */\n      0x00\n        /* \"@openzeppelin/contracts-upgradeable@4.9.2/token/ERC20/ERC20Upgradeable.sol\":9907:9913  amount */\n      dup4\n        /* \"@openzeppelin/contracts-upgradeable@4.9.2/token/ERC20/ERC20Upgradeable.sol\":9865:9885  _beforeTokenTransfer */\n      tag_353\n        /* \"@openzeppelin/contracts-upgradeable@4.9.2/token/ERC20/ERC20Upgradeable.sol\":9865:9914  _beforeTokenTransfer(account, address(0), amount) */\n      jump\t// in\n    tag_412:\n      sub(shl(0xa0, 0x01), 0x01)\n        /* \"@openzeppelin/contracts-upgradeable@4.9.2/token/ERC20/ERC20Upgradeable.sol\":9950:9968  _balances[account] */\n      dup3\n      and\n        /* \"@openzeppelin/contracts-upgradeable@4.9.2/token/ERC20/ERC20Upgradeable.sol\":9925:9947  uint256 accountBalance */\n      0x00\n        /* \"@openzeppelin/contracts-upgradeable@4.9.2/token/ERC20/ERC20Upgradeable.sol\":9950:9968  _balances[account] */\n      swap1\n      dup2\n      mstore\n        /* \"@openzeppelin/contracts-upgradeable@4.9.2/token/ERC20/ERC20Upgradeable.sol\":9950:9959  _balances */\n      0x33\n        /* \"@openzeppelin/contracts-upgradeable@4.9.2/token/ERC20/ERC20Upgradeable.sol\":9950:9968  _balances[account] */\n      0x20\n      mstore\n      0x40\n      swap1\n      keccak256\n      sload\n        /* \"@openzeppelin/contracts-upgradeable@4.9.2/token/ERC20/ERC20Upgradeable.sol\":9986:10010  accountBalance >= amount */\n      dup2\n      dup2\n      lt\n      iszero\n        /* \"@openzeppelin/contracts-upgradeable@4.9.2/token/ERC20/ERC20Upgradeable.sol\":9978:10049  require(accountBalance >= amount, \"ERC20: burn amount exceeds balance\") */\n      tag_413\n      jumpi\n      mload(0x40)\n      shl(0xe5, 0x461bcd)\n      dup2\n      mstore\n        /* \"#utility.yul\":13790:13792   */\n      0x20\n        /* \"@openzeppelin/contracts-upgradeable@4.9.2/token/ERC20/ERC20Upgradeable.sol\":9978:10049  require(accountBalance >= amount, \"ERC20: burn amount exceeds balance\") */\n      0x04\n      dup3\n      add\n        /* \"#utility.yul\":13772:13793   */\n      mstore\n        /* \"#utility.yul\":13829:13831   */\n      0x22\n        /* \"#utility.yul\":13809:13827   */\n      0x24\n      dup3\n      add\n        /* \"#utility.yul\":13802:13832   */\n      mstore\n        /* \"#utility.yul\":13868:13902   */\n      0x45524332303a206275726e20616d6f756e7420657863656564732062616c616e\n        /* \"#utility.yul\":13848:13866   */\n      0x44\n      dup3\n      add\n        /* \"#utility.yul\":13841:13903   */\n      mstore\n      shl(0xf0, 0x6365)\n        /* \"#utility.yul\":13919:13937   */\n      0x64\n      dup3\n      add\n        /* \"#utility.yul\":13912:13944   */\n      mstore\n        /* \"#utility.yul\":13961:13980   */\n      0x84\n      add\n        /* \"@openzeppelin/contracts-upgradeable@4.9.2/token/ERC20/ERC20Upgradeable.sol\":9978:10049  require(accountBalance >= amount, \"ERC20: burn amount exceeds balance\") */\n      tag_209\n        /* \"#utility.yul\":13588:13986   */\n      jump\n        /* \"@openzeppelin/contracts-upgradeable@4.9.2/token/ERC20/ERC20Upgradeable.sol\":9978:10049  require(accountBalance >= amount, \"ERC20: burn amount exceeds balance\") */\n    tag_413:\n      sub(shl(0xa0, 0x01), 0x01)\n        /* \"@openzeppelin/contracts-upgradeable@4.9.2/token/ERC20/ERC20Upgradeable.sol\":10083:10101  _balances[account] */\n      dup4\n      and\n      0x00\n      dup2\n      dup2\n      mstore\n        /* \"@openzeppelin/contracts-upgradeable@4.9.2/token/ERC20/ERC20Upgradeable.sol\":10083:10092  _balances */\n      0x33\n        /* \"@openzeppelin/contracts-upgradeable@4.9.2/token/ERC20/ERC20Upgradeable.sol\":10083:10101  _balances[account] */\n      0x20\n      swap1\n      dup2\n      mstore\n      0x40\n      dup1\n      dup4\n      keccak256\n        /* \"@openzeppelin/contracts-upgradeable@4.9.2/token/ERC20/ERC20Upgradeable.sol\":10104:10127  accountBalance - amount */\n      dup7\n      dup7\n      sub\n        /* \"@openzeppelin/contracts-upgradeable@4.9.2/token/ERC20/ERC20Upgradeable.sol\":10083:10127  _balances[account] = accountBalance - amount */\n      swap1\n      sstore\n        /* \"@openzeppelin/contracts-upgradeable@4.9.2/token/ERC20/ERC20Upgradeable.sol\":10220:10232  _totalSupply */\n      0x35\n        /* \"@openzeppelin/contracts-upgradeable@4.9.2/token/ERC20/ERC20Upgradeable.sol\":10220:10242  _totalSupply -= amount */\n      dup1\n      sload\n      dup8\n      swap1\n      sub\n      swap1\n      sstore\n        /* \"@openzeppelin/contracts-upgradeable@4.9.2/token/ERC20/ERC20Upgradeable.sol\":10268:10305  Transfer(account, address(0), amount) */\n      mload\n        /* \"#utility.yul\":1731:1756   */\n      dup6\n      dup2\n      mstore\n        /* \"@openzeppelin/contracts-upgradeable@4.9.2/token/ERC20/ERC20Upgradeable.sol\":10083:10101  _balances[account] */\n      swap2\n      swap3\n      swap2\n        /* \"@openzeppelin/contracts-upgradeable@4.9.2/token/ERC20/ERC20Upgradeable.sol\":10268:10305  Transfer(account, address(0), amount) */\n      0xddf252ad1be2c89b69c2b068fc378daa952ba7f163c4a11628f55a4df523b3ef\n      swap2\n        /* \"#utility.yul\":1704:1722   */\n      add\n        /* \"@openzeppelin/contracts-upgradeable@4.9.2/token/ERC20/ERC20Upgradeable.sol\":10268:10305  Transfer(account, address(0), amount) */\n      mload(0x40)\n      dup1\n      swap2\n      sub\n      swap1\n      log3\n        /* \"@openzeppelin/contracts-upgradeable@4.9.2/access/AccessControlUpgradeable.sol\":5259:5404  function grantRole(bytes32 role, address account) public virtual override onlyRole(getRoleAdmin(role)) {... */\n      pop\n      pop\n      pop\n      jump\t// out\n        /* \"@openzeppelin/contracts-upgradeable@4.9.2/token/ERC20/ERC20Upgradeable.sol\":2118:2265  function __ERC20_init(string memory name_, string memory symbol_) internal onlyInitializing {... */\n    tag_278:\n        /* \"@openzeppelin/contracts-upgradeable@4.9.2/proxy/utils/Initializable.sol\":5374:5387  _initializing */\n      sload(0x00)\n      0x0100\n      swap1\n      div\n      0xff\n      and\n        /* \"@openzeppelin/contracts-upgradeable@4.9.2/proxy/utils/Initializable.sol\":5366:5435  require(_initializing, \"Initializable: contract is not initializing\") */\n      tag_420\n      jumpi\n      mload(0x40)\n      shl(0xe5, 0x461bcd)\n      dup2\n      mstore\n      0x04\n      add\n      tag_209\n      swap1\n      tag_422\n      jump\t// in\n    tag_420:\n        /* \"@openzeppelin/contracts-upgradeable@4.9.2/token/ERC20/ERC20Upgradeable.sol\":2220:2258  __ERC20_init_unchained(name_, symbol_) */\n      tag_211\n        /* \"@openzeppelin/contracts-upgradeable@4.9.2/token/ERC20/ERC20Upgradeable.sol\":2243:2248  name_ */\n      dup3\n        /* \"@openzeppelin/contracts-upgradeable@4.9.2/token/ERC20/ERC20Upgradeable.sol\":2250:2257  symbol_ */\n      dup3\n        /* \"@openzeppelin/contracts-upgradeable@4.9.2/token/ERC20/ERC20Upgradeable.sol\":2220:2242  __ERC20_init_unchained */\n      tag_425\n        /* \"@openzeppelin/contracts-upgradeable@4.9.2/token/ERC20/ERC20Upgradeable.sol\":2220:2258  __ERC20_init_unchained(name_, symbol_) */\n      jump\t// in\n        /* \"@openzeppelin/contracts-upgradeable@4.9.2/token/ERC20/extensions/ERC20BurnableUpgradeable.sol\":594:659  function __ERC20Burnable_init() internal onlyInitializing {... */\n    tag_280:\n        /* \"@openzeppelin/contracts-upgradeable@4.9.2/proxy/utils/Initializable.sol\":5374:5387  _initializing */\n      sload(0x00)\n      0x0100\n      swap1\n      div\n      0xff\n      and\n        /* \"@openzeppelin/contracts-upgradeable@4.9.2/proxy/utils/Initializable.sol\":5366:5435  require(_initializing, \"Initializable: contract is not initializing\") */\n      tag_427\n      jumpi\n      mload(0x40)\n      shl(0xe5, 0x461bcd)\n      dup2\n      mstore\n      0x04\n      add\n      tag_209\n      swap1\n      tag_422\n      jump\t// in\n    tag_427:\n        /* \"@openzeppelin/contracts-upgradeable@4.9.2/token/ERC20/extensions/ERC20BurnableUpgradeable.sol\":594:659  function __ERC20Burnable_init() internal onlyInitializing {... */\n      jump\t// out\n        /* \"@openzeppelin/contracts-upgradeable@4.9.2/security/PausableUpgradeable.sol\":1063:1160  function __Pausable_init() internal onlyInitializing {... */\n    tag_282:\n        /* \"@openzeppelin/contracts-upgradeable@4.9.2/proxy/utils/Initializable.sol\":5374:5387  _initializing */\n      sload(0x00)\n      0x0100\n      swap1\n      div\n      0xff\n      and\n        /* \"@openzeppelin/contracts-upgradeable@4.9.2/proxy/utils/Initializable.sol\":5366:5435  require(_initializing, \"Initializable: contract is not initializing\") */\n      tag_431\n      jumpi\n      mload(0x40)\n      shl(0xe5, 0x461bcd)\n      dup2\n      mstore\n      0x04\n      add\n      tag_209\n      swap1\n      tag_422\n      jump\t// in\n    tag_431:\n        /* \"@openzeppelin/contracts-upgradeable@4.9.2/security/PausableUpgradeable.sol\":1126:1153  __Pausable_init_unchained() */\n      tag_427\n        /* \"@openzeppelin/contracts-upgradeable@4.9.2/security/PausableUpgradeable.sol\":1126:1151  __Pausable_init_unchained */\n      tag_435\n        /* \"@openzeppelin/contracts-upgradeable@4.9.2/security/PausableUpgradeable.sol\":1126:1153  __Pausable_init_unchained() */\n      jump\t// in\n        /* \"@openzeppelin/contracts-upgradeable@4.9.2/token/ERC20/ERC20Upgradeable.sol\":8857:9392  function _mint(address account, uint256 amount) internal virtual {... */\n    tag_295:\n      sub(shl(0xa0, 0x01), 0x01)\n        /* \"@openzeppelin/contracts-upgradeable@4.9.2/token/ERC20/ERC20Upgradeable.sol\":8940:8961  account != address(0) */\n      dup3\n      and\n        /* \"@openzeppelin/contracts-upgradeable@4.9.2/token/ERC20/ERC20Upgradeable.sol\":8932:8997  require(account != address(0), \"ERC20: mint to the zero address\") */\n      tag_445\n      jumpi\n      mload(0x40)\n      shl(0xe5, 0x461bcd)\n      dup2\n      mstore\n        /* \"#utility.yul\":14605:14607   */\n      0x20\n        /* \"@openzeppelin/contracts-upgradeable@4.9.2/token/ERC20/ERC20Upgradeable.sol\":8932:8997  require(account != address(0), \"ERC20: mint to the zero address\") */\n      0x04\n      dup3\n      add\n        /* \"#utility.yul\":14587:14608   */\n      mstore\n        /* \"#utility.yul\":14644:14646   */\n      0x1f\n        /* \"#utility.yul\":14624:14642   */\n      0x24\n      dup3\n      add\n        /* \"#utility.yul\":14617:14647   */\n      mstore\n        /* \"#utility.yul\":14683:14716   */\n      0x45524332303a206d696e7420746f20746865207a65726f206164647265737300\n        /* \"#utility.yul\":14663:14681   */\n      0x44\n      dup3\n      add\n        /* \"#utility.yul\":14656:14717   */\n      mstore\n        /* \"#utility.yul\":14734:14752   */\n      0x64\n      add\n        /* \"@openzeppelin/contracts-upgradeable@4.9.2/token/ERC20/ERC20Upgradeable.sol\":8932:8997  require(account != address(0), \"ERC20: mint to the zero address\") */\n      tag_209\n        /* \"#utility.yul\":14403:14758   */\n      jump\n        /* \"@openzeppelin/contracts-upgradeable@4.9.2/token/ERC20/ERC20Upgradeable.sol\":8932:8997  require(account != address(0), \"ERC20: mint to the zero address\") */\n    tag_445:\n        /* \"@openzeppelin/contracts-upgradeable@4.9.2/token/ERC20/ERC20Upgradeable.sol\":9008:9057  _beforeTokenTransfer(address(0), account, amount) */\n      tag_448\n        /* \"@openzeppelin/contracts-upgradeable@4.9.2/token/ERC20/ERC20Upgradeable.sol\":9037:9038  0 */\n      0x00\n        /* \"@openzeppelin/contracts-upgradeable@4.9.2/token/ERC20/ERC20Upgradeable.sol\":9041:9048  account */\n      dup4\n        /* \"@openzeppelin/contracts-upgradeable@4.9.2/token/ERC20/ERC20Upgradeable.sol\":9050:9056  amount */\n      dup4\n        /* \"@openzeppelin/contracts-upgradeable@4.9.2/token/ERC20/ERC20Upgradeable.sol\":9008:9028  _beforeTokenTransfer */\n      tag_353\n        /* \"@openzeppelin/contracts-upgradeable@4.9.2/token/ERC20/ERC20Upgradeable.sol\":9008:9057  _beforeTokenTransfer(address(0), account, amount) */\n      jump\t// in\n    tag_448:\n        /* \"@openzeppelin/contracts-upgradeable@4.9.2/token/ERC20/ERC20Upgradeable.sol\":9084:9090  amount */\n      dup1\n        /* \"@openzeppelin/contracts-upgradeable@4.9.2/token/ERC20/ERC20Upgradeable.sol\":9068:9080  _totalSupply */\n      0x35\n      0x00\n        /* \"@openzeppelin/contracts-upgradeable@4.9.2/token/ERC20/ERC20Upgradeable.sol\":9068:9090  _totalSupply += amount */\n      dup3\n      dup3\n      sload\n      tag_449\n      swap2\n      swap1\n      tag_236\n      jump\t// in\n    tag_449:\n      swap1\n      swap2\n      sstore\n      pop\n      pop\n      sub(shl(0xa0, 0x01), 0x01)\n        /* \"@openzeppelin/contracts-upgradeable@4.9.2/token/ERC20/ERC20Upgradeable.sol\":9236:9254  _balances[account] */\n      dup3\n      and\n      0x00\n      dup2\n      dup2\n      mstore\n        /* \"@openzeppelin/contracts-upgradeable@4.9.2/token/ERC20/ERC20Upgradeable.sol\":9236:9245  _balances */\n      0x33\n        /* \"@openzeppelin/contracts-upgradeable@4.9.2/token/ERC20/ERC20Upgradeable.sol\":9236:9254  _balances[account] */\n      0x20\n      swap1\n      dup2\n      mstore\n      0x40\n      dup1\n      dup4\n      keccak256\n        /* \"@openzeppelin/contracts-upgradeable@4.9.2/token/ERC20/ERC20Upgradeable.sol\":9236:9264  _balances[account] += amount */\n      dup1\n      sload\n      dup7\n      add\n      swap1\n      sstore\n        /* \"@openzeppelin/contracts-upgradeable@4.9.2/token/ERC20/ERC20Upgradeable.sol\":9289:9326  Transfer(address(0), account, amount) */\n      mload\n        /* \"#utility.yul\":1731:1756   */\n      dup5\n      dup2\n      mstore\n        /* \"@openzeppelin/contracts-upgradeable@4.9.2/token/ERC20/ERC20Upgradeable.sol\":9289:9326  Transfer(address(0), account, amount) */\n      0xddf252ad1be2c89b69c2b068fc378daa952ba7f163c4a11628f55a4df523b3ef\n      swap2\n        /* \"#utility.yul\":1704:1722   */\n      add\n        /* \"@openzeppelin/contracts-upgradeable@4.9.2/token/ERC20/ERC20Upgradeable.sol\":9289:9326  Transfer(address(0), account, amount) */\n      mload(0x40)\n      dup1\n      swap2\n      sub\n      swap1\n      log3\n        /* \"@openzeppelin/contracts-upgradeable@4.9.2/access/AccessControlUpgradeable.sol\":6368:6582  function renounceRole(bytes32 role, address account) public virtual override {... */\n      pop\n      pop\n      jump\t// out\n        /* \"@openzeppelin/contracts-upgradeable@4.9.2/security/PausableUpgradeable.sol\":2429:2544  function _pause() internal virtual whenNotPaused {... */\n    tag_304:\n        /* \"@openzeppelin/contracts-upgradeable@4.9.2/security/PausableUpgradeable.sol\":1482:1501  _requireNotPaused() */\n      tag_453\n        /* \"@openzeppelin/contracts-upgradeable@4.9.2/security/PausableUpgradeable.sol\":1482:1499  _requireNotPaused */\n      tag_454\n        /* \"@openzeppelin/contracts-upgradeable@4.9.2/security/PausableUpgradeable.sol\":1482:1501  _requireNotPaused() */\n      jump\t// in\n    tag_453:\n        /* \"@openzeppelin/contracts-upgradeable@4.9.2/security/PausableUpgradeable.sol\":2488:2495  _paused */\n      0x97\n        /* \"@openzeppelin/contracts-upgradeable@4.9.2/security/PausableUpgradeable.sol\":2488:2502  _paused = true */\n      dup1\n      sload\n      not(0xff)\n      and\n        /* \"@openzeppelin/contracts-upgradeable@4.9.2/security/PausableUpgradeable.sol\":2498:2502  true */\n      0x01\n        /* \"@openzeppelin/contracts-upgradeable@4.9.2/security/PausableUpgradeable.sol\":2488:2502  _paused = true */\n      or\n      swap1\n      sstore\n        /* \"@openzeppelin/contracts-upgradeable@4.9.2/security/PausableUpgradeable.sol\":2517:2537  Paused(_msgSender()) */\n      0x62e78cea01bee320cd4e420270b5ea74000d11b0c9f74754ebdbfc544b05a258\n        /* \"@openzeppelin/contracts-upgradeable@4.9.2/security/PausableUpgradeable.sol\":2524:2536  _msgSender() */\n      tag_405\n        /* \"@openzeppelin/contracts-upgradeable@4.9.2/utils/ContextUpgradeable.sol\":929:939  msg.sender */\n      caller\n      swap1\n        /* \"@openzeppelin/contracts-upgradeable@4.9.2/utils/ContextUpgradeable.sol\":850:946  function _msgSender() internal view virtual returns (address) {... */\n      jump\n        /* \"PAXX.sol\":1721:1914  function _beforeTokenTransfer(address from, address to, uint256 amount)... */\n    tag_353:\n        /* \"@openzeppelin/contracts-upgradeable@4.9.2/security/PausableUpgradeable.sol\":1482:1501  _requireNotPaused() */\n      tag_203\n        /* \"@openzeppelin/contracts-upgradeable@4.9.2/security/PausableUpgradeable.sol\":1482:1499  _requireNotPaused */\n      tag_454\n        /* \"@openzeppelin/contracts-upgradeable@4.9.2/security/PausableUpgradeable.sol\":1482:1501  _requireNotPaused() */\n      jump\t// in\n        /* \"@openzeppelin/contracts-upgradeable@4.9.2/access/AccessControlUpgradeable.sol\":4152:4653  function _checkRole(bytes32 role, address account) internal view virtual {... */\n    tag_363:\n        /* \"@openzeppelin/contracts-upgradeable@4.9.2/access/AccessControlUpgradeable.sol\":4240:4262  hasRole(role, account) */\n      tag_465\n        /* \"@openzeppelin/contracts-upgradeable@4.9.2/access/AccessControlUpgradeable.sol\":4248:4252  role */\n      dup3\n        /* \"@openzeppelin/contracts-upgradeable@4.9.2/access/AccessControlUpgradeable.sol\":4254:4261  account */\n      dup3\n        /* \"@openzeppelin/contracts-upgradeable@4.9.2/access/AccessControlUpgradeable.sol\":4240:4247  hasRole */\n      tag_136\n        /* \"@openzeppelin/contracts-upgradeable@4.9.2/access/AccessControlUpgradeable.sol\":4240:4262  hasRole(role, account) */\n      jump\t// in\n    tag_465:\n        /* \"@openzeppelin/contracts-upgradeable@4.9.2/access/AccessControlUpgradeable.sol\":4235:4647  if (!hasRole(role, account)) {... */\n      tag_211\n      jumpi\n        /* \"@openzeppelin/contracts-upgradeable@4.9.2/access/AccessControlUpgradeable.sol\":4423:4462  StringsUpgradeable.toHexString(account) */\n      tag_467\n        /* \"@openzeppelin/contracts-upgradeable@4.9.2/access/AccessControlUpgradeable.sol\":4454:4461  account */\n      dup2\n        /* \"@openzeppelin/contracts-upgradeable@4.9.2/access/AccessControlUpgradeable.sol\":4423:4453  StringsUpgradeable.toHexString */\n      tag_468\n        /* \"@openzeppelin/contracts-upgradeable@4.9.2/access/AccessControlUpgradeable.sol\":4423:4462  StringsUpgradeable.toHexString(account) */\n      jump\t// in\n    tag_467:\n        /* \"@openzeppelin/contracts-upgradeable@4.9.2/access/AccessControlUpgradeable.sol\":4533:4582  StringsUpgradeable.toHexString(uint256(role), 32) */\n      tag_469\n        /* \"@openzeppelin/contracts-upgradeable@4.9.2/access/AccessControlUpgradeable.sol\":4572:4576  role */\n      dup4\n        /* \"@openzeppelin/contracts-upgradeable@4.9.2/access/AccessControlUpgradeable.sol\":4579:4581  32 */\n      0x20\n        /* \"@openzeppelin/contracts-upgradeable@4.9.2/access/AccessControlUpgradeable.sol\":4533:4563  StringsUpgradeable.toHexString */\n      tag_470\n        /* \"@openzeppelin/contracts-upgradeable@4.9.2/access/AccessControlUpgradeable.sol\":4533:4582  StringsUpgradeable.toHexString(uint256(role), 32) */\n      jump\t// in\n    tag_469:\n        /* \"@openzeppelin/contracts-upgradeable@4.9.2/access/AccessControlUpgradeable.sol\":4330:4604  abi.encodePacked(... */\n      add(0x20, mload(0x40))\n      tag_471\n      swap3\n      swap2\n      swap1\n      tag_472\n      jump\t// in\n    tag_471:\n      0x40\n      dup1\n      mload\n      not(0x1f)\n      dup2\n      dup5\n      sub\n      add\n      dup2\n      mstore\n      swap1\n      dup3\n      swap1\n      mstore\n      shl(0xe5, 0x461bcd)\n        /* \"@openzeppelin/contracts-upgradeable@4.9.2/access/AccessControlUpgradeable.sol\":4278:4636  revert(... */\n      dup3\n      mstore\n      tag_209\n      swap2\n      0x04\n      add\n      tag_49\n      jump\t// in\n        /* \"@openzeppelin/contracts-upgradeable@4.9.2/proxy/ERC1967/ERC1967UpgradeUpgradeable.sol\":1699:1980  function _setImplementation(address newImplementation) private {... */\n    tag_383:\n      sub(shl(0xa0, 0x01), 0x01)\n        /* \"@openzeppelin/contracts-upgradeable@4.9.2/utils/AddressUpgradeable.sol\":1713:1732  account.code.length */\n      dup2\n      and\n      extcodesize\n        /* \"@openzeppelin/contracts-upgradeable@4.9.2/proxy/ERC1967/ERC1967UpgradeUpgradeable.sol\":1772:1878  require(AddressUpgradeable.isContract(newImplementation), \"ERC1967: new implementation is not a contract\") */\n      tag_478\n      jumpi\n      mload(0x40)\n      shl(0xe5, 0x461bcd)\n      dup2\n      mstore\n        /* \"#utility.yul\":15756:15758   */\n      0x20\n        /* \"@openzeppelin/contracts-upgradeable@4.9.2/proxy/ERC1967/ERC1967UpgradeUpgradeable.sol\":1772:1878  require(AddressUpgradeable.isContract(newImplementation), \"ERC1967: new implementation is not a contract\") */\n      0x04\n      dup3\n      add\n        /* \"#utility.yul\":15738:15759   */\n      mstore\n        /* \"#utility.yul\":15795:15797   */\n      0x2d\n        /* \"#utility.yul\":15775:15793   */\n      0x24\n      dup3\n      add\n        /* \"#utility.yul\":15768:15798   */\n      mstore\n        /* \"#utility.yul\":15834:15868   */\n      0x455243313936373a206e657720696d706c656d656e746174696f6e206973206e\n        /* \"#utility.yul\":15814:15832   */\n      0x44\n      dup3\n      add\n        /* \"#utility.yul\":15807:15869   */\n      mstore\n      shl(0x9a, 0x1bdd08184818dbdb9d1c9858dd)\n        /* \"#utility.yul\":15885:15903   */\n      0x64\n      dup3\n      add\n        /* \"#utility.yul\":15878:15921   */\n      mstore\n        /* \"#utility.yul\":15938:15957   */\n      0x84\n      add\n        /* \"@openzeppelin/contracts-upgradeable@4.9.2/proxy/ERC1967/ERC1967UpgradeUpgradeable.sol\":1772:1878  require(AddressUpgradeable.isContract(newImplementation), \"ERC1967: new implementation is not a contract\") */\n      tag_209\n        /* \"#utility.yul\":15554:15963   */\n      jump\n        /* \"@openzeppelin/contracts-upgradeable@4.9.2/proxy/ERC1967/ERC1967UpgradeUpgradeable.sol\":1772:1878  require(AddressUpgradeable.isContract(newImplementation), \"ERC1967: new implementation is not a contract\") */\n    tag_478:\n      0x00\n      dup1\n      mload\n      0x20\n      data_75b20eef8615de99c108b05f0dbda081c91897128caa336d75dffb97c4132b4d\n      dup4\n      codecopy\n      dup2\n      mload\n      swap2\n      mstore\n        /* \"@openzeppelin/contracts-upgradeable@4.9.2/proxy/ERC1967/ERC1967UpgradeUpgradeable.sol\":1888:1973  StorageSlotUpgradeable.getAddressSlot(_IMPLEMENTATION_SLOT).value = newImplementation */\n      dup1\n      sload\n      not(sub(shl(0xa0, 0x01), 0x01))\n      and\n      sub(shl(0xa0, 0x01), 0x01)\n      swap3\n      swap1\n      swap3\n      and\n      swap2\n      swap1\n      swap2\n      or\n      swap1\n      sstore\n        /* \"@openzeppelin/contracts-upgradeable@4.9.2/proxy/ERC1967/ERC1967UpgradeUpgradeable.sol\":1699:1980  function _setImplementation(address newImplementation) private {... */\n      jump\t// out\n        /* \"@openzeppelin/contracts-upgradeable@4.9.2/proxy/ERC1967/ERC1967UpgradeUpgradeable.sol\":2372:2648  function _upgradeToAndCall(address newImplementation, bytes memory data, bool forceCall) internal {... */\n    tag_400:\n        /* \"@openzeppelin/contracts-upgradeable@4.9.2/proxy/ERC1967/ERC1967UpgradeUpgradeable.sol\":2480:2509  _upgradeTo(newImplementation) */\n      tag_483\n        /* \"@openzeppelin/contracts-upgradeable@4.9.2/proxy/ERC1967/ERC1967UpgradeUpgradeable.sol\":2491:2508  newImplementation */\n      dup4\n        /* \"@openzeppelin/contracts-upgradeable@4.9.2/proxy/ERC1967/ERC1967UpgradeUpgradeable.sol\":2480:2490  _upgradeTo */\n      tag_484\n        /* \"@openzeppelin/contracts-upgradeable@4.9.2/proxy/ERC1967/ERC1967UpgradeUpgradeable.sol\":2480:2509  _upgradeTo(newImplementation) */\n      jump\t// in\n    tag_483:\n        /* \"@openzeppelin/contracts-upgradeable@4.9.2/proxy/ERC1967/ERC1967UpgradeUpgradeable.sol\":2537:2538  0 */\n      0x00\n        /* \"@openzeppelin/contracts-upgradeable@4.9.2/proxy/ERC1967/ERC1967UpgradeUpgradeable.sol\":2523:2527  data */\n      dup3\n        /* \"@openzeppelin/contracts-upgradeable@4.9.2/proxy/ERC1967/ERC1967UpgradeUpgradeable.sol\":2523:2534  data.length */\n      mload\n        /* \"@openzeppelin/contracts-upgradeable@4.9.2/proxy/ERC1967/ERC1967UpgradeUpgradeable.sol\":2523:2538  data.length > 0 */\n      gt\n        /* \"@openzeppelin/contracts-upgradeable@4.9.2/proxy/ERC1967/ERC1967UpgradeUpgradeable.sol\":2523:2551  data.length > 0 || forceCall */\n      dup1\n      tag_485\n      jumpi\n      pop\n        /* \"@openzeppelin/contracts-upgradeable@4.9.2/proxy/ERC1967/ERC1967UpgradeUpgradeable.sol\":2542:2551  forceCall */\n      dup1\n        /* \"@openzeppelin/contracts-upgradeable@4.9.2/proxy/ERC1967/ERC1967UpgradeUpgradeable.sol\":2523:2551  data.length > 0 || forceCall */\n    tag_485:\n        /* \"@openzeppelin/contracts-upgradeable@4.9.2/proxy/ERC1967/ERC1967UpgradeUpgradeable.sol\":2519:2642  if (data.length > 0 || forceCall) {... */\n      iszero\n      tag_203\n      jumpi\n        /* \"@openzeppelin/contracts-upgradeable@4.9.2/proxy/ERC1967/ERC1967UpgradeUpgradeable.sol\":2567:2631  AddressUpgradeable.functionDelegateCall(newImplementation, data) */\n      tag_344\n        /* \"@openzeppelin/contracts-upgradeable@4.9.2/proxy/ERC1967/ERC1967UpgradeUpgradeable.sol\":2607:2624  newImplementation */\n      dup4\n        /* \"@openzeppelin/contracts-upgradeable@4.9.2/proxy/ERC1967/ERC1967UpgradeUpgradeable.sol\":2626:2630  data */\n      dup4\n        /* \"@openzeppelin/contracts-upgradeable@4.9.2/proxy/ERC1967/ERC1967UpgradeUpgradeable.sol\":2567:2606  AddressUpgradeable.functionDelegateCall */\n      tag_488\n        /* \"@openzeppelin/contracts-upgradeable@4.9.2/proxy/ERC1967/ERC1967UpgradeUpgradeable.sol\":2567:2631  AddressUpgradeable.functionDelegateCall(newImplementation, data) */\n      jump\t// in\n        /* \"@openzeppelin/contracts-upgradeable@4.9.2/security/PausableUpgradeable.sol\":2188:2294  function _requirePaused() internal view virtual {... */\n    tag_403:\n        /* \"@openzeppelin/contracts-upgradeable@4.9.2/security/PausableUpgradeable.sol\":1928:1935  _paused */\n      and(0xff, sload(0x97))\n        /* \"@openzeppelin/contracts-upgradeable@4.9.2/security/PausableUpgradeable.sol\":2246:2287  require(paused(), \"Pausable: not paused\") */\n      tag_427\n      jumpi\n      mload(0x40)\n      shl(0xe5, 0x461bcd)\n      dup2\n      mstore\n        /* \"#utility.yul\":16170:16172   */\n      0x20\n        /* \"@openzeppelin/contracts-upgradeable@4.9.2/security/PausableUpgradeable.sol\":2246:2287  require(paused(), \"Pausable: not paused\") */\n      0x04\n      dup3\n      add\n        /* \"#utility.yul\":16152:16173   */\n      mstore\n        /* \"#utility.yul\":16209:16211   */\n      0x14\n        /* \"#utility.yul\":16189:16207   */\n      0x24\n      dup3\n      add\n        /* \"#utility.yul\":16182:16212   */\n      mstore\n      shl(0x62, 0x14185d5cd8589b194e881b9bdd081c185d5cd959)\n        /* \"#utility.yul\":16228:16246   */\n      0x44\n      dup3\n      add\n        /* \"#utility.yul\":16221:16271   */\n      mstore\n        /* \"#utility.yul\":16288:16306   */\n      0x64\n      add\n        /* \"@openzeppelin/contracts-upgradeable@4.9.2/security/PausableUpgradeable.sol\":2246:2287  require(paused(), \"Pausable: not paused\") */\n      tag_209\n        /* \"#utility.yul\":15968:16312   */\n      jump\n        /* \"@openzeppelin/contracts-upgradeable@4.9.2/token/ERC20/ERC20Upgradeable.sol\":2271:2430  function __ERC20_init_unchained(string memory name_, string memory symbol_) internal onlyInitializing {... */\n    tag_425:\n        /* \"@openzeppelin/contracts-upgradeable@4.9.2/proxy/utils/Initializable.sol\":5374:5387  _initializing */\n      sload(0x00)\n      0x0100\n      swap1\n      div\n      0xff\n      and\n        /* \"@openzeppelin/contracts-upgradeable@4.9.2/proxy/utils/Initializable.sol\":5366:5435  require(_initializing, \"Initializable: contract is not initializing\") */\n      tag_495\n      jumpi\n      mload(0x40)\n      shl(0xe5, 0x461bcd)\n      dup2\n      mstore\n      0x04\n      add\n      tag_209\n      swap1\n      tag_422\n      jump\t// in\n    tag_495:\n        /* \"@openzeppelin/contracts-upgradeable@4.9.2/token/ERC20/ERC20Upgradeable.sol\":2383:2396  _name = name_ */\n      dup2\n      mload\n      tag_498\n      swap1\n        /* \"@openzeppelin/contracts-upgradeable@4.9.2/token/ERC20/ERC20Upgradeable.sol\":2383:2388  _name */\n      0x36\n      swap1\n        /* \"@openzeppelin/contracts-upgradeable@4.9.2/token/ERC20/ERC20Upgradeable.sol\":2383:2396  _name = name_ */\n      0x20\n      dup6\n      add\n      swap1\n      tag_499\n      jump\t// in\n    tag_498:\n      pop\n        /* \"@openzeppelin/contracts-upgradeable@4.9.2/token/ERC20/ERC20Upgradeable.sol\":2406:2423  _symbol = symbol_ */\n      dup1\n      mload\n      tag_203\n      swap1\n        /* \"@openzeppelin/contracts-upgradeable@4.9.2/token/ERC20/ERC20Upgradeable.sol\":2406:2413  _symbol */\n      0x37\n      swap1\n        /* \"@openzeppelin/contracts-upgradeable@4.9.2/token/ERC20/ERC20Upgradeable.sol\":2406:2423  _symbol = symbol_ */\n      0x20\n      dup5\n      add\n      swap1\n      tag_499\n      jump\t// in\n        /* \"@openzeppelin/contracts-upgradeable@4.9.2/security/PausableUpgradeable.sol\":1166:1261  function __Pausable_init_unchained() internal onlyInitializing {... */\n    tag_435:\n        /* \"@openzeppelin/contracts-upgradeable@4.9.2/proxy/utils/Initializable.sol\":5374:5387  _initializing */\n      sload(0x00)\n      0x0100\n      swap1\n      div\n      0xff\n      and\n        /* \"@openzeppelin/contracts-upgradeable@4.9.2/proxy/utils/Initializable.sol\":5366:5435  require(_initializing, \"Initializable: contract is not initializing\") */\n      tag_502\n      jumpi\n      mload(0x40)\n      shl(0xe5, 0x461bcd)\n      dup2\n      mstore\n      0x04\n      add\n      tag_209\n      swap1\n      tag_422\n      jump\t// in\n    tag_502:\n        /* \"@openzeppelin/contracts-upgradeable@4.9.2/security/PausableUpgradeable.sol\":1239:1246  _paused */\n      0x97\n        /* \"@openzeppelin/contracts-upgradeable@4.9.2/security/PausableUpgradeable.sol\":1239:1254  _paused = false */\n      dup1\n      sload\n      not(0xff)\n      and\n      swap1\n      sstore\n        /* \"@openzeppelin/contracts-upgradeable@4.9.2/security/PausableUpgradeable.sol\":1166:1261  function __Pausable_init_unchained() internal onlyInitializing {... */\n      jump\t// out\n        /* \"@openzeppelin/contracts-upgradeable@4.9.2/security/PausableUpgradeable.sol\":2010:2116  function _requireNotPaused() internal view virtual {... */\n    tag_454:\n        /* \"@openzeppelin/contracts-upgradeable@4.9.2/security/PausableUpgradeable.sol\":1928:1935  _paused */\n      and(0xff, sload(0x97))\n        /* \"@openzeppelin/contracts-upgradeable@4.9.2/security/PausableUpgradeable.sol\":2079:2088  !paused() */\n      iszero\n        /* \"@openzeppelin/contracts-upgradeable@4.9.2/security/PausableUpgradeable.sol\":2071:2109  require(!paused(), \"Pausable: paused\") */\n      tag_427\n      jumpi\n      mload(0x40)\n      shl(0xe5, 0x461bcd)\n      dup2\n      mstore\n        /* \"#utility.yul\":16519:16521   */\n      0x20\n        /* \"@openzeppelin/contracts-upgradeable@4.9.2/security/PausableUpgradeable.sol\":2071:2109  require(!paused(), \"Pausable: paused\") */\n      0x04\n      dup3\n      add\n        /* \"#utility.yul\":16501:16522   */\n      mstore\n        /* \"#utility.yul\":16558:16560   */\n      0x10\n        /* \"#utility.yul\":16538:16556   */\n      0x24\n      dup3\n      add\n        /* \"#utility.yul\":16531:16561   */\n      mstore\n      shl(0x82, 0x14185d5cd8589b194e881c185d5cd959)\n        /* \"#utility.yul\":16577:16595   */\n      0x44\n      dup3\n      add\n        /* \"#utility.yul\":16570:16616   */\n      mstore\n        /* \"#utility.yul\":16633:16651   */\n      0x64\n      add\n        /* \"@openzeppelin/contracts-upgradeable@4.9.2/security/PausableUpgradeable.sol\":2071:2109  require(!paused(), \"Pausable: paused\") */\n      tag_209\n        /* \"#utility.yul\":16317:16657   */\n      jump\n        /* \"@openzeppelin/contracts-upgradeable@4.9.2/utils/StringsUpgradeable.sol\":2473:2622  function toHexString(address addr) internal pure returns (string memory) {... */\n    tag_468:\n        /* \"@openzeppelin/contracts-upgradeable@4.9.2/utils/StringsUpgradeable.sol\":2531:2544  string memory */\n      0x60\n        /* \"@openzeppelin/contracts-upgradeable@4.9.2/utils/StringsUpgradeable.sol\":2563:2615  toHexString(uint256(uint160(addr)), _ADDRESS_LENGTH) */\n      tag_176\n      sub(shl(0xa0, 0x01), 0x01)\n        /* \"@openzeppelin/contracts-upgradeable@4.9.2/utils/StringsUpgradeable.sol\":2575:2597  uint256(uint160(addr)) */\n      dup4\n      and\n        /* \"@openzeppelin/contracts-upgradeable@4.9.2/utils/StringsUpgradeable.sol\":376:378  20 */\n      0x14\n        /* \"@openzeppelin/contracts-upgradeable@4.9.2/utils/StringsUpgradeable.sol\":1884:2321  function toHexString(uint256 value, uint256 length) internal pure returns (string memory) {... */\n    tag_470:\n        /* \"@openzeppelin/contracts-upgradeable@4.9.2/utils/StringsUpgradeable.sol\":1959:1972  string memory */\n      0x60\n        /* \"@openzeppelin/contracts-upgradeable@4.9.2/utils/StringsUpgradeable.sol\":1984:2003  bytes memory buffer */\n      0x00\n        /* \"@openzeppelin/contracts-upgradeable@4.9.2/utils/StringsUpgradeable.sol\":2016:2026  2 * length */\n      tag_514\n        /* \"@openzeppelin/contracts-upgradeable@4.9.2/utils/StringsUpgradeable.sol\":2020:2026  length */\n      dup4\n        /* \"@openzeppelin/contracts-upgradeable@4.9.2/utils/StringsUpgradeable.sol\":2016:2017  2 */\n      0x02\n        /* \"@openzeppelin/contracts-upgradeable@4.9.2/utils/StringsUpgradeable.sol\":2016:2026  2 * length */\n      tag_294\n      jump\t// in\n    tag_514:\n        /* \"@openzeppelin/contracts-upgradeable@4.9.2/utils/StringsUpgradeable.sol\":2016:2030  2 * length + 2 */\n      tag_515\n      swap1\n        /* \"@openzeppelin/contracts-upgradeable@4.9.2/utils/StringsUpgradeable.sol\":2029:2030  2 */\n      0x02\n        /* \"@openzeppelin/contracts-upgradeable@4.9.2/utils/StringsUpgradeable.sol\":2016:2030  2 * length + 2 */\n      tag_236\n      jump\t// in\n    tag_515:\n        /* \"@openzeppelin/contracts-upgradeable@4.9.2/utils/StringsUpgradeable.sol\":2006:2031  new bytes(2 * length + 2) */\n      0xffffffffffffffff\n      dup2\n      gt\n      iszero\n      tag_517\n      jumpi\n      tag_517\n      tag_228\n      jump\t// in\n    tag_517:\n      mload(0x40)\n      swap1\n      dup1\n      dup3\n      mstore\n      dup1\n      0x1f\n      add\n      not(0x1f)\n      and\n      0x20\n      add\n      dup3\n      add\n      0x40\n      mstore\n      dup1\n      iszero\n      tag_518\n      jumpi\n      0x20\n      dup3\n      add\n      dup2\n      dup1\n      calldatasize\n      dup4\n      calldatacopy\n      add\n      swap1\n      pop\n    tag_518:\n      pop\n        /* \"@openzeppelin/contracts-upgradeable@4.9.2/utils/StringsUpgradeable.sol\":1984:2031  bytes memory buffer = new bytes(2 * length + 2) */\n      swap1\n      pop\n      shl(0xfc, 0x03)\n        /* \"@openzeppelin/contracts-upgradeable@4.9.2/utils/StringsUpgradeable.sol\":2041:2047  buffer */\n      dup2\n        /* \"@openzeppelin/contracts-upgradeable@4.9.2/utils/StringsUpgradeable.sol\":2048:2049  0 */\n      0x00\n        /* \"@openzeppelin/contracts-upgradeable@4.9.2/utils/StringsUpgradeable.sol\":2041:2050  buffer[0] */\n      dup2\n      mload\n      dup2\n      lt\n      tag_520\n      jumpi\n      tag_520\n      tag_521\n      jump\t// in\n    tag_520:\n      0x20\n      add\n      add\n        /* \"@openzeppelin/contracts-upgradeable@4.9.2/utils/StringsUpgradeable.sol\":2041:2056  buffer[0] = \"0\" */\n      swap1\n      not(sub(shl(0xf8, 0x01), 0x01))\n      and\n      swap1\n      dup2\n      0x00\n      byte\n      swap1\n      mstore8\n      pop\n      shl(0xfb, 0x0f)\n        /* \"@openzeppelin/contracts-upgradeable@4.9.2/utils/StringsUpgradeable.sol\":2066:2072  buffer */\n      dup2\n        /* \"@openzeppelin/contracts-upgradeable@4.9.2/utils/StringsUpgradeable.sol\":2073:2074  1 */\n      0x01\n        /* \"@openzeppelin/contracts-upgradeable@4.9.2/utils/StringsUpgradeable.sol\":2066:2075  buffer[1] */\n      dup2\n      mload\n      dup2\n      lt\n      tag_523\n      jumpi\n      tag_523\n      tag_521\n      jump\t// in\n    tag_523:\n      0x20\n      add\n      add\n        /* \"@openzeppelin/contracts-upgradeable@4.9.2/utils/StringsUpgradeable.sol\":2066:2081  buffer[1] = \"x\" */\n      swap1\n      not(sub(shl(0xf8, 0x01), 0x01))\n      and\n      swap1\n      dup2\n      0x00\n      byte\n      swap1\n      mstore8\n      pop\n        /* \"@openzeppelin/contracts-upgradeable@4.9.2/utils/StringsUpgradeable.sol\":2096:2105  uint256 i */\n      0x00\n        /* \"@openzeppelin/contracts-upgradeable@4.9.2/utils/StringsUpgradeable.sol\":2108:2118  2 * length */\n      tag_527\n        /* \"@openzeppelin/contracts-upgradeable@4.9.2/utils/StringsUpgradeable.sol\":2112:2118  length */\n      dup5\n        /* \"@openzeppelin/contracts-upgradeable@4.9.2/utils/StringsUpgradeable.sol\":2108:2109  2 */\n      0x02\n        /* \"@openzeppelin/contracts-upgradeable@4.9.2/utils/StringsUpgradeable.sol\":2108:2118  2 * length */\n      tag_294\n      jump\t// in\n    tag_527:\n        /* \"@openzeppelin/contracts-upgradeable@4.9.2/utils/StringsUpgradeable.sol\":2108:2122  2 * length + 1 */\n      tag_528\n      swap1\n        /* \"@openzeppelin/contracts-upgradeable@4.9.2/utils/StringsUpgradeable.sol\":2121:2122  1 */\n      0x01\n        /* \"@openzeppelin/contracts-upgradeable@4.9.2/utils/StringsUpgradeable.sol\":2108:2122  2 * length + 1 */\n      tag_236\n      jump\t// in\n    tag_528:\n        /* \"@openzeppelin/contracts-upgradeable@4.9.2/utils/StringsUpgradeable.sol\":2096:2122  uint256 i = 2 * length + 1 */\n      swap1\n      pop\n        /* \"@openzeppelin/contracts-upgradeable@4.9.2/utils/StringsUpgradeable.sol\":2091:2219  for (uint256 i = 2 * length + 1; i > 1; --i) {... */\n    tag_524:\n        /* \"@openzeppelin/contracts-upgradeable@4.9.2/utils/StringsUpgradeable.sol\":2128:2129  1 */\n      0x01\n        /* \"@openzeppelin/contracts-upgradeable@4.9.2/utils/StringsUpgradeable.sol\":2124:2125  i */\n      dup2\n        /* \"@openzeppelin/contracts-upgradeable@4.9.2/utils/StringsUpgradeable.sol\":2124:2129  i > 1 */\n      gt\n        /* \"@openzeppelin/contracts-upgradeable@4.9.2/utils/StringsUpgradeable.sol\":2091:2219  for (uint256 i = 2 * length + 1; i > 1; --i) {... */\n      iszero\n      tag_525\n      jumpi\n      shl(0x81, 0x181899199a1a9b1b9c1cb0b131b232b3)\n        /* \"@openzeppelin/contracts-upgradeable@4.9.2/utils/StringsUpgradeable.sol\":2171:2176  value */\n      dup6\n        /* \"@openzeppelin/contracts-upgradeable@4.9.2/utils/StringsUpgradeable.sol\":2179:2182  0xf */\n      0x0f\n        /* \"@openzeppelin/contracts-upgradeable@4.9.2/utils/StringsUpgradeable.sol\":2171:2182  value & 0xf */\n      and\n        /* \"@openzeppelin/contracts-upgradeable@4.9.2/utils/StringsUpgradeable.sol\":2162:2183  _SYMBOLS[value & 0xf] */\n      0x10\n      dup2\n      lt\n      tag_530\n      jumpi\n      tag_530\n      tag_521\n      jump\t// in\n    tag_530:\n      byte\n      0xf8\n      shl\n        /* \"@openzeppelin/contracts-upgradeable@4.9.2/utils/StringsUpgradeable.sol\":2150:2156  buffer */\n      dup3\n        /* \"@openzeppelin/contracts-upgradeable@4.9.2/utils/StringsUpgradeable.sol\":2157:2158  i */\n      dup3\n        /* \"@openzeppelin/contracts-upgradeable@4.9.2/utils/StringsUpgradeable.sol\":2150:2159  buffer[i] */\n      dup2\n      mload\n      dup2\n      lt\n      tag_532\n      jumpi\n      tag_532\n      tag_521\n      jump\t// in\n    tag_532:\n      0x20\n      add\n      add\n        /* \"@openzeppelin/contracts-upgradeable@4.9.2/utils/StringsUpgradeable.sol\":2150:2183  buffer[i] = _SYMBOLS[value & 0xf] */\n      swap1\n      not(sub(shl(0xf8, 0x01), 0x01))\n      and\n      swap1\n      dup2\n      0x00\n      byte\n      swap1\n      mstore8\n      pop\n        /* \"@openzeppelin/contracts-upgradeable@4.9.2/utils/StringsUpgradeable.sol\":2207:2208  4 */\n      0x04\n        /* \"@openzeppelin/contracts-upgradeable@4.9.2/utils/StringsUpgradeable.sol\":2197:2208  value >>= 4 */\n      swap5\n      swap1\n      swap5\n      shr\n      swap4\n        /* \"@openzeppelin/contracts-upgradeable@4.9.2/utils/StringsUpgradeable.sol\":2131:2134  --i */\n      tag_533\n      dup2\n      tag_534\n      jump\t// in\n    tag_533:\n      swap1\n      pop\n        /* \"@openzeppelin/contracts-upgradeable@4.9.2/utils/StringsUpgradeable.sol\":2091:2219  for (uint256 i = 2 * length + 1; i > 1; --i) {... */\n      jump(tag_524)\n    tag_525:\n      pop\n        /* \"@openzeppelin/contracts-upgradeable@4.9.2/utils/StringsUpgradeable.sol\":2236:2246  value == 0 */\n      dup4\n      iszero\n        /* \"@openzeppelin/contracts-upgradeable@4.9.2/utils/StringsUpgradeable.sol\":2228:2283  require(value == 0, \"Strings: hex length insufficient\") */\n      tag_535\n      jumpi\n      mload(0x40)\n      shl(0xe5, 0x461bcd)\n      dup2\n      mstore\n        /* \"#utility.yul\":17137:17139   */\n      0x20\n        /* \"@openzeppelin/contracts-upgradeable@4.9.2/utils/StringsUpgradeable.sol\":2228:2283  require(value == 0, \"Strings: hex length insufficient\") */\n      0x04\n      dup3\n      add\n        /* \"#utility.yul\":17119:17140   */\n      dup2\n      swap1\n      mstore\n        /* \"#utility.yul\":17156:17174   */\n      0x24\n      dup3\n      add\n        /* \"#utility.yul\":17149:17179   */\n      mstore\n        /* \"#utility.yul\":17215:17249   */\n      0x537472696e67733a20686578206c656e67746820696e73756666696369656e74\n        /* \"#utility.yul\":17195:17213   */\n      0x44\n      dup3\n      add\n        /* \"#utility.yul\":17188:17250   */\n      mstore\n        /* \"#utility.yul\":17267:17285   */\n      0x64\n      add\n        /* \"@openzeppelin/contracts-upgradeable@4.9.2/utils/StringsUpgradeable.sol\":2228:2283  require(value == 0, \"Strings: hex length insufficient\") */\n      tag_209\n        /* \"#utility.yul\":16935:17291   */\n      jump\n        /* \"@openzeppelin/contracts-upgradeable@4.9.2/utils/StringsUpgradeable.sol\":2228:2283  require(value == 0, \"Strings: hex length insufficient\") */\n    tag_535:\n        /* \"@openzeppelin/contracts-upgradeable@4.9.2/utils/StringsUpgradeable.sol\":2307:2313  buffer */\n      swap4\n        /* \"@openzeppelin/contracts-upgradeable@4.9.2/utils/StringsUpgradeable.sol\":1884:2321  function toHexString(uint256 value, uint256 length) internal pure returns (string memory) {... */\n      swap3\n      pop\n      pop\n      pop\n      jump\t// out\n        /* \"@openzeppelin/contracts-upgradeable@4.9.2/proxy/ERC1967/ERC1967UpgradeUpgradeable.sol\":2086:2238  function _upgradeTo(address newImplementation) internal {... */\n    tag_484:\n        /* \"@openzeppelin/contracts-upgradeable@4.9.2/proxy/ERC1967/ERC1967UpgradeUpgradeable.sol\":2152:2189  _setImplementation(newImplementation) */\n      tag_539\n        /* \"@openzeppelin/contracts-upgradeable@4.9.2/proxy/ERC1967/ERC1967UpgradeUpgradeable.sol\":2171:2188  newImplementation */\n      dup2\n        /* \"@openzeppelin/contracts-upgradeable@4.9.2/proxy/ERC1967/ERC1967UpgradeUpgradeable.sol\":2152:2170  _setImplementation */\n      tag_383\n        /* \"@openzeppelin/contracts-upgradeable@4.9.2/proxy/ERC1967/ERC1967UpgradeUpgradeable.sol\":2152:2189  _setImplementation(newImplementation) */\n      jump\t// in\n    tag_539:\n        /* \"@openzeppelin/contracts-upgradeable@4.9.2/proxy/ERC1967/ERC1967UpgradeUpgradeable.sol\":2204:2231  Upgraded(newImplementation) */\n      mload(0x40)\n      sub(shl(0xa0, 0x01), 0x01)\n      dup3\n      and\n      swap1\n      0xbc7cd75a20ee27fd9adebab32041f755214dbc6bffa90cc0225b39da2e5c2d3b\n      swap1\n      0x00\n      swap1\n      log2\n        /* \"@openzeppelin/contracts-upgradeable@4.9.2/proxy/ERC1967/ERC1967UpgradeUpgradeable.sol\":2086:2238  function _upgradeTo(address newImplementation) internal {... */\n      pop\n      jump\t// out\n        /* \"@openzeppelin/contracts-upgradeable@4.9.2/utils/AddressUpgradeable.sol\":6685:6883  function functionDelegateCall(address target, bytes memory data) internal returns (bytes memory) {... */\n    tag_488:\n        /* \"@openzeppelin/contracts-upgradeable@4.9.2/utils/AddressUpgradeable.sol\":6768:6780  bytes memory */\n      0x60\n        /* \"@openzeppelin/contracts-upgradeable@4.9.2/utils/AddressUpgradeable.sol\":6799:6876  functionDelegateCall(target, data, \"Address: low-level delegate call failed\") */\n      tag_535\n        /* \"@openzeppelin/contracts-upgradeable@4.9.2/utils/AddressUpgradeable.sol\":6820:6826  target */\n      dup4\n        /* \"@openzeppelin/contracts-upgradeable@4.9.2/utils/AddressUpgradeable.sol\":6828:6832  data */\n      dup4\n        /* \"@openzeppelin/contracts-upgradeable@4.9.2/utils/AddressUpgradeable.sol\":6799:6876  functionDelegateCall(target, data, \"Address: low-level delegate call failed\") */\n      mload(0x40)\n      dup1\n      0x60\n      add\n      0x40\n      mstore\n      dup1\n      0x27\n      dup2\n      mstore\n      0x20\n      add\n      data_9fdcd12e4b726339b32a442b0a448365d5d85c96b2d2cff917b4f66c63110398\n      0x27\n      swap2\n      codecopy\n        /* \"@openzeppelin/contracts-upgradeable@4.9.2/utils/AddressUpgradeable.sol\":7210:7222  bytes memory */\n      0x60\n        /* \"@openzeppelin/contracts-upgradeable@4.9.2/utils/AddressUpgradeable.sol\":7235:7247  bool success */\n      0x00\n        /* \"@openzeppelin/contracts-upgradeable@4.9.2/utils/AddressUpgradeable.sol\":7249:7272  bytes memory returndata */\n      dup1\n        /* \"@openzeppelin/contracts-upgradeable@4.9.2/utils/AddressUpgradeable.sol\":7276:7282  target */\n      dup6\n      sub(shl(0xa0, 0x01), 0x01)\n        /* \"@openzeppelin/contracts-upgradeable@4.9.2/utils/AddressUpgradeable.sol\":7276:7295  target.delegatecall */\n      and\n        /* \"@openzeppelin/contracts-upgradeable@4.9.2/utils/AddressUpgradeable.sol\":7296:7300  data */\n      dup6\n        /* \"@openzeppelin/contracts-upgradeable@4.9.2/utils/AddressUpgradeable.sol\":7276:7301  target.delegatecall(data) */\n      mload(0x40)\n      tag_544\n      swap2\n      swap1\n      tag_545\n      jump\t// in\n    tag_544:\n      0x00\n      mload(0x40)\n      dup1\n      dup4\n      sub\n      dup2\n      dup6\n      gas\n      delegatecall\n      swap2\n      pop\n      pop\n      returndatasize\n      dup1\n      0x00\n      dup2\n      eq\n      tag_548\n      jumpi\n      mload(0x40)\n      swap2\n      pop\n      and(add(returndatasize, 0x3f), not(0x1f))\n      dup3\n      add\n      0x40\n      mstore\n      returndatasize\n      dup3\n      mstore\n      returndatasize\n      0x00\n      0x20\n      dup5\n      add\n      returndatacopy\n      jump(tag_547)\n    tag_548:\n      0x60\n      swap2\n      pop\n    tag_547:\n      pop\n        /* \"@openzeppelin/contracts-upgradeable@4.9.2/utils/AddressUpgradeable.sol\":7234:7301  (bool success, bytes memory returndata) = target.delegatecall(data) */\n      swap2\n      pop\n      swap2\n      pop\n        /* \"@openzeppelin/contracts-upgradeable@4.9.2/utils/AddressUpgradeable.sol\":7318:7387  verifyCallResultFromTarget(target, success, returndata, errorMessage) */\n      tag_549\n        /* \"@openzeppelin/contracts-upgradeable@4.9.2/utils/AddressUpgradeable.sol\":7345:7351  target */\n      dup7\n        /* \"@openzeppelin/contracts-upgradeable@4.9.2/utils/AddressUpgradeable.sol\":7353:7360  success */\n      dup4\n        /* \"@openzeppelin/contracts-upgradeable@4.9.2/utils/AddressUpgradeable.sol\":7362:7372  returndata */\n      dup4\n        /* \"@openzeppelin/contracts-upgradeable@4.9.2/utils/AddressUpgradeable.sol\":7374:7386  errorMessage */\n      dup8\n        /* \"@openzeppelin/contracts-upgradeable@4.9.2/utils/AddressUpgradeable.sol\":7318:7344  verifyCallResultFromTarget */\n      tag_550\n        /* \"@openzeppelin/contracts-upgradeable@4.9.2/utils/AddressUpgradeable.sol\":7318:7387  verifyCallResultFromTarget(target, success, returndata, errorMessage) */\n      jump\t// in\n    tag_549:\n        /* \"@openzeppelin/contracts-upgradeable@4.9.2/utils/AddressUpgradeable.sol\":7311:7387  return verifyCallResultFromTarget(target, success, returndata, errorMessage) */\n      swap7\n        /* \"@openzeppelin/contracts-upgradeable@4.9.2/utils/AddressUpgradeable.sol\":7069:7394  function functionDelegateCall(... */\n      swap6\n      pop\n      pop\n      pop\n      pop\n      pop\n      pop\n      jump\t// out\n        /* \"@openzeppelin/contracts-upgradeable@4.9.2/utils/AddressUpgradeable.sol\":7682:8310  function verifyCallResultFromTarget(... */\n    tag_550:\n        /* \"@openzeppelin/contracts-upgradeable@4.9.2/utils/AddressUpgradeable.sol\":7862:7874  bytes memory */\n      0x60\n        /* \"@openzeppelin/contracts-upgradeable@4.9.2/utils/AddressUpgradeable.sol\":7890:7897  success */\n      dup4\n        /* \"@openzeppelin/contracts-upgradeable@4.9.2/utils/AddressUpgradeable.sol\":7886:8304  if (success) {... */\n      iszero\n      tag_552\n      jumpi\n        /* \"@openzeppelin/contracts-upgradeable@4.9.2/utils/AddressUpgradeable.sol\":7917:7934  returndata.length */\n      dup3\n      mload\n        /* \"@openzeppelin/contracts-upgradeable@4.9.2/utils/AddressUpgradeable.sol\":7913:8199  if (returndata.length == 0) {... */\n      tag_555\n      jumpi\n      sub(shl(0xa0, 0x01), 0x01)\n        /* \"@openzeppelin/contracts-upgradeable@4.9.2/utils/AddressUpgradeable.sol\":1713:1732  account.code.length */\n      dup6\n      and\n      extcodesize\n        /* \"@openzeppelin/contracts-upgradeable@4.9.2/utils/AddressUpgradeable.sol\":8124:8184  require(isContract(target), \"Address: call to non-contract\") */\n      tag_555\n      jumpi\n      mload(0x40)\n      shl(0xe5, 0x461bcd)\n      dup2\n      mstore\n        /* \"#utility.yul\":17777:17779   */\n      0x20\n        /* \"@openzeppelin/contracts-upgradeable@4.9.2/utils/AddressUpgradeable.sol\":8124:8184  require(isContract(target), \"Address: call to non-contract\") */\n      0x04\n      dup3\n      add\n        /* \"#utility.yul\":17759:17780   */\n      mstore\n        /* \"#utility.yul\":17816:17818   */\n      0x1d\n        /* \"#utility.yul\":17796:17814   */\n      0x24\n      dup3\n      add\n        /* \"#utility.yul\":17789:17819   */\n      mstore\n        /* \"#utility.yul\":17855:17886   */\n      0x416464726573733a2063616c6c20746f206e6f6e2d636f6e7472616374000000\n        /* \"#utility.yul\":17835:17853   */\n      0x44\n      dup3\n      add\n        /* \"#utility.yul\":17828:17887   */\n      mstore\n        /* \"#utility.yul\":17904:17922   */\n      0x64\n      add\n        /* \"@openzeppelin/contracts-upgradeable@4.9.2/utils/AddressUpgradeable.sol\":8124:8184  require(isContract(target), \"Address: call to non-contract\") */\n      tag_209\n        /* \"#utility.yul\":17575:17928   */\n      jump\n        /* \"@openzeppelin/contracts-upgradeable@4.9.2/utils/AddressUpgradeable.sol\":8124:8184  require(isContract(target), \"Address: call to non-contract\") */\n    tag_555:\n      pop\n        /* \"@openzeppelin/contracts-upgradeable@4.9.2/utils/AddressUpgradeable.sol\":8219:8229  returndata */\n      dup2\n        /* \"@openzeppelin/contracts-upgradeable@4.9.2/utils/AddressUpgradeable.sol\":8212:8229  return returndata */\n      jump(tag_559)\n        /* \"@openzeppelin/contracts-upgradeable@4.9.2/utils/AddressUpgradeable.sol\":7886:8304  if (success) {... */\n    tag_552:\n        /* \"@openzeppelin/contracts-upgradeable@4.9.2/utils/AddressUpgradeable.sol\":8260:8293  _revert(returndata, errorMessage) */\n      tag_559\n        /* \"@openzeppelin/contracts-upgradeable@4.9.2/utils/AddressUpgradeable.sol\":8268:8278  returndata */\n      dup4\n        /* \"@openzeppelin/contracts-upgradeable@4.9.2/utils/AddressUpgradeable.sol\":8280:8292  errorMessage */\n      dup4\n        /* \"@openzeppelin/contracts-upgradeable@4.9.2/utils/AddressUpgradeable.sol\":8260:8267  _revert */\n      tag_560\n        /* \"@openzeppelin/contracts-upgradeable@4.9.2/utils/AddressUpgradeable.sol\":8260:8293  _revert(returndata, errorMessage) */\n      jump\t// in\n    tag_559:\n        /* \"@openzeppelin/contracts-upgradeable@4.9.2/utils/AddressUpgradeable.sol\":7682:8310  function verifyCallResultFromTarget(... */\n      swap5\n      swap4\n      pop\n      pop\n      pop\n      pop\n      jump\t// out\n        /* \"@openzeppelin/contracts-upgradeable@4.9.2/utils/AddressUpgradeable.sol\":8832:9372  function _revert(bytes memory returndata, string memory errorMessage) private pure {... */\n    tag_560:\n        /* \"@openzeppelin/contracts-upgradeable@4.9.2/utils/AddressUpgradeable.sol\":8991:9008  returndata.length */\n      dup2\n      mload\n        /* \"@openzeppelin/contracts-upgradeable@4.9.2/utils/AddressUpgradeable.sol\":8991:9012  returndata.length > 0 */\n      iszero\n        /* \"@openzeppelin/contracts-upgradeable@4.9.2/utils/AddressUpgradeable.sol\":8987:9366  if (returndata.length > 0) {... */\n      tag_562\n      jumpi\n        /* \"@openzeppelin/contracts-upgradeable@4.9.2/utils/AddressUpgradeable.sol\":9219:9229  returndata */\n      dup2\n        /* \"@openzeppelin/contracts-upgradeable@4.9.2/utils/AddressUpgradeable.sol\":9213:9230  mload(returndata) */\n      mload\n        /* \"@openzeppelin/contracts-upgradeable@4.9.2/utils/AddressUpgradeable.sol\":9275:9290  returndata_size */\n      dup1\n        /* \"@openzeppelin/contracts-upgradeable@4.9.2/utils/AddressUpgradeable.sol\":9262:9272  returndata */\n      dup4\n        /* \"@openzeppelin/contracts-upgradeable@4.9.2/utils/AddressUpgradeable.sol\":9258:9260  32 */\n      0x20\n        /* \"@openzeppelin/contracts-upgradeable@4.9.2/utils/AddressUpgradeable.sol\":9254:9273  add(32, returndata) */\n      add\n        /* \"@openzeppelin/contracts-upgradeable@4.9.2/utils/AddressUpgradeable.sol\":9247:9291  revert(add(32, returndata), returndata_size) */\n      revert\n        /* \"@openzeppelin/contracts-upgradeable@4.9.2/utils/AddressUpgradeable.sol\":8987:9366  if (returndata.length > 0) {... */\n    tag_562:\n        /* \"@openzeppelin/contracts-upgradeable@4.9.2/utils/AddressUpgradeable.sol\":9342:9354  errorMessage */\n      dup1\n        /* \"@openzeppelin/contracts-upgradeable@4.9.2/utils/AddressUpgradeable.sol\":9335:9355  revert(errorMessage) */\n      mload(0x40)\n      shl(0xe5, 0x461bcd)\n      dup2\n      mstore\n      0x04\n      add\n      tag_209\n      swap2\n      swap1\n      tag_49\n      jump\t// in\n    tag_499:\n      dup3\n      dup1\n      sload\n      tag_565\n      swap1\n      tag_180\n      jump\t// in\n    tag_565:\n      swap1\n      0x00\n      mstore\n      keccak256(0x00, 0x20)\n      swap1\n      0x1f\n      add\n      0x20\n      swap1\n      div\n      dup2\n      add\n      swap3\n      dup3\n      tag_567\n      jumpi\n      0x00\n      dup6\n      sstore\n      jump(tag_570)\n    tag_567:\n      dup3\n      0x1f\n      lt\n      tag_568\n      jumpi\n      dup1\n      mload\n      not(0xff)\n      and\n      dup4\n      dup1\n      add\n      or\n      dup6\n      sstore\n      jump(tag_570)\n    tag_568:\n      dup3\n      dup1\n      add\n      0x01\n      add\n      dup6\n      sstore\n      dup3\n      iszero\n      tag_570\n      jumpi\n      swap2\n      dup3\n      add\n    tag_569:\n      dup3\n      dup2\n      gt\n      iszero\n      tag_570\n      jumpi\n      dup3\n      mload\n      dup3\n      sstore\n      swap2\n      0x20\n      add\n      swap2\n      swap1\n      0x01\n      add\n      swap1\n      jump(tag_569)\n    tag_570:\n      pop\n      tag_571\n      swap3\n      swap2\n      pop\n      tag_572\n      jump\t// in\n    tag_571:\n      pop\n      swap1\n      jump\t// out\n    tag_572:\n    tag_573:\n      dup1\n      dup3\n      gt\n      iszero\n      tag_571\n      jumpi\n      0x00\n      dup2\n      sstore\n      0x01\n      add\n      jump(tag_573)\n        /* \"#utility.yul\":14:300   */\n    tag_41:\n        /* \"#utility.yul\":72:78   */\n      0x00\n        /* \"#utility.yul\":125:127   */\n      0x20\n        /* \"#utility.yul\":113:122   */\n      dup3\n        /* \"#utility.yul\":104:111   */\n      dup5\n        /* \"#utility.yul\":100:123   */\n      sub\n        /* \"#utility.yul\":96:128   */\n      slt\n        /* \"#utility.yul\":93:145   */\n      iszero\n      tag_582\n      jumpi\n        /* \"#utility.yul\":141:142   */\n      0x00\n        /* \"#utility.yul\":138:139   */\n      dup1\n        /* \"#utility.yul\":131:143   */\n      revert\n        /* \"#utility.yul\":93:145   */\n    tag_582:\n        /* \"#utility.yul\":167:190   */\n      dup2\n      calldataload\n      not(sub(shl(0xe0, 0x01), 0x01))\n        /* \"#utility.yul\":219:251   */\n      dup2\n      and\n        /* \"#utility.yul\":209:252   */\n      dup2\n      eq\n        /* \"#utility.yul\":199:270   */\n      tag_535\n      jumpi\n        /* \"#utility.yul\":266:267   */\n      0x00\n        /* \"#utility.yul\":263:264   */\n      dup1\n        /* \"#utility.yul\":256:268   */\n      revert\n        /* \"#utility.yul\":497:755   */\n    tag_575:\n        /* \"#utility.yul\":569:570   */\n      0x00\n        /* \"#utility.yul\":579:692   */\n    tag_586:\n        /* \"#utility.yul\":593:599   */\n      dup4\n        /* \"#utility.yul\":590:591   */\n      dup2\n        /* \"#utility.yul\":587:600   */\n      lt\n        /* \"#utility.yul\":579:692   */\n      iszero\n      tag_588\n      jumpi\n        /* \"#utility.yul\":669:680   */\n      dup2\n      dup2\n      add\n        /* \"#utility.yul\":663:681   */\n      mload\n        /* \"#utility.yul\":650:661   */\n      dup4\n      dup3\n      add\n        /* \"#utility.yul\":643:682   */\n      mstore\n        /* \"#utility.yul\":615:617   */\n      0x20\n        /* \"#utility.yul\":608:618   */\n      add\n        /* \"#utility.yul\":579:692   */\n      jump(tag_586)\n    tag_588:\n        /* \"#utility.yul\":710:716   */\n      dup4\n        /* \"#utility.yul\":707:708   */\n      dup2\n        /* \"#utility.yul\":704:717   */\n      gt\n        /* \"#utility.yul\":701:749   */\n      iszero\n      tag_344\n      jumpi\n      pop\n      pop\n        /* \"#utility.yul\":745:746   */\n      0x00\n        /* \"#utility.yul\":727:743   */\n      swap2\n      add\n        /* \"#utility.yul\":720:747   */\n      mstore\n        /* \"#utility.yul\":497:755   */\n      jump\t// out\n        /* \"#utility.yul\":760:1143   */\n    tag_49:\n        /* \"#utility.yul\":909:911   */\n      0x20\n        /* \"#utility.yul\":898:907   */\n      dup2\n        /* \"#utility.yul\":891:912   */\n      mstore\n        /* \"#utility.yul\":872:876   */\n      0x00\n        /* \"#utility.yul\":941:947   */\n      dup3\n        /* \"#utility.yul\":935:948   */\n      mload\n        /* \"#utility.yul\":984:990   */\n      dup1\n        /* \"#utility.yul\":979:981   */\n      0x20\n        /* \"#utility.yul\":968:977   */\n      dup5\n        /* \"#utility.yul\":964:982   */\n      add\n        /* \"#utility.yul\":957:991   */\n      mstore\n        /* \"#utility.yul\":1000:1066   */\n      tag_591\n        /* \"#utility.yul\":1059:1065   */\n      dup2\n        /* \"#utility.yul\":1054:1056   */\n      0x40\n        /* \"#utility.yul\":1043:1052   */\n      dup6\n        /* \"#utility.yul\":1039:1057   */\n      add\n        /* \"#utility.yul\":1034:1036   */\n      0x20\n        /* \"#utility.yul\":1026:1032   */\n      dup8\n        /* \"#utility.yul\":1022:1037   */\n      add\n        /* \"#utility.yul\":1000:1066   */\n      tag_575\n      jump\t// in\n    tag_591:\n        /* \"#utility.yul\":1127:1129   */\n      0x1f\n        /* \"#utility.yul\":1106:1121   */\n      add\n      not(0x1f)\n        /* \"#utility.yul\":1102:1131   */\n      and\n        /* \"#utility.yul\":1087:1132   */\n      swap2\n      swap1\n      swap2\n      add\n        /* \"#utility.yul\":1134:1136   */\n      0x40\n        /* \"#utility.yul\":1083:1137   */\n      add\n      swap3\n        /* \"#utility.yul\":760:1143   */\n      swap2\n      pop\n      pop\n      jump\t// out\n        /* \"#utility.yul\":1148:1321   */\n    tag_576:\n        /* \"#utility.yul\":1216:1236   */\n      dup1\n      calldataload\n      sub(shl(0xa0, 0x01), 0x01)\n        /* \"#utility.yul\":1265:1296   */\n      dup2\n      and\n        /* \"#utility.yul\":1255:1297   */\n      dup2\n      eq\n        /* \"#utility.yul\":1245:1315   */\n      tag_593\n      jumpi\n        /* \"#utility.yul\":1311:1312   */\n      0x00\n        /* \"#utility.yul\":1308:1309   */\n      dup1\n        /* \"#utility.yul\":1301:1313   */\n      revert\n        /* \"#utility.yul\":1245:1315   */\n    tag_593:\n        /* \"#utility.yul\":1148:1321   */\n      swap2\n      swap1\n      pop\n      jump\t// out\n        /* \"#utility.yul\":1326:1580   */\n    tag_53:\n        /* \"#utility.yul\":1394:1400   */\n      0x00\n        /* \"#utility.yul\":1402:1408   */\n      dup1\n        /* \"#utility.yul\":1455:1457   */\n      0x40\n        /* \"#utility.yul\":1443:1452   */\n      dup4\n        /* \"#utility.yul\":1434:1441   */\n      dup6\n        /* \"#utility.yul\":1430:1453   */\n      sub\n        /* \"#utility.yul\":1426:1458   */\n      slt\n        /* \"#utility.yul\":1423:1475   */\n      iszero\n      tag_595\n      jumpi\n        /* \"#utility.yul\":1471:1472   */\n      0x00\n        /* \"#utility.yul\":1468:1469   */\n      dup1\n        /* \"#utility.yul\":1461:1473   */\n      revert\n        /* \"#utility.yul\":1423:1475   */\n    tag_595:\n        /* \"#utility.yul\":1494:1523   */\n      tag_596\n        /* \"#utility.yul\":1513:1522   */\n      dup4\n        /* \"#utility.yul\":1494:1523   */\n      tag_576\n      jump\t// in\n    tag_596:\n        /* \"#utility.yul\":1484:1523   */\n      swap5\n        /* \"#utility.yul\":1570:1572   */\n      0x20\n        /* \"#utility.yul\":1555:1573   */\n      swap4\n      swap1\n      swap4\n      add\n        /* \"#utility.yul\":1542:1574   */\n      calldataload\n      swap4\n      pop\n      pop\n      pop\n        /* \"#utility.yul\":1326:1580   */\n      jump\t// out\n        /* \"#utility.yul\":1767:2095   */\n    tag_64:\n        /* \"#utility.yul\":1844:1850   */\n      0x00\n        /* \"#utility.yul\":1852:1858   */\n      dup1\n        /* \"#utility.yul\":1860:1866   */\n      0x00\n        /* \"#utility.yul\":1913:1915   */\n      0x60\n        /* \"#utility.yul\":1901:1910   */\n      dup5\n        /* \"#utility.yul\":1892:1899   */\n      dup7\n        /* \"#utility.yul\":1888:1911   */\n      sub\n        /* \"#utility.yul\":1884:1916   */\n      slt\n        /* \"#utility.yul\":1881:1933   */\n      iszero\n      tag_599\n      jumpi\n        /* \"#utility.yul\":1929:1930   */\n      0x00\n        /* \"#utility.yul\":1926:1927   */\n      dup1\n        /* \"#utility.yul\":1919:1931   */\n      revert\n        /* \"#utility.yul\":1881:1933   */\n    tag_599:\n        /* \"#utility.yul\":1952:1981   */\n      tag_600\n        /* \"#utility.yul\":1971:1980   */\n      dup5\n        /* \"#utility.yul\":1952:1981   */\n      tag_576\n      jump\t// in\n    tag_600:\n        /* \"#utility.yul\":1942:1981   */\n      swap3\n      pop\n        /* \"#utility.yul\":2000:2038   */\n      tag_601\n        /* \"#utility.yul\":2034:2036   */\n      0x20\n        /* \"#utility.yul\":2023:2032   */\n      dup6\n        /* \"#utility.yul\":2019:2037   */\n      add\n        /* \"#utility.yul\":2000:2038   */\n      tag_576\n      jump\t// in\n    tag_601:\n        /* \"#utility.yul\":1990:2038   */\n      swap2\n      pop\n        /* \"#utility.yul\":2085:2087   */\n      0x40\n        /* \"#utility.yul\":2074:2083   */\n      dup5\n        /* \"#utility.yul\":2070:2088   */\n      add\n        /* \"#utility.yul\":2057:2089   */\n      calldataload\n        /* \"#utility.yul\":2047:2089   */\n      swap1\n      pop\n        /* \"#utility.yul\":1767:2095   */\n      swap3\n      pop\n      swap3\n      pop\n      swap3\n      jump\t// out\n        /* \"#utility.yul\":2100:2280   */\n    tag_70:\n        /* \"#utility.yul\":2159:2165   */\n      0x00\n        /* \"#utility.yul\":2212:2214   */\n      0x20\n        /* \"#utility.yul\":2200:2209   */\n      dup3\n        /* \"#utility.yul\":2191:2198   */\n      dup5\n        /* \"#utility.yul\":2187:2210   */\n      sub\n        /* \"#utility.yul\":2183:2215   */\n      slt\n        /* \"#utility.yul\":2180:2232   */\n      iszero\n      tag_603\n      jumpi\n        /* \"#utility.yul\":2228:2229   */\n      0x00\n        /* \"#utility.yul\":2225:2226   */\n      dup1\n        /* \"#utility.yul\":2218:2230   */\n      revert\n        /* \"#utility.yul\":2180:2232   */\n    tag_603:\n      pop\n        /* \"#utility.yul\":2251:2274   */\n      calldataload\n      swap2\n        /* \"#utility.yul\":2100:2280   */\n      swap1\n      pop\n      jump\t// out\n        /* \"#utility.yul\":2467:2721   */\n    tag_77:\n        /* \"#utility.yul\":2535:2541   */\n      0x00\n        /* \"#utility.yul\":2543:2549   */\n      dup1\n        /* \"#utility.yul\":2596:2598   */\n      0x40\n        /* \"#utility.yul\":2584:2593   */\n      dup4\n        /* \"#utility.yul\":2575:2582   */\n      dup6\n        /* \"#utility.yul\":2571:2594   */\n      sub\n        /* \"#utility.yul\":2567:2599   */\n      slt\n        /* \"#utility.yul\":2564:2616   */\n      iszero\n      tag_606\n      jumpi\n        /* \"#utility.yul\":2612:2613   */\n      0x00\n        /* \"#utility.yul\":2609:2610   */\n      dup1\n        /* \"#utility.yul\":2602:2614   */\n      revert\n        /* \"#utility.yul\":2564:2616   */\n    tag_606:\n        /* \"#utility.yul\":2648:2657   */\n      dup3\n        /* \"#utility.yul\":2635:2658   */\n      calldataload\n        /* \"#utility.yul\":2625:2658   */\n      swap2\n      pop\n        /* \"#utility.yul\":2677:2715   */\n      tag_607\n        /* \"#utility.yul\":2711:2713   */\n      0x20\n        /* \"#utility.yul\":2700:2709   */\n      dup5\n        /* \"#utility.yul\":2696:2714   */\n      add\n        /* \"#utility.yul\":2677:2715   */\n      tag_576\n      jump\t// in\n    tag_607:\n        /* \"#utility.yul\":2667:2715   */\n      swap1\n      pop\n        /* \"#utility.yul\":2467:2721   */\n      swap3\n      pop\n      swap3\n      swap1\n      pop\n      jump\t// out\n        /* \"#utility.yul\":2915:3101   */\n    tag_91:\n        /* \"#utility.yul\":2974:2980   */\n      0x00\n        /* \"#utility.yul\":3027:3029   */\n      0x20\n        /* \"#utility.yul\":3015:3024   */\n      dup3\n        /* \"#utility.yul\":3006:3013   */\n      dup5\n        /* \"#utility.yul\":3002:3025   */\n      sub\n        /* \"#utility.yul\":2998:3030   */\n      slt\n        /* \"#utility.yul\":2995:3047   */\n      iszero\n      tag_610\n      jumpi\n        /* \"#utility.yul\":3043:3044   */\n      0x00\n        /* \"#utility.yul\":3040:3041   */\n      dup1\n        /* \"#utility.yul\":3033:3045   */\n      revert\n        /* \"#utility.yul\":2995:3047   */\n    tag_610:\n        /* \"#utility.yul\":3066:3095   */\n      tag_535\n        /* \"#utility.yul\":3085:3094   */\n      dup3\n        /* \"#utility.yul\":3066:3095   */\n      tag_576\n      jump\t// in\n        /* \"#utility.yul\":3291:3418   */\n    tag_228:\n        /* \"#utility.yul\":3352:3362   */\n      0x4e487b71\n        /* \"#utility.yul\":3347:3350   */\n      0xe0\n        /* \"#utility.yul\":3343:3363   */\n      shl\n        /* \"#utility.yul\":3340:3341   */\n      0x00\n        /* \"#utility.yul\":3333:3364   */\n      mstore\n        /* \"#utility.yul\":3383:3387   */\n      0x41\n        /* \"#utility.yul\":3380:3381   */\n      0x04\n        /* \"#utility.yul\":3373:3388   */\n      mstore\n        /* \"#utility.yul\":3407:3411   */\n      0x24\n        /* \"#utility.yul\":3404:3405   */\n      0x00\n        /* \"#utility.yul\":3397:3412   */\n      revert\n        /* \"#utility.yul\":3423:4418   */\n    tag_108:\n        /* \"#utility.yul\":3500:3506   */\n      0x00\n        /* \"#utility.yul\":3508:3514   */\n      dup1\n        /* \"#utility.yul\":3561:3563   */\n      0x40\n        /* \"#utility.yul\":3549:3558   */\n      dup4\n        /* \"#utility.yul\":3540:3547   */\n      dup6\n        /* \"#utility.yul\":3536:3559   */\n      sub\n        /* \"#utility.yul\":3532:3564   */\n      slt\n        /* \"#utility.yul\":3529:3581   */\n      iszero\n      tag_616\n      jumpi\n        /* \"#utility.yul\":3577:3578   */\n      0x00\n        /* \"#utility.yul\":3574:3575   */\n      dup1\n        /* \"#utility.yul\":3567:3579   */\n      revert\n        /* \"#utility.yul\":3529:3581   */\n    tag_616:\n        /* \"#utility.yul\":3600:3629   */\n      tag_617\n        /* \"#utility.yul\":3619:3628   */\n      dup4\n        /* \"#utility.yul\":3600:3629   */\n      tag_576\n      jump\t// in\n    tag_617:\n        /* \"#utility.yul\":3590:3629   */\n      swap2\n      pop\n        /* \"#utility.yul\":3680:3682   */\n      0x20\n        /* \"#utility.yul\":3669:3678   */\n      dup4\n        /* \"#utility.yul\":3665:3683   */\n      add\n        /* \"#utility.yul\":3652:3684   */\n      calldataload\n        /* \"#utility.yul\":3703:3721   */\n      0xffffffffffffffff\n        /* \"#utility.yul\":3744:3746   */\n      dup1\n        /* \"#utility.yul\":3736:3742   */\n      dup3\n        /* \"#utility.yul\":3733:3747   */\n      gt\n        /* \"#utility.yul\":3730:3764   */\n      iszero\n      tag_618\n      jumpi\n        /* \"#utility.yul\":3760:3761   */\n      0x00\n        /* \"#utility.yul\":3757:3758   */\n      dup1\n        /* \"#utility.yul\":3750:3762   */\n      revert\n        /* \"#utility.yul\":3730:3764   */\n    tag_618:\n        /* \"#utility.yul\":3798:3804   */\n      dup2\n        /* \"#utility.yul\":3787:3796   */\n      dup6\n        /* \"#utility.yul\":3783:3805   */\n      add\n        /* \"#utility.yul\":3773:3805   */\n      swap2\n      pop\n        /* \"#utility.yul\":3843:3850   */\n      dup6\n        /* \"#utility.yul\":3836:3840   */\n      0x1f\n        /* \"#utility.yul\":3832:3834   */\n      dup4\n        /* \"#utility.yul\":3828:3841   */\n      add\n        /* \"#utility.yul\":3824:3851   */\n      slt\n        /* \"#utility.yul\":3814:3869   */\n      tag_619\n      jumpi\n        /* \"#utility.yul\":3865:3866   */\n      0x00\n        /* \"#utility.yul\":3862:3863   */\n      dup1\n        /* \"#utility.yul\":3855:3867   */\n      revert\n        /* \"#utility.yul\":3814:3869   */\n    tag_619:\n        /* \"#utility.yul\":3901:3903   */\n      dup2\n        /* \"#utility.yul\":3888:3904   */\n      calldataload\n        /* \"#utility.yul\":3923:3925   */\n      dup2\n        /* \"#utility.yul\":3919:3921   */\n      dup2\n        /* \"#utility.yul\":3916:3926   */\n      gt\n        /* \"#utility.yul\":3913:3949   */\n      iszero\n      tag_621\n      jumpi\n        /* \"#utility.yul\":3929:3947   */\n      tag_621\n      tag_228\n      jump\t// in\n    tag_621:\n        /* \"#utility.yul\":4004:4006   */\n      0x40\n        /* \"#utility.yul\":3998:4007   */\n      mload\n        /* \"#utility.yul\":3972:3974   */\n      0x1f\n        /* \"#utility.yul\":4058:4071   */\n      dup3\n      add\n      not(0x1f)\n        /* \"#utility.yul\":4054:4076   */\n      swap1\n      dup2\n      and\n        /* \"#utility.yul\":4078:4080   */\n      0x3f\n        /* \"#utility.yul\":4050:4081   */\n      add\n        /* \"#utility.yul\":4046:4086   */\n      and\n        /* \"#utility.yul\":4034:4087   */\n      dup2\n      add\n      swap1\n        /* \"#utility.yul\":4102:4120   */\n      dup4\n      dup3\n      gt\n        /* \"#utility.yul\":4122:4144   */\n      dup2\n      dup4\n      lt\n        /* \"#utility.yul\":4099:4145   */\n      or\n        /* \"#utility.yul\":4096:4168   */\n      iszero\n      tag_623\n      jumpi\n        /* \"#utility.yul\":4148:4166   */\n      tag_623\n      tag_228\n      jump\t// in\n    tag_623:\n        /* \"#utility.yul\":4188:4198   */\n      dup2\n        /* \"#utility.yul\":4184:4186   */\n      0x40\n        /* \"#utility.yul\":4177:4199   */\n      mstore\n        /* \"#utility.yul\":4223:4225   */\n      dup3\n        /* \"#utility.yul\":4215:4221   */\n      dup2\n        /* \"#utility.yul\":4208:4226   */\n      mstore\n        /* \"#utility.yul\":4263:4270   */\n      dup9\n        /* \"#utility.yul\":4258:4260   */\n      0x20\n        /* \"#utility.yul\":4253:4255   */\n      dup5\n        /* \"#utility.yul\":4249:4251   */\n      dup8\n        /* \"#utility.yul\":4245:4256   */\n      add\n        /* \"#utility.yul\":4241:4261   */\n      add\n        /* \"#utility.yul\":4238:4271   */\n      gt\n        /* \"#utility.yul\":4235:4288   */\n      iszero\n      tag_624\n      jumpi\n        /* \"#utility.yul\":4284:4285   */\n      0x00\n        /* \"#utility.yul\":4281:4282   */\n      dup1\n        /* \"#utility.yul\":4274:4286   */\n      revert\n        /* \"#utility.yul\":4235:4288   */\n    tag_624:\n        /* \"#utility.yul\":4340:4342   */\n      dup3\n        /* \"#utility.yul\":4335:4337   */\n      0x20\n        /* \"#utility.yul\":4331:4333   */\n      dup7\n        /* \"#utility.yul\":4327:4338   */\n      add\n        /* \"#utility.yul\":4322:4324   */\n      0x20\n        /* \"#utility.yul\":4314:4320   */\n      dup4\n        /* \"#utility.yul\":4310:4325   */\n      add\n        /* \"#utility.yul\":4297:4343   */\n      calldatacopy\n        /* \"#utility.yul\":4385:4386   */\n      0x00\n        /* \"#utility.yul\":4380:4382   */\n      0x20\n        /* \"#utility.yul\":4375:4377   */\n      dup5\n        /* \"#utility.yul\":4367:4373   */\n      dup4\n        /* \"#utility.yul\":4363:4378   */\n      add\n        /* \"#utility.yul\":4359:4383   */\n      add\n        /* \"#utility.yul\":4352:4387   */\n      mstore\n        /* \"#utility.yul\":4406:4412   */\n      dup1\n        /* \"#utility.yul\":4396:4412   */\n      swap6\n      pop\n      pop\n      pop\n      pop\n      pop\n      pop\n        /* \"#utility.yul\":3423:4418   */\n      swap3\n      pop\n      swap3\n      swap1\n      pop\n      jump\t// out\n        /* \"#utility.yul\":4423:4683   */\n    tag_163:\n        /* \"#utility.yul\":4491:4497   */\n      0x00\n        /* \"#utility.yul\":4499:4505   */\n      dup1\n        /* \"#utility.yul\":4552:4554   */\n      0x40\n        /* \"#utility.yul\":4540:4549   */\n      dup4\n        /* \"#utility.yul\":4531:4538   */\n      dup6\n        /* \"#utility.yul\":4527:4550   */\n      sub\n        /* \"#utility.yul\":4523:4555   */\n      slt\n        /* \"#utility.yul\":4520:4572   */\n      iszero\n      tag_626\n      jumpi\n        /* \"#utility.yul\":4568:4569   */\n      0x00\n        /* \"#utility.yul\":4565:4566   */\n      dup1\n        /* \"#utility.yul\":4558:4570   */\n      revert\n        /* \"#utility.yul\":4520:4572   */\n    tag_626:\n        /* \"#utility.yul\":4591:4620   */\n      tag_627\n        /* \"#utility.yul\":4610:4619   */\n      dup4\n        /* \"#utility.yul\":4591:4620   */\n      tag_576\n      jump\t// in\n    tag_627:\n        /* \"#utility.yul\":4581:4620   */\n      swap2\n      pop\n        /* \"#utility.yul\":4639:4677   */\n      tag_607\n        /* \"#utility.yul\":4673:4675   */\n      0x20\n        /* \"#utility.yul\":4662:4671   */\n      dup5\n        /* \"#utility.yul\":4658:4676   */\n      add\n        /* \"#utility.yul\":4639:4677   */\n      tag_576\n      jump\t// in\n        /* \"#utility.yul\":4688:5068   */\n    tag_180:\n        /* \"#utility.yul\":4767:4768   */\n      0x01\n        /* \"#utility.yul\":4763:4775   */\n      dup2\n      dup2\n      shr\n      swap1\n        /* \"#utility.yul\":4810:4822   */\n      dup3\n      and\n      dup1\n        /* \"#utility.yul\":4831:4892   */\n      tag_630\n      jumpi\n        /* \"#utility.yul\":4885:4889   */\n      0x7f\n        /* \"#utility.yul\":4877:4883   */\n      dup3\n        /* \"#utility.yul\":4873:4890   */\n      and\n        /* \"#utility.yul\":4863:4890   */\n      swap2\n      pop\n        /* \"#utility.yul\":4831:4892   */\n    tag_630:\n        /* \"#utility.yul\":4938:4940   */\n      0x20\n        /* \"#utility.yul\":4930:4936   */\n      dup3\n        /* \"#utility.yul\":4927:4941   */\n      lt\n        /* \"#utility.yul\":4907:4925   */\n      dup2\n        /* \"#utility.yul\":4904:4942   */\n      eq\n        /* \"#utility.yul\":4901:5062   */\n      iszero\n      tag_631\n      jumpi\n        /* \"#utility.yul\":4984:4994   */\n      0x4e487b71\n        /* \"#utility.yul\":4979:4982   */\n      0xe0\n        /* \"#utility.yul\":4975:4995   */\n      shl\n        /* \"#utility.yul\":4972:4973   */\n      0x00\n        /* \"#utility.yul\":4965:4996   */\n      mstore\n        /* \"#utility.yul\":5019:5023   */\n      0x22\n        /* \"#utility.yul\":5016:5017   */\n      0x04\n        /* \"#utility.yul\":5009:5024   */\n      mstore\n        /* \"#utility.yul\":5047:5051   */\n      0x24\n        /* \"#utility.yul\":5044:5045   */\n      0x00\n        /* \"#utility.yul\":5037:5052   */\n      revert\n        /* \"#utility.yul\":4901:5062   */\n    tag_631:\n      pop\n        /* \"#utility.yul\":4688:5068   */\n      swap2\n      swap1\n      pop\n      jump\t// out\n        /* \"#utility.yul\":5489:5897   */\n    tag_216:\n        /* \"#utility.yul\":5691:5693   */\n      0x20\n        /* \"#utility.yul\":5673:5694   */\n      dup1\n      dup3\n      mstore\n        /* \"#utility.yul\":5730:5732   */\n      0x2c\n        /* \"#utility.yul\":5710:5728   */\n      swap1\n      dup3\n      add\n        /* \"#utility.yul\":5703:5733   */\n      mstore\n        /* \"#utility.yul\":5769:5803   */\n      0x46756e6374696f6e206d7573742062652063616c6c6564207468726f75676820\n        /* \"#utility.yul\":5764:5766   */\n      0x40\n        /* \"#utility.yul\":5749:5767   */\n      dup3\n      add\n        /* \"#utility.yul\":5742:5804   */\n      mstore\n      shl(0xa2, 0x19195b1959d85d1958d85b1b)\n        /* \"#utility.yul\":5835:5837   */\n      0x60\n        /* \"#utility.yul\":5820:5838   */\n      dup3\n      add\n        /* \"#utility.yul\":5813:5855   */\n      mstore\n        /* \"#utility.yul\":5887:5890   */\n      0x80\n        /* \"#utility.yul\":5872:5891   */\n      add\n      swap1\n        /* \"#utility.yul\":5489:5897   */\n      jump\t// out\n        /* \"#utility.yul\":5902:6310   */\n    tag_221:\n        /* \"#utility.yul\":6104:6106   */\n      0x20\n        /* \"#utility.yul\":6086:6107   */\n      dup1\n      dup3\n      mstore\n        /* \"#utility.yul\":6143:6145   */\n      0x2c\n        /* \"#utility.yul\":6123:6141   */\n      swap1\n      dup3\n      add\n        /* \"#utility.yul\":6116:6146   */\n      mstore\n        /* \"#utility.yul\":6182:6216   */\n      0x46756e6374696f6e206d7573742062652063616c6c6564207468726f75676820\n        /* \"#utility.yul\":6177:6179   */\n      0x40\n        /* \"#utility.yul\":6162:6180   */\n      dup3\n      add\n        /* \"#utility.yul\":6155:6217   */\n      mstore\n      shl(0xa0, 0x6163746976652070726f7879)\n        /* \"#utility.yul\":6248:6250   */\n      0x60\n        /* \"#utility.yul\":6233:6251   */\n      dup3\n      add\n        /* \"#utility.yul\":6226:6268   */\n      mstore\n        /* \"#utility.yul\":6300:6303   */\n      0x80\n        /* \"#utility.yul\":6285:6304   */\n      add\n      swap1\n        /* \"#utility.yul\":5902:6310   */\n      jump\t// out\n        /* \"#utility.yul\":6315:6442   */\n    tag_577:\n        /* \"#utility.yul\":6376:6386   */\n      0x4e487b71\n        /* \"#utility.yul\":6371:6374   */\n      0xe0\n        /* \"#utility.yul\":6367:6387   */\n      shl\n        /* \"#utility.yul\":6364:6365   */\n      0x00\n        /* \"#utility.yul\":6357:6388   */\n      mstore\n        /* \"#utility.yul\":6407:6411   */\n      0x11\n        /* \"#utility.yul\":6404:6405   */\n      0x04\n        /* \"#utility.yul\":6397:6412   */\n      mstore\n        /* \"#utility.yul\":6431:6435   */\n      0x24\n        /* \"#utility.yul\":6428:6429   */\n      0x00\n        /* \"#utility.yul\":6421:6436   */\n      revert\n        /* \"#utility.yul\":6447:6575   */\n    tag_236:\n        /* \"#utility.yul\":6487:6490   */\n      0x00\n        /* \"#utility.yul\":6518:6519   */\n      dup3\n        /* \"#utility.yul\":6514:6520   */\n      not\n        /* \"#utility.yul\":6511:6512   */\n      dup3\n        /* \"#utility.yul\":6508:6521   */\n      gt\n        /* \"#utility.yul\":6505:6544   */\n      iszero\n      tag_638\n      jumpi\n        /* \"#utility.yul\":6524:6542   */\n      tag_638\n      tag_577\n      jump\t// in\n    tag_638:\n      pop\n        /* \"#utility.yul\":6560:6569   */\n      add\n      swap1\n        /* \"#utility.yul\":6447:6575   */\n      jump\t// out\n        /* \"#utility.yul\":7420:7842   */\n    tag_578:\n        /* \"#utility.yul\":7509:7510   */\n      0x01\n        /* \"#utility.yul\":7552:7557   */\n      dup2\n        /* \"#utility.yul\":7509:7510   */\n      dup2\n        /* \"#utility.yul\":7566:7836   */\n    tag_642:\n        /* \"#utility.yul\":7587:7594   */\n      dup1\n        /* \"#utility.yul\":7577:7585   */\n      dup6\n        /* \"#utility.yul\":7574:7595   */\n      gt\n        /* \"#utility.yul\":7566:7836   */\n      iszero\n      tag_644\n      jumpi\n        /* \"#utility.yul\":7646:7650   */\n      dup2\n        /* \"#utility.yul\":7642:7643   */\n      0x00\n        /* \"#utility.yul\":7638:7644   */\n      not\n        /* \"#utility.yul\":7634:7651   */\n      div\n        /* \"#utility.yul\":7628:7632   */\n      dup3\n        /* \"#utility.yul\":7625:7652   */\n      gt\n        /* \"#utility.yul\":7622:7675   */\n      iszero\n      tag_646\n      jumpi\n        /* \"#utility.yul\":7655:7673   */\n      tag_646\n      tag_577\n      jump\t// in\n    tag_646:\n        /* \"#utility.yul\":7705:7712   */\n      dup1\n        /* \"#utility.yul\":7695:7703   */\n      dup6\n        /* \"#utility.yul\":7691:7713   */\n      and\n        /* \"#utility.yul\":7688:7743   */\n      iszero\n      tag_647\n      jumpi\n        /* \"#utility.yul\":7725:7741   */\n      swap2\n      dup2\n      mul\n      swap2\n        /* \"#utility.yul\":7688:7743   */\n    tag_647:\n        /* \"#utility.yul\":7804:7826   */\n      swap4\n      dup5\n      shr\n      swap4\n        /* \"#utility.yul\":7764:7779   */\n      swap1\n      dup1\n      mul\n      swap1\n        /* \"#utility.yul\":7566:7836   */\n      jump(tag_642)\n    tag_644:\n        /* \"#utility.yul\":7570:7573   */\n      pop\n        /* \"#utility.yul\":7420:7842   */\n      swap3\n      pop\n      swap3\n      swap1\n      pop\n      jump\t// out\n        /* \"#utility.yul\":7847:8653   */\n    tag_579:\n        /* \"#utility.yul\":7896:7901   */\n      0x00\n        /* \"#utility.yul\":7926:7934   */\n      dup3\n        /* \"#utility.yul\":7916:7996   */\n      tag_649\n      jumpi\n      pop\n        /* \"#utility.yul\":7967:7968   */\n      0x01\n        /* \"#utility.yul\":7981:7986   */\n      jump(tag_176)\n        /* \"#utility.yul\":7916:7996   */\n    tag_649:\n        /* \"#utility.yul\":8015:8019   */\n      dup2\n        /* \"#utility.yul\":8005:8081   */\n      tag_650\n      jumpi\n      pop\n        /* \"#utility.yul\":8052:8053   */\n      0x00\n        /* \"#utility.yul\":8066:8071   */\n      jump(tag_176)\n        /* \"#utility.yul\":8005:8081   */\n    tag_650:\n        /* \"#utility.yul\":8097:8101   */\n      dup2\n        /* \"#utility.yul\":8115:8116   */\n      0x01\n        /* \"#utility.yul\":8110:8169   */\n      dup2\n      eq\n      tag_652\n      jumpi\n        /* \"#utility.yul\":8183:8184   */\n      0x02\n        /* \"#utility.yul\":8178:8308   */\n      dup2\n      eq\n      tag_653\n      jumpi\n        /* \"#utility.yul\":8090:8308   */\n      jump(tag_651)\n        /* \"#utility.yul\":8110:8169   */\n    tag_652:\n        /* \"#utility.yul\":8140:8141   */\n      0x01\n        /* \"#utility.yul\":8131:8141   */\n      swap2\n      pop\n        /* \"#utility.yul\":8154:8159   */\n      pop\n      jump(tag_176)\n        /* \"#utility.yul\":8178:8308   */\n    tag_653:\n        /* \"#utility.yul\":8215:8218   */\n      0xff\n        /* \"#utility.yul\":8205:8213   */\n      dup5\n        /* \"#utility.yul\":8202:8219   */\n      gt\n        /* \"#utility.yul\":8199:8242   */\n      iszero\n      tag_655\n      jumpi\n        /* \"#utility.yul\":8222:8240   */\n      tag_655\n      tag_577\n      jump\t// in\n    tag_655:\n      pop\n      pop\n        /* \"#utility.yul\":8278:8279   */\n      0x01\n        /* \"#utility.yul\":8264:8280   */\n      dup3\n      shl\n        /* \"#utility.yul\":8293:8298   */\n      jump(tag_176)\n        /* \"#utility.yul\":8090:8308   */\n    tag_651:\n      pop\n        /* \"#utility.yul\":8392:8394   */\n      0x20\n        /* \"#utility.yul\":8382:8390   */\n      dup4\n        /* \"#utility.yul\":8379:8395   */\n      lt\n        /* \"#utility.yul\":8373:8376   */\n      0x0133\n        /* \"#utility.yul\":8367:8371   */\n      dup4\n        /* \"#utility.yul\":8364:8377   */\n      lt\n        /* \"#utility.yul\":8360:8396   */\n      and\n        /* \"#utility.yul\":8354:8356   */\n      0x4e\n        /* \"#utility.yul\":8344:8352   */\n      dup5\n        /* \"#utility.yul\":8341:8357   */\n      lt\n        /* \"#utility.yul\":8336:8338   */\n      0x0b\n        /* \"#utility.yul\":8330:8334   */\n      dup5\n        /* \"#utility.yul\":8327:8339   */\n      lt\n        /* \"#utility.yul\":8323:8358   */\n      and\n        /* \"#utility.yul\":8320:8397   */\n      or\n        /* \"#utility.yul\":8317:8476   */\n      iszero\n      tag_656\n      jumpi\n      pop\n        /* \"#utility.yul\":8429:8448   */\n      dup2\n      dup2\n      exp\n        /* \"#utility.yul\":8461:8466   */\n      jump(tag_176)\n        /* \"#utility.yul\":8317:8476   */\n    tag_656:\n        /* \"#utility.yul\":8508:8542   */\n      tag_657\n        /* \"#utility.yul\":8533:8541   */\n      dup4\n        /* \"#utility.yul\":8527:8531   */\n      dup4\n        /* \"#utility.yul\":8508:8542   */\n      tag_578\n      jump\t// in\n    tag_657:\n        /* \"#utility.yul\":8578:8584   */\n      dup1\n        /* \"#utility.yul\":8574:8575   */\n      0x00\n        /* \"#utility.yul\":8570:8576   */\n      not\n        /* \"#utility.yul\":8566:8585   */\n      div\n        /* \"#utility.yul\":8557:8564   */\n      dup3\n        /* \"#utility.yul\":8554:8586   */\n      gt\n        /* \"#utility.yul\":8551:8609   */\n      iszero\n      tag_659\n      jumpi\n        /* \"#utility.yul\":8589:8607   */\n      tag_659\n      tag_577\n      jump\t// in\n    tag_659:\n        /* \"#utility.yul\":8627:8647   */\n      mul\n      swap4\n        /* \"#utility.yul\":7847:8653   */\n      swap3\n      pop\n      pop\n      pop\n      jump\t// out\n        /* \"#utility.yul\":8658:8798   */\n    tag_292:\n        /* \"#utility.yul\":8716:8721   */\n      0x00\n        /* \"#utility.yul\":8745:8792   */\n      tag_535\n        /* \"#utility.yul\":8786:8790   */\n      0xff\n        /* \"#utility.yul\":8776:8784   */\n      dup5\n        /* \"#utility.yul\":8772:8791   */\n      and\n        /* \"#utility.yul\":8766:8770   */\n      dup4\n        /* \"#utility.yul\":8745:8792   */\n      tag_579\n      jump\t// in\n        /* \"#utility.yul\":8803:8971   */\n    tag_294:\n        /* \"#utility.yul\":8843:8850   */\n      0x00\n        /* \"#utility.yul\":8909:8910   */\n      dup2\n        /* \"#utility.yul\":8905:8906   */\n      0x00\n        /* \"#utility.yul\":8901:8907   */\n      not\n        /* \"#utility.yul\":8897:8911   */\n      div\n        /* \"#utility.yul\":8894:8895   */\n      dup4\n        /* \"#utility.yul\":8891:8912   */\n      gt\n        /* \"#utility.yul\":8886:8887   */\n      dup3\n        /* \"#utility.yul\":8879:8888   */\n      iszero\n        /* \"#utility.yul\":8872:8889   */\n      iszero\n        /* \"#utility.yul\":8868:8913   */\n      and\n        /* \"#utility.yul\":8865:8936   */\n      iszero\n      tag_664\n      jumpi\n        /* \"#utility.yul\":8916:8934   */\n      tag_664\n      tag_577\n      jump\t// in\n    tag_664:\n      pop\n        /* \"#utility.yul\":8956:8965   */\n      mul\n      swap1\n        /* \"#utility.yul\":8803:8971   */\n      jump\t// out\n        /* \"#utility.yul\":11964:12148   */\n    tag_388:\n        /* \"#utility.yul\":12034:12040   */\n      0x00\n        /* \"#utility.yul\":12087:12089   */\n      0x20\n        /* \"#utility.yul\":12075:12084   */\n      dup3\n        /* \"#utility.yul\":12066:12073   */\n      dup5\n        /* \"#utility.yul\":12062:12085   */\n      sub\n        /* \"#utility.yul\":12058:12090   */\n      slt\n        /* \"#utility.yul\":12055:12107   */\n      iszero\n      tag_674\n      jumpi\n        /* \"#utility.yul\":12103:12104   */\n      0x00\n        /* \"#utility.yul\":12100:12101   */\n      dup1\n        /* \"#utility.yul\":12093:12105   */\n      revert\n        /* \"#utility.yul\":12055:12107   */\n    tag_674:\n      pop\n        /* \"#utility.yul\":12126:12142   */\n      mload\n      swap2\n        /* \"#utility.yul\":11964:12148   */\n      swap1\n      pop\n      jump\t// out\n        /* \"#utility.yul\":13991:14398   */\n    tag_422:\n        /* \"#utility.yul\":14193:14195   */\n      0x20\n        /* \"#utility.yul\":14175:14196   */\n      dup1\n      dup3\n      mstore\n        /* \"#utility.yul\":14232:14234   */\n      0x2b\n        /* \"#utility.yul\":14212:14230   */\n      swap1\n      dup3\n      add\n        /* \"#utility.yul\":14205:14235   */\n      mstore\n        /* \"#utility.yul\":14271:14305   */\n      0x496e697469616c697a61626c653a20636f6e7472616374206973206e6f742069\n        /* \"#utility.yul\":14266:14268   */\n      0x40\n        /* \"#utility.yul\":14251:14269   */\n      dup3\n      add\n        /* \"#utility.yul\":14244:14306   */\n      mstore\n      shl(0xa8, 0x6e697469616c697a696e67)\n        /* \"#utility.yul\":14337:14339   */\n      0x60\n        /* \"#utility.yul\":14322:14340   */\n      dup3\n      add\n        /* \"#utility.yul\":14315:14356   */\n      mstore\n        /* \"#utility.yul\":14388:14391   */\n      0x80\n        /* \"#utility.yul\":14373:14392   */\n      add\n      swap1\n        /* \"#utility.yul\":13991:14398   */\n      jump\t// out\n        /* \"#utility.yul\":14763:15549   */\n    tag_472:\n        /* \"#utility.yul\":15174:15199   */\n      0x416363657373436f6e74726f6c3a206163636f756e7420000000000000000000\n        /* \"#utility.yul\":15169:15172   */\n      dup2\n        /* \"#utility.yul\":15162:15200   */\n      mstore\n        /* \"#utility.yul\":15144:15147   */\n      0x00\n        /* \"#utility.yul\":15229:15235   */\n      dup4\n        /* \"#utility.yul\":15223:15236   */\n      mload\n        /* \"#utility.yul\":15245:15307   */\n      tag_683\n        /* \"#utility.yul\":15300:15306   */\n      dup2\n        /* \"#utility.yul\":15295:15297   */\n      0x17\n        /* \"#utility.yul\":15290:15293   */\n      dup6\n        /* \"#utility.yul\":15286:15298   */\n      add\n        /* \"#utility.yul\":15279:15283   */\n      0x20\n        /* \"#utility.yul\":15271:15277   */\n      dup9\n        /* \"#utility.yul\":15267:15284   */\n      add\n        /* \"#utility.yul\":15245:15307   */\n      tag_575\n      jump\t// in\n    tag_683:\n      shl(0x7d, 0x01034b99036b4b9b9b4b733903937b6329)\n        /* \"#utility.yul\":15366:15368   */\n      0x17\n        /* \"#utility.yul\":15326:15342   */\n      swap2\n      dup5\n      add\n        /* \"#utility.yul\":15358:15369   */\n      swap2\n      dup3\n      add\n        /* \"#utility.yul\":15351:15391   */\n      mstore\n        /* \"#utility.yul\":15416:15429   */\n      dup4\n      mload\n        /* \"#utility.yul\":15438:15501   */\n      tag_684\n        /* \"#utility.yul\":15416:15429   */\n      dup2\n        /* \"#utility.yul\":15487:15489   */\n      0x28\n        /* \"#utility.yul\":15479:15490   */\n      dup5\n      add\n        /* \"#utility.yul\":15472:15476   */\n      0x20\n        /* \"#utility.yul\":15460:15477   */\n      dup9\n      add\n        /* \"#utility.yul\":15438:15501   */\n      tag_575\n      jump\t// in\n    tag_684:\n        /* \"#utility.yul\":15521:15538   */\n      add\n        /* \"#utility.yul\":15540:15542   */\n      0x28\n        /* \"#utility.yul\":15517:15543   */\n      add\n      swap5\n        /* \"#utility.yul\":14763:15549   */\n      swap4\n      pop\n      pop\n      pop\n      pop\n      jump\t// out\n        /* \"#utility.yul\":16662:16789   */\n    tag_521:\n        /* \"#utility.yul\":16723:16733   */\n      0x4e487b71\n        /* \"#utility.yul\":16718:16721   */\n      0xe0\n        /* \"#utility.yul\":16714:16734   */\n      shl\n        /* \"#utility.yul\":16711:16712   */\n      0x00\n        /* \"#utility.yul\":16704:16735   */\n      mstore\n        /* \"#utility.yul\":16754:16758   */\n      0x32\n        /* \"#utility.yul\":16751:16752   */\n      0x04\n        /* \"#utility.yul\":16744:16759   */\n      mstore\n        /* \"#utility.yul\":16778:16782   */\n      0x24\n        /* \"#utility.yul\":16775:16776   */\n      0x00\n        /* \"#utility.yul\":16768:16783   */\n      revert\n        /* \"#utility.yul\":16794:16930   */\n    tag_534:\n        /* \"#utility.yul\":16833:16836   */\n      0x00\n        /* \"#utility.yul\":16861:16866   */\n      dup2\n        /* \"#utility.yul\":16851:16890   */\n      tag_691\n      jumpi\n        /* \"#utility.yul\":16870:16888   */\n      tag_691\n      tag_577\n      jump\t// in\n    tag_691:\n      pop\n      not(0x00)\n        /* \"#utility.yul\":16906:16924   */\n      add\n      swap1\n        /* \"#utility.yul\":16794:16930   */\n      jump\t// out\n        /* \"#utility.yul\":17296:17570   */\n    tag_545:\n        /* \"#utility.yul\":17425:17428   */\n      0x00\n        /* \"#utility.yul\":17463:17469   */\n      dup3\n        /* \"#utility.yul\":17457:17470   */\n      mload\n        /* \"#utility.yul\":17479:17532   */\n      tag_694\n        /* \"#utility.yul\":17525:17531   */\n      dup2\n        /* \"#utility.yul\":17520:17523   */\n      dup5\n        /* \"#utility.yul\":17513:17517   */\n      0x20\n        /* \"#utility.yul\":17505:17511   */\n      dup8\n        /* \"#utility.yul\":17501:17518   */\n      add\n        /* \"#utility.yul\":17479:17532   */\n      tag_575\n      jump\t// in\n    tag_694:\n        /* \"#utility.yul\":17548:17564   */\n      swap2\n      swap1\n      swap2\n      add\n      swap3\n        /* \"#utility.yul\":17296:17570   */\n      swap2\n      pop\n      pop\n      jump\t// out\n    stop\n    data_75b20eef8615de99c108b05f0dbda081c91897128caa336d75dffb97c4132b4d 360894a13ba1a3210667c828492db98dca3e2076cc3735a920a3ca505d382bbc\n    data_9b87106a812d214d41ad9b68a21119e2948eaaf1040375c939ec808b8862455c 65d7a28e3265b37a6474929f336521b332c1681b933f6cb9f3376673440d862a\n    data_9fdcd12e4b726339b32a442b0a448365d5d85c96b2d2cff917b4f66c63110398 416464726573733a206c6f772d6c6576656c2064656c65676174652063616c6c206661696c6564\n\n    auxdata: 0xa2646970667358221220c026e58ae13b5c64482eb691d8013675b76b325e89fca4ee10252d5638ff4c0c64736f6c63430008090033\n}\n",
				"bytecode": {
					"linkReferences": {},
					"object": "60a06040523060805234801561001457600080fd5b5061001d610022565b6100e1565b600054610100900460ff161561008e5760405162461bcd60e51b815260206004820152602760248201527f496e697469616c697a61626c653a20636f6e747261637420697320696e697469604482015266616c697a696e6760c81b606482015260840160405180910390fd5b60005460ff908116146100df576000805460ff191660ff9081179091556040519081527f7f26b83ff96e1f2b6a682f133852f6798a09c465da95921460cefb38474024989060200160405180910390a15b565b608051612236620001196000396000818161071d0152818161075d0152818161084901528181610889015261091801526122366000f3fe6080604052600436106101c25760003560e01c806352d1902d116100f757806395d89b4111610095578063d547741f11610064578063d547741f146104ca578063dd62ed3e146104ea578063e63ab1e91461050a578063f72c0d8b1461052c57600080fd5b806395d89b4114610460578063a217fddf14610475578063a457c2d71461048a578063a9059cbb146104aa57600080fd5b806379cc6790116100d157806379cc6790146103f65780638129fc1c146104165780638456cb591461042b57806391d148541461044057600080fd5b806352d1902d146103935780635c975abb146103a857806370a08231146103c057600080fd5b8063313ce56711610164578063395093511161013e578063395093511461032b5780633f4ba83a1461034b57806342966c68146103605780634f1ef2861461038057600080fd5b8063313ce567146102cf57806336568abe146102eb5780633659cfe61461030b57600080fd5b806318160ddd116101a057806318160ddd1461023e57806323b872dd1461025d578063248a9ca31461027d5780632f2ff15d146102ad57600080fd5b806301ffc9a7146101c757806306fdde03146101fc578063095ea7b31461021e575b600080fd5b3480156101d357600080fd5b506101e76101e2366004611bf7565b610560565b60405190151581526020015b60405180910390f35b34801561020857600080fd5b50610211610597565b6040516101f39190611c4d565b34801561022a57600080fd5b506101e7610239366004611c9c565b610629565b34801561024a57600080fd5b506035545b6040519081526020016101f3565b34801561026957600080fd5b506101e7610278366004611cc6565b610641565b34801561028957600080fd5b5061024f610298366004611d02565b600090815260fb602052604090206001015490565b3480156102b957600080fd5b506102cd6102c8366004611d1b565b610665565b005b3480156102db57600080fd5b50604051601281526020016101f3565b3480156102f757600080fd5b506102cd610306366004611d1b565b61068f565b34801561031757600080fd5b506102cd610326366004611d47565b610712565b34801561033757600080fd5b506101e7610346366004611c9c565b6107f2565b34801561035757600080fd5b506102cd610814565b34801561036c57600080fd5b506102cd61037b366004611d02565b610834565b6102cd61038e366004611d78565b61083e565b34801561039f57600080fd5b5061024f61090b565b3480156103b457600080fd5b5060975460ff166101e7565b3480156103cc57600080fd5b5061024f6103db366004611d47565b6001600160a01b031660009081526033602052604090205490565b34801561040257600080fd5b506102cd610411366004611c9c565b6109be565b34801561042257600080fd5b506102cd6109d3565b34801561043757600080fd5b506102cd610bb0565b34801561044c57600080fd5b506101e761045b366004611d1b565b610bd0565b34801561046c57600080fd5b50610211610bfb565b34801561048157600080fd5b5061024f600081565b34801561049657600080fd5b506101e76104a5366004611c9c565b610c0a565b3480156104b657600080fd5b506101e76104c5366004611c9c565b610c85565b3480156104d657600080fd5b506102cd6104e5366004611d1b565b610c93565b3480156104f657600080fd5b5061024f610505366004611e3a565b610cb8565b34801561051657600080fd5b5061024f6000805160206121ba83398151915281565b34801561053857600080fd5b5061024f7f189ab7a9244df0848122154315af71fe140f3db0fe014031783b0946b8c9d2e381565b60006001600160e01b03198216637965db0b60e01b148061059157506301ffc9a760e01b6001600160e01b03198316145b92915050565b6060603680546105a690611e64565b80601f01602080910402602001604051908101604052809291908181526020018280546105d290611e64565b801561061f5780601f106105f45761010080835404028352916020019161061f565b820191906000526020600020905b81548152906001019060200180831161060257829003601f168201915b5050505050905090565b600033610637818585610ce3565b5060019392505050565b60003361064f858285610e07565b61065a858585610e81565b506001949350505050565b600082815260fb602052604090206001015461068081611037565b61068a8383611041565b505050565b6001600160a01b03811633146107045760405162461bcd60e51b815260206004820152602f60248201527f416363657373436f6e74726f6c3a2063616e206f6e6c792072656e6f756e636560448201526e103937b632b9903337b91039b2b63360891b60648201526084015b60405180910390fd5b61070e82826110c7565b5050565b306001600160a01b037f000000000000000000000000000000000000000000000000000000000000000016141561075b5760405162461bcd60e51b81526004016106fb90611e9f565b7f00000000000000000000000000000000000000000000000000000000000000006001600160a01b03166107a460008051602061219a833981519152546001600160a01b031690565b6001600160a01b0316146107ca5760405162461bcd60e51b81526004016106fb90611eeb565b6107d38161112e565b604080516000808252602082019092526107ef91839190611158565b50565b6000336106378185856108058383610cb8565b61080f9190611f4d565b610ce3565b6000805160206121ba83398151915261082c81611037565b6107ef6112d2565b6107ef3382611324565b306001600160a01b037f00000000000000000000000000000000000000000000000000000000000000001614156108875760405162461bcd60e51b81526004016106fb90611e9f565b7f00000000000000000000000000000000000000000000000000000000000000006001600160a01b03166108d060008051602061219a833981519152546001600160a01b031690565b6001600160a01b0316146108f65760405162461bcd60e51b81526004016106fb90611eeb565b6108ff8261112e565b61070e82826001611158565b6000306001600160a01b037f000000000000000000000000000000000000000000000000000000000000000016146109ab5760405162461bcd60e51b815260206004820152603860248201527f555550535570677261646561626c653a206d757374206e6f742062652063616c60448201527f6c6564207468726f7567682064656c656761746563616c6c000000000000000060648201526084016106fb565b5060008051602061219a83398151915290565b6109c9823383610e07565b61070e8282611324565b600054610100900460ff16158080156109f35750600054600160ff909116105b80610a0d5750303b158015610a0d575060005460ff166001145b610a705760405162461bcd60e51b815260206004820152602e60248201527f496e697469616c697a61626c653a20636f6e747261637420697320616c72656160448201526d191e481a5b9a5d1a585b1a5e995960921b60648201526084016106fb565b6000805460ff191660011790558015610a93576000805461ff0019166101001790555b610ad8604051806040016040528060078152602001665052415858495360c81b815250604051806040016040528060048152602001630a082b0b60e31b815250611464565b610ae0611495565b610ae86114be565b610af0611495565b610af8611495565b610b03600033611041565b610b1b6000805160206121ba83398151915233611041565b610b3e33610b2b6012600a612049565b610b3990633b9aca00612058565b6114ed565b610b687f189ab7a9244df0848122154315af71fe140f3db0fe014031783b0946b8c9d2e333611041565b80156107ef576000805461ff0019169055604051600181527f7f26b83ff96e1f2b6a682f133852f6798a09c465da95921460cefb38474024989060200160405180910390a150565b6000805160206121ba833981519152610bc881611037565b6107ef6115ba565b600091825260fb602090815260408084206001600160a01b0393909316845291905290205460ff1690565b6060603780546105a690611e64565b60003381610c188286610cb8565b905083811015610c785760405162461bcd60e51b815260206004820152602560248201527f45524332303a2064656372656173656420616c6c6f77616e63652062656c6f77604482015264207a65726f60d81b60648201526084016106fb565b61065a8286868403610ce3565b600033610637818585610e81565b600082815260fb6020526040902060010154610cae81611037565b61068a83836110c7565b6001600160a01b03918216600090815260346020908152604080832093909416825291909152205490565b6001600160a01b038316610d455760405162461bcd60e51b8152602060048201526024808201527f45524332303a20617070726f76652066726f6d20746865207a65726f206164646044820152637265737360e01b60648201526084016106fb565b6001600160a01b038216610da65760405162461bcd60e51b815260206004820152602260248201527f45524332303a20617070726f766520746f20746865207a65726f206164647265604482015261737360f01b60648201526084016106fb565b6001600160a01b0383811660008181526034602090815260408083209487168084529482529182902085905590518481527f8c5be1e5ebec7d5bd14f71427d1e84f3dd0314c0f7b2291e5b200ac8c7c3b925910160405180910390a3505050565b6000610e138484610cb8565b90506000198114610e7b5781811015610e6e5760405162461bcd60e51b815260206004820152601d60248201527f45524332303a20696e73756666696369656e7420616c6c6f77616e636500000060448201526064016106fb565b610e7b8484848403610ce3565b50505050565b6001600160a01b038316610ee55760405162461bcd60e51b815260206004820152602560248201527f45524332303a207472616e736665722066726f6d20746865207a65726f206164604482015264647265737360d81b60648201526084016106fb565b6001600160a01b038216610f475760405162461bcd60e51b815260206004820152602360248201527f45524332303a207472616e7366657220746f20746865207a65726f206164647260448201526265737360e81b60648201526084016106fb565b610f528383836115f7565b6001600160a01b03831660009081526033602052604090205481811015610fca5760405162461bcd60e51b815260206004820152602660248201527f45524332303a207472616e7366657220616d6f756e7420657863656564732062604482015265616c616e636560d01b60648201526084016106fb565b6001600160a01b0380851660008181526033602052604080822086860390559286168082529083902080548601905591517fddf252ad1be2c89b69c2b068fc378daa952ba7f163c4a11628f55a4df523b3ef9061102a9086815260200190565b60405180910390a3610e7b565b6107ef81336115ff565b61104b8282610bd0565b61070e57600082815260fb602090815260408083206001600160a01b03851684529091529020805460ff191660011790556110833390565b6001600160a01b0316816001600160a01b0316837f2f8788117e7eff1d82e926ec794901d17c78024a50270940304540a733656f0d60405160405180910390a45050565b6110d18282610bd0565b1561070e57600082815260fb602090815260408083206001600160a01b0385168085529252808320805460ff1916905551339285917ff6391f5c32d9c69d2a47ea670b442974b53935d1edc7fd64eb21e047a839171b9190a45050565b7f189ab7a9244df0848122154315af71fe140f3db0fe014031783b0946b8c9d2e361070e81611037565b7f4910fdfa16fed3260ed0e7147f7cc6da11a60208b5b9406d12a635614ffd91435460ff161561118b5761068a83611658565b826001600160a01b03166352d1902d6040518163ffffffff1660e01b815260040160206040518083038186803b1580156111c457600080fd5b505afa9250505080156111f4575060408051601f3d908101601f191682019092526111f191810190612077565b60015b6112575760405162461bcd60e51b815260206004820152602e60248201527f45524331393637557067726164653a206e657720696d706c656d656e7461746960448201526d6f6e206973206e6f74205555505360901b60648201526084016106fb565b60008051602061219a83398151915281146112c65760405162461bcd60e51b815260206004820152602960248201527f45524331393637557067726164653a20756e737570706f727465642070726f786044820152681a58589b195555525160ba1b60648201526084016106fb565b5061068a8383836116f4565b6112da611719565b6097805460ff191690557f5db9ee0a495bf2e6ff9c91a7834c1ba4fdd244a5e8aa4e537bd38aeae4b073aa335b6040516001600160a01b03909116815260200160405180910390a1565b6001600160a01b0382166113845760405162461bcd60e51b815260206004820152602160248201527f45524332303a206275726e2066726f6d20746865207a65726f206164647265736044820152607360f81b60648201526084016106fb565b611390826000836115f7565b6001600160a01b038216600090815260336020526040902054818110156114045760405162461bcd60e51b815260206004820152602260248201527f45524332303a206275726e20616d6f756e7420657863656564732062616c616e604482015261636560f01b60648201526084016106fb565b6001600160a01b03831660008181526033602090815260408083208686039055603580548790039055518581529192917fddf252ad1be2c89b69c2b068fc378daa952ba7f163c4a11628f55a4df523b3ef910160405180910390a3505050565b600054610100900460ff1661148b5760405162461bcd60e51b81526004016106fb90612090565b61070e8282611762565b600054610100900460ff166114bc5760405162461bcd60e51b81526004016106fb90612090565b565b600054610100900460ff166114e55760405162461bcd60e51b81526004016106fb90612090565b6114bc6117b0565b6001600160a01b0382166115435760405162461bcd60e51b815260206004820152601f60248201527f45524332303a206d696e7420746f20746865207a65726f20616464726573730060448201526064016106fb565b61154f600083836115f7565b80603560008282546115619190611f4d565b90915550506001600160a01b0382166000818152603360209081526040808320805486019055518481527fddf252ad1be2c89b69c2b068fc378daa952ba7f163c4a11628f55a4df523b3ef910160405180910390a35050565b6115c26117e3565b6097805460ff191660011790557f62e78cea01bee320cd4e420270b5ea74000d11b0c9f74754ebdbfc544b05a2586113073390565b61068a6117e3565b6116098282610bd0565b61070e5761161681611829565b61162183602061183b565b6040516020016116329291906120db565b60408051601f198184030181529082905262461bcd60e51b82526106fb91600401611c4d565b6001600160a01b0381163b6116c55760405162461bcd60e51b815260206004820152602d60248201527f455243313936373a206e657720696d706c656d656e746174696f6e206973206e60448201526c1bdd08184818dbdb9d1c9858dd609a1b60648201526084016106fb565b60008051602061219a83398151915280546001600160a01b0319166001600160a01b0392909216919091179055565b6116fd836119de565b60008251118061170a5750805b1561068a57610e7b8383611a1e565b60975460ff166114bc5760405162461bcd60e51b815260206004820152601460248201527314185d5cd8589b194e881b9bdd081c185d5cd95960621b60448201526064016106fb565b600054610100900460ff166117895760405162461bcd60e51b81526004016106fb90612090565b815161179c906036906020850190611b5e565b50805161068a906037906020840190611b5e565b600054610100900460ff166117d75760405162461bcd60e51b81526004016106fb90612090565b6097805460ff19169055565b60975460ff16156114bc5760405162461bcd60e51b815260206004820152601060248201526f14185d5cd8589b194e881c185d5cd95960821b60448201526064016106fb565b60606105916001600160a01b03831660145b6060600061184a836002612058565b611855906002611f4d565b67ffffffffffffffff81111561186d5761186d611d62565b6040519080825280601f01601f191660200182016040528015611897576020820181803683370190505b509050600360fc1b816000815181106118b2576118b2612150565b60200101906001600160f81b031916908160001a905350600f60fb1b816001815181106118e1576118e1612150565b60200101906001600160f81b031916908160001a9053506000611905846002612058565b611910906001611f4d565b90505b6001811115611988576f181899199a1a9b1b9c1cb0b131b232b360811b85600f166010811061194457611944612150565b1a60f81b82828151811061195a5761195a612150565b60200101906001600160f81b031916908160001a90535060049490941c9361198181612166565b9050611913565b5083156119d75760405162461bcd60e51b815260206004820181905260248201527f537472696e67733a20686578206c656e67746820696e73756666696369656e7460448201526064016106fb565b9392505050565b6119e781611658565b6040516001600160a01b038216907fbc7cd75a20ee27fd9adebab32041f755214dbc6bffa90cc0225b39da2e5c2d3b90600090a250565b60606119d783836040518060600160405280602781526020016121da602791396060600080856001600160a01b031685604051611a5b919061217d565b600060405180830381855af49150503d8060008114611a96576040519150601f19603f3d011682016040523d82523d6000602084013e611a9b565b606091505b5091509150611aac86838387611ab6565b9695505050505050565b60608315611b22578251611b1b576001600160a01b0385163b611b1b5760405162461bcd60e51b815260206004820152601d60248201527f416464726573733a2063616c6c20746f206e6f6e2d636f6e747261637400000060448201526064016106fb565b5081611b2c565b611b2c8383611b34565b949350505050565b815115611b445781518083602001fd5b8060405162461bcd60e51b81526004016106fb9190611c4d565b828054611b6a90611e64565b90600052602060002090601f016020900481019282611b8c5760008555611bd2565b82601f10611ba557805160ff1916838001178555611bd2565b82800160010185558215611bd2579182015b82811115611bd2578251825591602001919060010190611bb7565b50611bde929150611be2565b5090565b5b80821115611bde5760008155600101611be3565b600060208284031215611c0957600080fd5b81356001600160e01b0319811681146119d757600080fd5b60005b83811015611c3c578181015183820152602001611c24565b83811115610e7b5750506000910152565b6020815260008251806020840152611c6c816040850160208701611c21565b601f01601f19169190910160400192915050565b80356001600160a01b0381168114611c9757600080fd5b919050565b60008060408385031215611caf57600080fd5b611cb883611c80565b946020939093013593505050565b600080600060608486031215611cdb57600080fd5b611ce484611c80565b9250611cf260208501611c80565b9150604084013590509250925092565b600060208284031215611d1457600080fd5b5035919050565b60008060408385031215611d2e57600080fd5b82359150611d3e60208401611c80565b90509250929050565b600060208284031215611d5957600080fd5b6119d782611c80565b634e487b7160e01b600052604160045260246000fd5b60008060408385031215611d8b57600080fd5b611d9483611c80565b9150602083013567ffffffffffffffff80821115611db157600080fd5b818501915085601f830112611dc557600080fd5b813581811115611dd757611dd7611d62565b604051601f8201601f19908116603f01168101908382118183101715611dff57611dff611d62565b81604052828152886020848701011115611e1857600080fd5b8260208601602083013760006020848301015280955050505050509250929050565b60008060408385031215611e4d57600080fd5b611e5683611c80565b9150611d3e60208401611c80565b600181811c90821680611e7857607f821691505b60208210811415611e9957634e487b7160e01b600052602260045260246000fd5b50919050565b6020808252602c908201527f46756e6374696f6e206d7573742062652063616c6c6564207468726f7567682060408201526b19195b1959d85d1958d85b1b60a21b606082015260800190565b6020808252602c908201527f46756e6374696f6e206d7573742062652063616c6c6564207468726f7567682060408201526b6163746976652070726f787960a01b606082015260800190565b634e487b7160e01b600052601160045260246000fd5b60008219821115611f6057611f60611f37565b500190565b600181815b80851115611fa0578160001904821115611f8657611f86611f37565b80851615611f9357918102915b93841c9390800290611f6a565b509250929050565b600082611fb757506001610591565b81611fc457506000610591565b8160018114611fda5760028114611fe457612000565b6001915050610591565b60ff841115611ff557611ff5611f37565b50506001821b610591565b5060208310610133831016604e8410600b8410161715612023575081810a610591565b61202d8383611f65565b806000190482111561204157612041611f37565b029392505050565b60006119d760ff841683611fa8565b600081600019048311821515161561207257612072611f37565b500290565b60006020828403121561208957600080fd5b5051919050565b6020808252602b908201527f496e697469616c697a61626c653a20636f6e7472616374206973206e6f74206960408201526a6e697469616c697a696e6760a81b606082015260800190565b7f416363657373436f6e74726f6c3a206163636f756e7420000000000000000000815260008351612113816017850160208801611c21565b7001034b99036b4b9b9b4b733903937b6329607d1b6017918401918201528351612144816028840160208801611c21565b01602801949350505050565b634e487b7160e01b600052603260045260246000fd5b60008161217557612175611f37565b506000190190565b6000825161218f818460208701611c21565b919091019291505056fe360894a13ba1a3210667c828492db98dca3e2076cc3735a920a3ca505d382bbc65d7a28e3265b37a6474929f336521b332c1681b933f6cb9f3376673440d862a416464726573733a206c6f772d6c6576656c2064656c65676174652063616c6c206661696c6564a2646970667358221220c026e58ae13b5c64482eb691d8013675b76b325e89fca4ee10252d5638ff4c0c64736f6c63430008090033",
					"opcodes": "PUSH1 0xA0 PUSH1 0x40 MSTORE ADDRESS PUSH1 0x80 MSTORE CALLVALUE DUP1 ISZERO PUSH2 0x14 JUMPI PUSH1 0x0 DUP1 REVERT JUMPDEST POP PUSH2 0x1D PUSH2 0x22 JUMP JUMPDEST PUSH2 0xE1 JUMP JUMPDEST PUSH1 0x0 SLOAD PUSH2 0x100 SWAP1 DIV PUSH1 0xFF AND ISZERO PUSH2 0x8E JUMPI PUSH1 0x40 MLOAD PUSH3 0x461BCD PUSH1 0xE5 SHL DUP2 MSTORE PUSH1 0x20 PUSH1 0x4 DUP3 ADD MSTORE PUSH1 0x27 PUSH1 0x24 DUP3 ADD MSTORE PUSH32 0x496E697469616C697A61626C653A20636F6E747261637420697320696E697469 PUSH1 0x44 DUP3 ADD MSTORE PUSH7 0x616C697A696E67 PUSH1 0xC8 SHL PUSH1 0x64 DUP3 ADD MSTORE PUSH1 0x84 ADD PUSH1 0x40 MLOAD DUP1 SWAP2 SUB SWAP1 REVERT JUMPDEST PUSH1 0x0 SLOAD PUSH1 0xFF SWAP1 DUP2 AND EQ PUSH2 0xDF JUMPI PUSH1 0x0 DUP1 SLOAD PUSH1 0xFF NOT AND PUSH1 0xFF SWAP1 DUP2 OR SWAP1 SWAP2 SSTORE PUSH1 0x40 MLOAD SWAP1 DUP2 MSTORE PUSH32 0x7F26B83FF96E1F2B6A682F133852F6798A09C465DA95921460CEFB3847402498 SWAP1 PUSH1 0x20 ADD PUSH1 0x40 MLOAD DUP1 SWAP2 SUB SWAP1 LOG1 JUMPDEST JUMP JUMPDEST PUSH1 0x80 MLOAD PUSH2 0x2236 PUSH3 0x119 PUSH1 0x0 CODECOPY PUSH1 0x0 DUP2 DUP2 PUSH2 0x71D ADD MSTORE DUP2 DUP2 PUSH2 0x75D ADD MSTORE DUP2 DUP2 PUSH2 0x849 ADD MSTORE DUP2 DUP2 PUSH2 0x889 ADD MSTORE PUSH2 0x918 ADD MSTORE PUSH2 0x2236 PUSH1 0x0 RETURN INVALID PUSH1 0x80 PUSH1 0x40 MSTORE PUSH1 0x4 CALLDATASIZE LT PUSH2 0x1C2 JUMPI PUSH1 0x0 CALLDATALOAD PUSH1 0xE0 SHR DUP1 PUSH4 0x52D1902D GT PUSH2 0xF7 JUMPI DUP1 PUSH4 0x95D89B41 GT PUSH2 0x95 JUMPI DUP1 PUSH4 0xD547741F GT PUSH2 0x64 JUMPI DUP1 PUSH4 0xD547741F EQ PUSH2 0x4CA JUMPI DUP1 PUSH4 0xDD62ED3E EQ PUSH2 0x4EA JUMPI DUP1 PUSH4 0xE63AB1E9 EQ PUSH2 0x50A JUMPI DUP1 PUSH4 0xF72C0D8B EQ PUSH2 0x52C JUMPI PUSH1 0x0 DUP1 REVERT JUMPDEST DUP1 PUSH4 0x95D89B41 EQ PUSH2 0x460 JUMPI DUP1 PUSH4 0xA217FDDF EQ PUSH2 0x475 JUMPI DUP1 PUSH4 0xA457C2D7 EQ PUSH2 0x48A JUMPI DUP1 PUSH4 0xA9059CBB EQ PUSH2 0x4AA JUMPI PUSH1 0x0 DUP1 REVERT JUMPDEST DUP1 PUSH4 0x79CC6790 GT PUSH2 0xD1 JUMPI DUP1 PUSH4 0x79CC6790 EQ PUSH2 0x3F6 JUMPI DUP1 PUSH4 0x8129FC1C EQ PUSH2 0x416 JUMPI DUP1 PUSH4 0x8456CB59 EQ PUSH2 0x42B JUMPI DUP1 PUSH4 0x91D14854 EQ PUSH2 0x440 JUMPI PUSH1 0x0 DUP1 REVERT JUMPDEST DUP1 PUSH4 0x52D1902D EQ PUSH2 0x393 JUMPI DUP1 PUSH4 0x5C975ABB EQ PUSH2 0x3A8 JUMPI DUP1 PUSH4 0x70A08231 EQ PUSH2 0x3C0 JUMPI PUSH1 0x0 DUP1 REVERT JUMPDEST DUP1 PUSH4 0x313CE567 GT PUSH2 0x164 JUMPI DUP1 PUSH4 0x39509351 GT PUSH2 0x13E JUMPI DUP1 PUSH4 0x39509351 EQ PUSH2 0x32B JUMPI DUP1 PUSH4 0x3F4BA83A EQ PUSH2 0x34B JUMPI DUP1 PUSH4 0x42966C68 EQ PUSH2 0x360 JUMPI DUP1 PUSH4 0x4F1EF286 EQ PUSH2 0x380 JUMPI PUSH1 0x0 DUP1 REVERT JUMPDEST DUP1 PUSH4 0x313CE567 EQ PUSH2 0x2CF JUMPI DUP1 PUSH4 0x36568ABE EQ PUSH2 0x2EB JUMPI DUP1 PUSH4 0x3659CFE6 EQ PUSH2 0x30B JUMPI PUSH1 0x0 DUP1 REVERT JUMPDEST DUP1 PUSH4 0x18160DDD GT PUSH2 0x1A0 JUMPI DUP1 PUSH4 0x18160DDD EQ PUSH2 0x23E JUMPI DUP1 PUSH4 0x23B872DD EQ PUSH2 0x25D JUMPI DUP1 PUSH4 0x248A9CA3 EQ PUSH2 0x27D JUMPI DUP1 PUSH4 0x2F2FF15D EQ PUSH2 0x2AD JUMPI PUSH1 0x0 DUP1 REVERT JUMPDEST DUP1 PUSH4 0x1FFC9A7 EQ PUSH2 0x1C7 JUMPI DUP1 PUSH4 0x6FDDE03 EQ PUSH2 0x1FC JUMPI DUP1 PUSH4 0x95EA7B3 EQ PUSH2 0x21E JUMPI JUMPDEST PUSH1 0x0 DUP1 REVERT JUMPDEST CALLVALUE DUP1 ISZERO PUSH2 0x1D3 JUMPI PUSH1 0x0 DUP1 REVERT JUMPDEST POP PUSH2 0x1E7 PUSH2 0x1E2 CALLDATASIZE PUSH1 0x4 PUSH2 0x1BF7 JUMP JUMPDEST PUSH2 0x560 JUMP JUMPDEST PUSH1 0x40 MLOAD SWAP1 ISZERO ISZERO DUP2 MSTORE PUSH1 0x20 ADD JUMPDEST PUSH1 0x40 MLOAD DUP1 SWAP2 SUB SWAP1 RETURN JUMPDEST CALLVALUE DUP1 ISZERO PUSH2 0x208 JUMPI PUSH1 0x0 DUP1 REVERT JUMPDEST POP PUSH2 0x211 PUSH2 0x597 JUMP JUMPDEST PUSH1 0x40 MLOAD PUSH2 0x1F3 SWAP2 SWAP1 PUSH2 0x1C4D JUMP JUMPDEST CALLVALUE DUP1 ISZERO PUSH2 0x22A JUMPI PUSH1 0x0 DUP1 REVERT JUMPDEST POP PUSH2 0x1E7 PUSH2 0x239 CALLDATASIZE PUSH1 0x4 PUSH2 0x1C9C JUMP JUMPDEST PUSH2 0x629 JUMP JUMPDEST CALLVALUE DUP1 ISZERO PUSH2 0x24A JUMPI PUSH1 0x0 DUP1 REVERT JUMPDEST POP PUSH1 0x35 SLOAD JUMPDEST PUSH1 0x40 MLOAD SWAP1 DUP2 MSTORE PUSH1 0x20 ADD PUSH2 0x1F3 JUMP JUMPDEST CALLVALUE DUP1 ISZERO PUSH2 0x269 JUMPI PUSH1 0x0 DUP1 REVERT JUMPDEST POP PUSH2 0x1E7 PUSH2 0x278 CALLDATASIZE PUSH1 0x4 PUSH2 0x1CC6 JUMP JUMPDEST PUSH2 0x641 JUMP JUMPDEST CALLVALUE DUP1 ISZERO PUSH2 0x289 JUMPI PUSH1 0x0 DUP1 REVERT JUMPDEST POP PUSH2 0x24F PUSH2 0x298 CALLDATASIZE PUSH1 0x4 PUSH2 0x1D02 JUMP JUMPDEST PUSH1 0x0 SWAP1 DUP2 MSTORE PUSH1 0xFB PUSH1 0x20 MSTORE PUSH1 0x40 SWAP1 KECCAK256 PUSH1 0x1 ADD SLOAD SWAP1 JUMP JUMPDEST CALLVALUE DUP1 ISZERO PUSH2 0x2B9 JUMPI PUSH1 0x0 DUP1 REVERT JUMPDEST POP PUSH2 0x2CD PUSH2 0x2C8 CALLDATASIZE PUSH1 0x4 PUSH2 0x1D1B JUMP JUMPDEST PUSH2 0x665 JUMP JUMPDEST STOP JUMPDEST CALLVALUE DUP1 ISZERO PUSH2 0x2DB JUMPI PUSH1 0x0 DUP1 REVERT JUMPDEST POP PUSH1 0x40 MLOAD PUSH1 0x12 DUP2 MSTORE PUSH1 0x20 ADD PUSH2 0x1F3 JUMP JUMPDEST CALLVALUE DUP1 ISZERO PUSH2 0x2F7 JUMPI PUSH1 0x0 DUP1 REVERT JUMPDEST POP PUSH2 0x2CD PUSH2 0x306 CALLDATASIZE PUSH1 0x4 PUSH2 0x1D1B JUMP JUMPDEST PUSH2 0x68F JUMP JUMPDEST CALLVALUE DUP1 ISZERO PUSH2 0x317 JUMPI PUSH1 0x0 DUP1 REVERT JUMPDEST POP PUSH2 0x2CD PUSH2 0x326 CALLDATASIZE PUSH1 0x4 PUSH2 0x1D47 JUMP JUMPDEST PUSH2 0x712 JUMP JUMPDEST CALLVALUE DUP1 ISZERO PUSH2 0x337 JUMPI PUSH1 0x0 DUP1 REVERT JUMPDEST POP PUSH2 0x1E7 PUSH2 0x346 CALLDATASIZE PUSH1 0x4 PUSH2 0x1C9C JUMP JUMPDEST PUSH2 0x7F2 JUMP JUMPDEST CALLVALUE DUP1 ISZERO PUSH2 0x357 JUMPI PUSH1 0x0 DUP1 REVERT JUMPDEST POP PUSH2 0x2CD PUSH2 0x814 JUMP JUMPDEST CALLVALUE DUP1 ISZERO PUSH2 0x36C JUMPI PUSH1 0x0 DUP1 REVERT JUMPDEST POP PUSH2 0x2CD PUSH2 0x37B CALLDATASIZE PUSH1 0x4 PUSH2 0x1D02 JUMP JUMPDEST PUSH2 0x834 JUMP JUMPDEST PUSH2 0x2CD PUSH2 0x38E CALLDATASIZE PUSH1 0x4 PUSH2 0x1D78 JUMP JUMPDEST PUSH2 0x83E JUMP JUMPDEST CALLVALUE DUP1 ISZERO PUSH2 0x39F JUMPI PUSH1 0x0 DUP1 REVERT JUMPDEST POP PUSH2 0x24F PUSH2 0x90B JUMP JUMPDEST CALLVALUE DUP1 ISZERO PUSH2 0x3B4 JUMPI PUSH1 0x0 DUP1 REVERT JUMPDEST POP PUSH1 0x97 SLOAD PUSH1 0xFF AND PUSH2 0x1E7 JUMP JUMPDEST CALLVALUE DUP1 ISZERO PUSH2 0x3CC JUMPI PUSH1 0x0 DUP1 REVERT JUMPDEST POP PUSH2 0x24F PUSH2 0x3DB CALLDATASIZE PUSH1 0x4 PUSH2 0x1D47 JUMP JUMPDEST PUSH1 0x1 PUSH1 0x1 PUSH1 0xA0 SHL SUB AND PUSH1 0x0 SWAP1 DUP2 MSTORE PUSH1 0x33 PUSH1 0x20 MSTORE PUSH1 0x40 SWAP1 KECCAK256 SLOAD SWAP1 JUMP JUMPDEST CALLVALUE DUP1 ISZERO PUSH2 0x402 JUMPI PUSH1 0x0 DUP1 REVERT JUMPDEST POP PUSH2 0x2CD PUSH2 0x411 CALLDATASIZE PUSH1 0x4 PUSH2 0x1C9C JUMP JUMPDEST PUSH2 0x9BE JUMP JUMPDEST CALLVALUE DUP1 ISZERO PUSH2 0x422 JUMPI PUSH1 0x0 DUP1 REVERT JUMPDEST POP PUSH2 0x2CD PUSH2 0x9D3 JUMP JUMPDEST CALLVALUE DUP1 ISZERO PUSH2 0x437 JUMPI PUSH1 0x0 DUP1 REVERT JUMPDEST POP PUSH2 0x2CD PUSH2 0xBB0 JUMP JUMPDEST CALLVALUE DUP1 ISZERO PUSH2 0x44C JUMPI PUSH1 0x0 DUP1 REVERT JUMPDEST POP PUSH2 0x1E7 PUSH2 0x45B CALLDATASIZE PUSH1 0x4 PUSH2 0x1D1B JUMP JUMPDEST PUSH2 0xBD0 JUMP JUMPDEST CALLVALUE DUP1 ISZERO PUSH2 0x46C JUMPI PUSH1 0x0 DUP1 REVERT JUMPDEST POP PUSH2 0x211 PUSH2 0xBFB JUMP JUMPDEST CALLVALUE DUP1 ISZERO PUSH2 0x481 JUMPI PUSH1 0x0 DUP1 REVERT JUMPDEST POP PUSH2 0x24F PUSH1 0x0 DUP2 JUMP JUMPDEST CALLVALUE DUP1 ISZERO PUSH2 0x496 JUMPI PUSH1 0x0 DUP1 REVERT JUMPDEST POP PUSH2 0x1E7 PUSH2 0x4A5 CALLDATASIZE PUSH1 0x4 PUSH2 0x1C9C JUMP JUMPDEST PUSH2 0xC0A JUMP JUMPDEST CALLVALUE DUP1 ISZERO PUSH2 0x4B6 JUMPI PUSH1 0x0 DUP1 REVERT JUMPDEST POP PUSH2 0x1E7 PUSH2 0x4C5 CALLDATASIZE PUSH1 0x4 PUSH2 0x1C9C JUMP JUMPDEST PUSH2 0xC85 JUMP JUMPDEST CALLVALUE DUP1 ISZERO PUSH2 0x4D6 JUMPI PUSH1 0x0 DUP1 REVERT JUMPDEST POP PUSH2 0x2CD PUSH2 0x4E5 CALLDATASIZE PUSH1 0x4 PUSH2 0x1D1B JUMP JUMPDEST PUSH2 0xC93 JUMP JUMPDEST CALLVALUE DUP1 ISZERO PUSH2 0x4F6 JUMPI PUSH1 0x0 DUP1 REVERT JUMPDEST POP PUSH2 0x24F PUSH2 0x505 CALLDATASIZE PUSH1 0x4 PUSH2 0x1E3A JUMP JUMPDEST PUSH2 0xCB8 JUMP JUMPDEST CALLVALUE DUP1 ISZERO PUSH2 0x516 JUMPI PUSH1 0x0 DUP1 REVERT JUMPDEST POP PUSH2 0x24F PUSH1 0x0 DUP1 MLOAD PUSH1 0x20 PUSH2 0x21BA DUP4 CODECOPY DUP2 MLOAD SWAP2 MSTORE DUP2 JUMP JUMPDEST CALLVALUE DUP1 ISZERO PUSH2 0x538 JUMPI PUSH1 0x0 DUP1 REVERT JUMPDEST POP PUSH2 0x24F PUSH32 0x189AB7A9244DF0848122154315AF71FE140F3DB0FE014031783B0946B8C9D2E3 DUP2 JUMP JUMPDEST PUSH1 0x0 PUSH1 0x1 PUSH1 0x1 PUSH1 0xE0 SHL SUB NOT DUP3 AND PUSH4 0x7965DB0B PUSH1 0xE0 SHL EQ DUP1 PUSH2 0x591 JUMPI POP PUSH4 0x1FFC9A7 PUSH1 0xE0 SHL PUSH1 0x1 PUSH1 0x1 PUSH1 0xE0 SHL SUB NOT DUP4 AND EQ JUMPDEST SWAP3 SWAP2 POP POP JUMP JUMPDEST PUSH1 0x60 PUSH1 0x36 DUP1 SLOAD PUSH2 0x5A6 SWAP1 PUSH2 0x1E64 JUMP JUMPDEST DUP1 PUSH1 0x1F ADD PUSH1 0x20 DUP1 SWAP2 DIV MUL PUSH1 0x20 ADD PUSH1 0x40 MLOAD SWAP1 DUP2 ADD PUSH1 0x40 MSTORE DUP1 SWAP3 SWAP2 SWAP1 DUP2 DUP2 MSTORE PUSH1 0x20 ADD DUP3 DUP1 SLOAD PUSH2 0x5D2 SWAP1 PUSH2 0x1E64 JUMP JUMPDEST DUP1 ISZERO PUSH2 0x61F JUMPI DUP1 PUSH1 0x1F LT PUSH2 0x5F4 JUMPI PUSH2 0x100 DUP1 DUP4 SLOAD DIV MUL DUP4 MSTORE SWAP2 PUSH1 0x20 ADD SWAP2 PUSH2 0x61F JUMP JUMPDEST DUP3 ADD SWAP2 SWAP1 PUSH1 0x0 MSTORE PUSH1 0x20 PUSH1 0x0 KECCAK256 SWAP1 JUMPDEST DUP2 SLOAD DUP2 MSTORE SWAP1 PUSH1 0x1 ADD SWAP1 PUSH1 0x20 ADD DUP1 DUP4 GT PUSH2 0x602 JUMPI DUP3 SWAP1 SUB PUSH1 0x1F AND DUP3 ADD SWAP2 JUMPDEST POP POP POP POP POP SWAP1 POP SWAP1 JUMP JUMPDEST PUSH1 0x0 CALLER PUSH2 0x637 DUP2 DUP6 DUP6 PUSH2 0xCE3 JUMP JUMPDEST POP PUSH1 0x1 SWAP4 SWAP3 POP POP POP JUMP JUMPDEST PUSH1 0x0 CALLER PUSH2 0x64F DUP6 DUP3 DUP6 PUSH2 0xE07 JUMP JUMPDEST PUSH2 0x65A DUP6 DUP6 DUP6 PUSH2 0xE81 JUMP JUMPDEST POP PUSH1 0x1 SWAP5 SWAP4 POP POP POP POP JUMP JUMPDEST PUSH1 0x0 DUP3 DUP2 MSTORE PUSH1 0xFB PUSH1 0x20 MSTORE PUSH1 0x40 SWAP1 KECCAK256 PUSH1 0x1 ADD SLOAD PUSH2 0x680 DUP2 PUSH2 0x1037 JUMP JUMPDEST PUSH2 0x68A DUP4 DUP4 PUSH2 0x1041 JUMP JUMPDEST POP POP POP JUMP JUMPDEST PUSH1 0x1 PUSH1 0x1 PUSH1 0xA0 SHL SUB DUP2 AND CALLER EQ PUSH2 0x704 JUMPI PUSH1 0x40 MLOAD PUSH3 0x461BCD PUSH1 0xE5 SHL DUP2 MSTORE PUSH1 0x20 PUSH1 0x4 DUP3 ADD MSTORE PUSH1 0x2F PUSH1 0x24 DUP3 ADD MSTORE PUSH32 0x416363657373436F6E74726F6C3A2063616E206F6E6C792072656E6F756E6365 PUSH1 0x44 DUP3 ADD MSTORE PUSH15 0x103937B632B9903337B91039B2B633 PUSH1 0x89 SHL PUSH1 0x64 DUP3 ADD MSTORE PUSH1 0x84 ADD JUMPDEST PUSH1 0x40 MLOAD DUP1 SWAP2 SUB SWAP1 REVERT JUMPDEST PUSH2 0x70E DUP3 DUP3 PUSH2 0x10C7 JUMP JUMPDEST POP POP JUMP JUMPDEST ADDRESS PUSH1 0x1 PUSH1 0x1 PUSH1 0xA0 SHL SUB PUSH32 0x0 AND EQ ISZERO PUSH2 0x75B JUMPI PUSH1 0x40 MLOAD PUSH3 0x461BCD PUSH1 0xE5 SHL DUP2 MSTORE PUSH1 0x4 ADD PUSH2 0x6FB SWAP1 PUSH2 0x1E9F JUMP JUMPDEST PUSH32 0x0 PUSH1 0x1 PUSH1 0x1 PUSH1 0xA0 SHL SUB AND PUSH2 0x7A4 PUSH1 0x0 DUP1 MLOAD PUSH1 0x20 PUSH2 0x219A DUP4 CODECOPY DUP2 MLOAD SWAP2 MSTORE SLOAD PUSH1 0x1 PUSH1 0x1 PUSH1 0xA0 SHL SUB AND SWAP1 JUMP JUMPDEST PUSH1 0x1 PUSH1 0x1 PUSH1 0xA0 SHL SUB AND EQ PUSH2 0x7CA JUMPI PUSH1 0x40 MLOAD PUSH3 0x461BCD PUSH1 0xE5 SHL DUP2 MSTORE PUSH1 0x4 ADD PUSH2 0x6FB SWAP1 PUSH2 0x1EEB JUMP JUMPDEST PUSH2 0x7D3 DUP2 PUSH2 0x112E JUMP JUMPDEST PUSH1 0x40 DUP1 MLOAD PUSH1 0x0 DUP1 DUP3 MSTORE PUSH1 0x20 DUP3 ADD SWAP1 SWAP3 MSTORE PUSH2 0x7EF SWAP2 DUP4 SWAP2 SWAP1 PUSH2 0x1158 JUMP JUMPDEST POP JUMP JUMPDEST PUSH1 0x0 CALLER PUSH2 0x637 DUP2 DUP6 DUP6 PUSH2 0x805 DUP4 DUP4 PUSH2 0xCB8 JUMP JUMPDEST PUSH2 0x80F SWAP2 SWAP1 PUSH2 0x1F4D JUMP JUMPDEST PUSH2 0xCE3 JUMP JUMPDEST PUSH1 0x0 DUP1 MLOAD PUSH1 0x20 PUSH2 0x21BA DUP4 CODECOPY DUP2 MLOAD SWAP2 MSTORE PUSH2 0x82C DUP2 PUSH2 0x1037 JUMP JUMPDEST PUSH2 0x7EF PUSH2 0x12D2 JUMP JUMPDEST PUSH2 0x7EF CALLER DUP3 PUSH2 0x1324 JUMP JUMPDEST ADDRESS PUSH1 0x1 PUSH1 0x1 PUSH1 0xA0 SHL SUB PUSH32 0x0 AND EQ ISZERO PUSH2 0x887 JUMPI PUSH1 0x40 MLOAD PUSH3 0x461BCD PUSH1 0xE5 SHL DUP2 MSTORE PUSH1 0x4 ADD PUSH2 0x6FB SWAP1 PUSH2 0x1E9F JUMP JUMPDEST PUSH32 0x0 PUSH1 0x1 PUSH1 0x1 PUSH1 0xA0 SHL SUB AND PUSH2 0x8D0 PUSH1 0x0 DUP1 MLOAD PUSH1 0x20 PUSH2 0x219A DUP4 CODECOPY DUP2 MLOAD SWAP2 MSTORE SLOAD PUSH1 0x1 PUSH1 0x1 PUSH1 0xA0 SHL SUB AND SWAP1 JUMP JUMPDEST PUSH1 0x1 PUSH1 0x1 PUSH1 0xA0 SHL SUB AND EQ PUSH2 0x8F6 JUMPI PUSH1 0x40 MLOAD PUSH3 0x461BCD PUSH1 0xE5 SHL DUP2 MSTORE PUSH1 0x4 ADD PUSH2 0x6FB SWAP1 PUSH2 0x1EEB JUMP JUMPDEST PUSH2 0x8FF DUP3 PUSH2 0x112E JUMP JUMPDEST PUSH2 0x70E DUP3 DUP3 PUSH1 0x1 PUSH2 0x1158 JUMP JUMPDEST PUSH1 0x0 ADDRESS PUSH1 0x1 PUSH1 0x1 PUSH1 0xA0 SHL SUB PUSH32 0x0 AND EQ PUSH2 0x9AB JUMPI PUSH1 0x40 MLOAD PUSH3 0x461BCD PUSH1 0xE5 SHL DUP2 MSTORE PUSH1 0x20 PUSH1 0x4 DUP3 ADD MSTORE PUSH1 0x38 PUSH1 0x24 DUP3 ADD MSTORE PUSH32 0x555550535570677261646561626C653A206D757374206E6F742062652063616C PUSH1 0x44 DUP3 ADD MSTORE PUSH32 0x6C6564207468726F7567682064656C656761746563616C6C0000000000000000 PUSH1 0x64 DUP3 ADD MSTORE PUSH1 0x84 ADD PUSH2 0x6FB JUMP JUMPDEST POP PUSH1 0x0 DUP1 MLOAD PUSH1 0x20 PUSH2 0x219A DUP4 CODECOPY DUP2 MLOAD SWAP2 MSTORE SWAP1 JUMP JUMPDEST PUSH2 0x9C9 DUP3 CALLER DUP4 PUSH2 0xE07 JUMP JUMPDEST PUSH2 0x70E DUP3 DUP3 PUSH2 0x1324 JUMP JUMPDEST PUSH1 0x0 SLOAD PUSH2 0x100 SWAP1 DIV PUSH1 0xFF AND ISZERO DUP1 DUP1 ISZERO PUSH2 0x9F3 JUMPI POP PUSH1 0x0 SLOAD PUSH1 0x1 PUSH1 0xFF SWAP1 SWAP2 AND LT JUMPDEST DUP1 PUSH2 0xA0D JUMPI POP ADDRESS EXTCODESIZE ISZERO DUP1 ISZERO PUSH2 0xA0D JUMPI POP PUSH1 0x0 SLOAD PUSH1 0xFF AND PUSH1 0x1 EQ JUMPDEST PUSH2 0xA70 JUMPI PUSH1 0x40 MLOAD PUSH3 0x461BCD PUSH1 0xE5 SHL DUP2 MSTORE PUSH1 0x20 PUSH1 0x4 DUP3 ADD MSTORE PUSH1 0x2E PUSH1 0x24 DUP3 ADD MSTORE PUSH32 0x496E697469616C697A61626C653A20636F6E747261637420697320616C726561 PUSH1 0x44 DUP3 ADD MSTORE PUSH14 0x191E481A5B9A5D1A585B1A5E9959 PUSH1 0x92 SHL PUSH1 0x64 DUP3 ADD MSTORE PUSH1 0x84 ADD PUSH2 0x6FB JUMP JUMPDEST PUSH1 0x0 DUP1 SLOAD PUSH1 0xFF NOT AND PUSH1 0x1 OR SWAP1 SSTORE DUP1 ISZERO PUSH2 0xA93 JUMPI PUSH1 0x0 DUP1 SLOAD PUSH2 0xFF00 NOT AND PUSH2 0x100 OR SWAP1 SSTORE JUMPDEST PUSH2 0xAD8 PUSH1 0x40 MLOAD DUP1 PUSH1 0x40 ADD PUSH1 0x40 MSTORE DUP1 PUSH1 0x7 DUP2 MSTORE PUSH1 0x20 ADD PUSH7 0x50524158584953 PUSH1 0xC8 SHL DUP2 MSTORE POP PUSH1 0x40 MLOAD DUP1 PUSH1 0x40 ADD PUSH1 0x40 MSTORE DUP1 PUSH1 0x4 DUP2 MSTORE PUSH1 0x20 ADD PUSH4 0xA082B0B PUSH1 0xE3 SHL DUP2 MSTORE POP PUSH2 0x1464 JUMP JUMPDEST PUSH2 0xAE0 PUSH2 0x1495 JUMP JUMPDEST PUSH2 0xAE8 PUSH2 0x14BE JUMP JUMPDEST PUSH2 0xAF0 PUSH2 0x1495 JUMP JUMPDEST PUSH2 0xAF8 PUSH2 0x1495 JUMP JUMPDEST PUSH2 0xB03 PUSH1 0x0 CALLER PUSH2 0x1041 JUMP JUMPDEST PUSH2 0xB1B PUSH1 0x0 DUP1 MLOAD PUSH1 0x20 PUSH2 0x21BA DUP4 CODECOPY DUP2 MLOAD SWAP2 MSTORE CALLER PUSH2 0x1041 JUMP JUMPDEST PUSH2 0xB3E CALLER PUSH2 0xB2B PUSH1 0x12 PUSH1 0xA PUSH2 0x2049 JUMP JUMPDEST PUSH2 0xB39 SWAP1 PUSH4 0x3B9ACA00 PUSH2 0x2058 JUMP JUMPDEST PUSH2 0x14ED JUMP JUMPDEST PUSH2 0xB68 PUSH32 0x189AB7A9244DF0848122154315AF71FE140F3DB0FE014031783B0946B8C9D2E3 CALLER PUSH2 0x1041 JUMP JUMPDEST DUP1 ISZERO PUSH2 0x7EF JUMPI PUSH1 0x0 DUP1 SLOAD PUSH2 0xFF00 NOT AND SWAP1 SSTORE PUSH1 0x40 MLOAD PUSH1 0x1 DUP2 MSTORE PUSH32 0x7F26B83FF96E1F2B6A682F133852F6798A09C465DA95921460CEFB3847402498 SWAP1 PUSH1 0x20 ADD PUSH1 0x40 MLOAD DUP1 SWAP2 SUB SWAP1 LOG1 POP JUMP JUMPDEST PUSH1 0x0 DUP1 MLOAD PUSH1 0x20 PUSH2 0x21BA DUP4 CODECOPY DUP2 MLOAD SWAP2 MSTORE PUSH2 0xBC8 DUP2 PUSH2 0x1037 JUMP JUMPDEST PUSH2 0x7EF PUSH2 0x15BA JUMP JUMPDEST PUSH1 0x0 SWAP2 DUP3 MSTORE PUSH1 0xFB PUSH1 0x20 SWAP1 DUP2 MSTORE PUSH1 0x40 DUP1 DUP5 KECCAK256 PUSH1 0x1 PUSH1 0x1 PUSH1 0xA0 SHL SUB SWAP4 SWAP1 SWAP4 AND DUP5 MSTORE SWAP2 SWAP1 MSTORE SWAP1 KECCAK256 SLOAD PUSH1 0xFF AND SWAP1 JUMP JUMPDEST PUSH1 0x60 PUSH1 0x37 DUP1 SLOAD PUSH2 0x5A6 SWAP1 PUSH2 0x1E64 JUMP JUMPDEST PUSH1 0x0 CALLER DUP2 PUSH2 0xC18 DUP3 DUP7 PUSH2 0xCB8 JUMP JUMPDEST SWAP1 POP DUP4 DUP2 LT ISZERO PUSH2 0xC78 JUMPI PUSH1 0x40 MLOAD PUSH3 0x461BCD PUSH1 0xE5 SHL DUP2 MSTORE PUSH1 0x20 PUSH1 0x4 DUP3 ADD MSTORE PUSH1 0x25 PUSH1 0x24 DUP3 ADD MSTORE PUSH32 0x45524332303A2064656372656173656420616C6C6F77616E63652062656C6F77 PUSH1 0x44 DUP3 ADD MSTORE PUSH5 0x207A65726F PUSH1 0xD8 SHL PUSH1 0x64 DUP3 ADD MSTORE PUSH1 0x84 ADD PUSH2 0x6FB JUMP JUMPDEST PUSH2 0x65A DUP3 DUP7 DUP7 DUP5 SUB PUSH2 0xCE3 JUMP JUMPDEST PUSH1 0x0 CALLER PUSH2 0x637 DUP2 DUP6 DUP6 PUSH2 0xE81 JUMP JUMPDEST PUSH1 0x0 DUP3 DUP2 MSTORE PUSH1 0xFB PUSH1 0x20 MSTORE PUSH1 0x40 SWAP1 KECCAK256 PUSH1 0x1 ADD SLOAD PUSH2 0xCAE DUP2 PUSH2 0x1037 JUMP JUMPDEST PUSH2 0x68A DUP4 DUP4 PUSH2 0x10C7 JUMP JUMPDEST PUSH1 0x1 PUSH1 0x1 PUSH1 0xA0 SHL SUB SWAP2 DUP3 AND PUSH1 0x0 SWAP1 DUP2 MSTORE PUSH1 0x34 PUSH1 0x20 SWAP1 DUP2 MSTORE PUSH1 0x40 DUP1 DUP4 KECCAK256 SWAP4 SWAP1 SWAP5 AND DUP3 MSTORE SWAP2 SWAP1 SWAP2 MSTORE KECCAK256 SLOAD SWAP1 JUMP JUMPDEST PUSH1 0x1 PUSH1 0x1 PUSH1 0xA0 SHL SUB DUP4 AND PUSH2 0xD45 JUMPI PUSH1 0x40 MLOAD PUSH3 0x461BCD PUSH1 0xE5 SHL DUP2 MSTORE PUSH1 0x20 PUSH1 0x4 DUP3 ADD MSTORE PUSH1 0x24 DUP1 DUP3 ADD MSTORE PUSH32 0x45524332303A20617070726F76652066726F6D20746865207A65726F20616464 PUSH1 0x44 DUP3 ADD MSTORE PUSH4 0x72657373 PUSH1 0xE0 SHL PUSH1 0x64 DUP3 ADD MSTORE PUSH1 0x84 ADD PUSH2 0x6FB JUMP JUMPDEST PUSH1 0x1 PUSH1 0x1 PUSH1 0xA0 SHL SUB DUP3 AND PUSH2 0xDA6 JUMPI PUSH1 0x40 MLOAD PUSH3 0x461BCD PUSH1 0xE5 SHL DUP2 MSTORE PUSH1 0x20 PUSH1 0x4 DUP3 ADD MSTORE PUSH1 0x22 PUSH1 0x24 DUP3 ADD MSTORE PUSH32 0x45524332303A20617070726F766520746F20746865207A65726F206164647265 PUSH1 0x44 DUP3 ADD MSTORE PUSH2 0x7373 PUSH1 0xF0 SHL PUSH1 0x64 DUP3 ADD MSTORE PUSH1 0x84 ADD PUSH2 0x6FB JUMP JUMPDEST PUSH1 0x1 PUSH1 0x1 PUSH1 0xA0 SHL SUB DUP4 DUP2 AND PUSH1 0x0 DUP2 DUP2 MSTORE PUSH1 0x34 PUSH1 0x20 SWAP1 DUP2 MSTORE PUSH1 0x40 DUP1 DUP4 KECCAK256 SWAP5 DUP8 AND DUP1 DUP5 MSTORE SWAP5 DUP3 MSTORE SWAP2 DUP3 SWAP1 KECCAK256 DUP6 SWAP1 SSTORE SWAP1 MLOAD DUP5 DUP2 MSTORE PUSH32 0x8C5BE1E5EBEC7D5BD14F71427D1E84F3DD0314C0F7B2291E5B200AC8C7C3B925 SWAP2 ADD PUSH1 0x40 MLOAD DUP1 SWAP2 SUB SWAP1 LOG3 POP POP POP JUMP JUMPDEST PUSH1 0x0 PUSH2 0xE13 DUP5 DUP5 PUSH2 0xCB8 JUMP JUMPDEST SWAP1 POP PUSH1 0x0 NOT DUP2 EQ PUSH2 0xE7B JUMPI DUP2 DUP2 LT ISZERO PUSH2 0xE6E JUMPI PUSH1 0x40 MLOAD PUSH3 0x461BCD PUSH1 0xE5 SHL DUP2 MSTORE PUSH1 0x20 PUSH1 0x4 DUP3 ADD MSTORE PUSH1 0x1D PUSH1 0x24 DUP3 ADD MSTORE PUSH32 0x45524332303A20696E73756666696369656E7420616C6C6F77616E6365000000 PUSH1 0x44 DUP3 ADD MSTORE PUSH1 0x64 ADD PUSH2 0x6FB JUMP JUMPDEST PUSH2 0xE7B DUP5 DUP5 DUP5 DUP5 SUB PUSH2 0xCE3 JUMP JUMPDEST POP POP POP POP JUMP JUMPDEST PUSH1 0x1 PUSH1 0x1 PUSH1 0xA0 SHL SUB DUP4 AND PUSH2 0xEE5 JUMPI PUSH1 0x40 MLOAD PUSH3 0x461BCD PUSH1 0xE5 SHL DUP2 MSTORE PUSH1 0x20 PUSH1 0x4 DUP3 ADD MSTORE PUSH1 0x25 PUSH1 0x24 DUP3 ADD MSTORE PUSH32 0x45524332303A207472616E736665722066726F6D20746865207A65726F206164 PUSH1 0x44 DUP3 ADD MSTORE PUSH5 0x6472657373 PUSH1 0xD8 SHL PUSH1 0x64 DUP3 ADD MSTORE PUSH1 0x84 ADD PUSH2 0x6FB JUMP JUMPDEST PUSH1 0x1 PUSH1 0x1 PUSH1 0xA0 SHL SUB DUP3 AND PUSH2 0xF47 JUMPI PUSH1 0x40 MLOAD PUSH3 0x461BCD PUSH1 0xE5 SHL DUP2 MSTORE PUSH1 0x20 PUSH1 0x4 DUP3 ADD MSTORE PUSH1 0x23 PUSH1 0x24 DUP3 ADD MSTORE PUSH32 0x45524332303A207472616E7366657220746F20746865207A65726F2061646472 PUSH1 0x44 DUP3 ADD MSTORE PUSH3 0x657373 PUSH1 0xE8 SHL PUSH1 0x64 DUP3 ADD MSTORE PUSH1 0x84 ADD PUSH2 0x6FB JUMP JUMPDEST PUSH2 0xF52 DUP4 DUP4 DUP4 PUSH2 0x15F7 JUMP JUMPDEST PUSH1 0x1 PUSH1 0x1 PUSH1 0xA0 SHL SUB DUP4 AND PUSH1 0x0 SWAP1 DUP2 MSTORE PUSH1 0x33 PUSH1 0x20 MSTORE PUSH1 0x40 SWAP1 KECCAK256 SLOAD DUP2 DUP2 LT ISZERO PUSH2 0xFCA JUMPI PUSH1 0x40 MLOAD PUSH3 0x461BCD PUSH1 0xE5 SHL DUP2 MSTORE PUSH1 0x20 PUSH1 0x4 DUP3 ADD MSTORE PUSH1 0x26 PUSH1 0x24 DUP3 ADD MSTORE PUSH32 0x45524332303A207472616E7366657220616D6F756E7420657863656564732062 PUSH1 0x44 DUP3 ADD MSTORE PUSH6 0x616C616E6365 PUSH1 0xD0 SHL PUSH1 0x64 DUP3 ADD MSTORE PUSH1 0x84 ADD PUSH2 0x6FB JUMP JUMPDEST PUSH1 0x1 PUSH1 0x1 PUSH1 0xA0 SHL SUB DUP1 DUP6 AND PUSH1 0x0 DUP2 DUP2 MSTORE PUSH1 0x33 PUSH1 0x20 MSTORE PUSH1 0x40 DUP1 DUP3 KECCAK256 DUP7 DUP7 SUB SWAP1 SSTORE SWAP3 DUP7 AND DUP1 DUP3 MSTORE SWAP1 DUP4 SWAP1 KECCAK256 DUP1 SLOAD DUP7 ADD SWAP1 SSTORE SWAP2 MLOAD PUSH32 0xDDF252AD1BE2C89B69C2B068FC378DAA952BA7F163C4A11628F55A4DF523B3EF SWAP1 PUSH2 0x102A SWAP1 DUP7 DUP2 MSTORE PUSH1 0x20 ADD SWAP1 JUMP JUMPDEST PUSH1 0x40 MLOAD DUP1 SWAP2 SUB SWAP1 LOG3 PUSH2 0xE7B JUMP JUMPDEST PUSH2 0x7EF DUP2 CALLER PUSH2 0x15FF JUMP JUMPDEST PUSH2 0x104B DUP3 DUP3 PUSH2 0xBD0 JUMP JUMPDEST PUSH2 0x70E JUMPI PUSH1 0x0 DUP3 DUP2 MSTORE PUSH1 0xFB PUSH1 0x20 SWAP1 DUP2 MSTORE PUSH1 0x40 DUP1 DUP4 KECCAK256 PUSH1 0x1 PUSH1 0x1 PUSH1 0xA0 SHL SUB DUP6 AND DUP5 MSTORE SWAP1 SWAP2 MSTORE SWAP1 KECCAK256 DUP1 SLOAD PUSH1 0xFF NOT AND PUSH1 0x1 OR SWAP1 SSTORE PUSH2 0x1083 CALLER SWAP1 JUMP JUMPDEST PUSH1 0x1 PUSH1 0x1 PUSH1 0xA0 SHL SUB AND DUP2 PUSH1 0x1 PUSH1 0x1 PUSH1 0xA0 SHL SUB AND DUP4 PUSH32 0x2F8788117E7EFF1D82E926EC794901D17C78024A50270940304540A733656F0D PUSH1 0x40 MLOAD PUSH1 0x40 MLOAD DUP1 SWAP2 SUB SWAP1 LOG4 POP POP JUMP JUMPDEST PUSH2 0x10D1 DUP3 DUP3 PUSH2 0xBD0 JUMP JUMPDEST ISZERO PUSH2 0x70E JUMPI PUSH1 0x0 DUP3 DUP2 MSTORE PUSH1 0xFB PUSH1 0x20 SWAP1 DUP2 MSTORE PUSH1 0x40 DUP1 DUP4 KECCAK256 PUSH1 0x1 PUSH1 0x1 PUSH1 0xA0 SHL SUB DUP6 AND DUP1 DUP6 MSTORE SWAP3 MSTORE DUP1 DUP4 KECCAK256 DUP1 SLOAD PUSH1 0xFF NOT AND SWAP1 SSTORE MLOAD CALLER SWAP3 DUP6 SWAP2 PUSH32 0xF6391F5C32D9C69D2A47EA670B442974B53935D1EDC7FD64EB21E047A839171B SWAP2 SWAP1 LOG4 POP POP JUMP JUMPDEST PUSH32 0x189AB7A9244DF0848122154315AF71FE140F3DB0FE014031783B0946B8C9D2E3 PUSH2 0x70E DUP2 PUSH2 0x1037 JUMP JUMPDEST PUSH32 0x4910FDFA16FED3260ED0E7147F7CC6DA11A60208B5B9406D12A635614FFD9143 SLOAD PUSH1 0xFF AND ISZERO PUSH2 0x118B JUMPI PUSH2 0x68A DUP4 PUSH2 0x1658 JUMP JUMPDEST DUP3 PUSH1 0x1 PUSH1 0x1 PUSH1 0xA0 SHL SUB AND PUSH4 0x52D1902D PUSH1 0x40 MLOAD DUP2 PUSH4 0xFFFFFFFF AND PUSH1 0xE0 SHL DUP2 MSTORE PUSH1 0x4 ADD PUSH1 0x20 PUSH1 0x40 MLOAD DUP1 DUP4 SUB DUP2 DUP7 DUP1 EXTCODESIZE ISZERO DUP1 ISZERO PUSH2 0x11C4 JUMPI PUSH1 0x0 DUP1 REVERT JUMPDEST POP GAS STATICCALL SWAP3 POP POP POP DUP1 ISZERO PUSH2 0x11F4 JUMPI POP PUSH1 0x40 DUP1 MLOAD PUSH1 0x1F RETURNDATASIZE SWAP1 DUP2 ADD PUSH1 0x1F NOT AND DUP3 ADD SWAP1 SWAP3 MSTORE PUSH2 0x11F1 SWAP2 DUP2 ADD SWAP1 PUSH2 0x2077 JUMP JUMPDEST PUSH1 0x1 JUMPDEST PUSH2 0x1257 JUMPI PUSH1 0x40 MLOAD PUSH3 0x461BCD PUSH1 0xE5 SHL DUP2 MSTORE PUSH1 0x20 PUSH1 0x4 DUP3 ADD MSTORE PUSH1 0x2E PUSH1 0x24 DUP3 ADD MSTORE PUSH32 0x45524331393637557067726164653A206E657720696D706C656D656E74617469 PUSH1 0x44 DUP3 ADD MSTORE PUSH14 0x6F6E206973206E6F742055555053 PUSH1 0x90 SHL PUSH1 0x64 DUP3 ADD MSTORE PUSH1 0x84 ADD PUSH2 0x6FB JUMP JUMPDEST PUSH1 0x0 DUP1 MLOAD PUSH1 0x20 PUSH2 0x219A DUP4 CODECOPY DUP2 MLOAD SWAP2 MSTORE DUP2 EQ PUSH2 0x12C6 JUMPI PUSH1 0x40 MLOAD PUSH3 0x461BCD PUSH1 0xE5 SHL DUP2 MSTORE PUSH1 0x20 PUSH1 0x4 DUP3 ADD MSTORE PUSH1 0x29 PUSH1 0x24 DUP3 ADD MSTORE PUSH32 0x45524331393637557067726164653A20756E737570706F727465642070726F78 PUSH1 0x44 DUP3 ADD MSTORE PUSH9 0x1A58589B1955555251 PUSH1 0xBA SHL PUSH1 0x64 DUP3 ADD MSTORE PUSH1 0x84 ADD PUSH2 0x6FB JUMP JUMPDEST POP PUSH2 0x68A DUP4 DUP4 DUP4 PUSH2 0x16F4 JUMP JUMPDEST PUSH2 0x12DA PUSH2 0x1719 JUMP JUMPDEST PUSH1 0x97 DUP1 SLOAD PUSH1 0xFF NOT AND SWAP1 SSTORE PUSH32 0x5DB9EE0A495BF2E6FF9C91A7834C1BA4FDD244A5E8AA4E537BD38AEAE4B073AA CALLER JUMPDEST PUSH1 0x40 MLOAD PUSH1 0x1 PUSH1 0x1 PUSH1 0xA0 SHL SUB SWAP1 SWAP2 AND DUP2 MSTORE PUSH1 0x20 ADD PUSH1 0x40 MLOAD DUP1 SWAP2 SUB SWAP1 LOG1 JUMP JUMPDEST PUSH1 0x1 PUSH1 0x1 PUSH1 0xA0 SHL SUB DUP3 AND PUSH2 0x1384 JUMPI PUSH1 0x40 MLOAD PUSH3 0x461BCD PUSH1 0xE5 SHL DUP2 MSTORE PUSH1 0x20 PUSH1 0x4 DUP3 ADD MSTORE PUSH1 0x21 PUSH1 0x24 DUP3 ADD MSTORE PUSH32 0x45524332303A206275726E2066726F6D20746865207A65726F20616464726573 PUSH1 0x44 DUP3 ADD MSTORE PUSH1 0x73 PUSH1 0xF8 SHL PUSH1 0x64 DUP3 ADD MSTORE PUSH1 0x84 ADD PUSH2 0x6FB JUMP JUMPDEST PUSH2 0x1390 DUP3 PUSH1 0x0 DUP4 PUSH2 0x15F7 JUMP JUMPDEST PUSH1 0x1 PUSH1 0x1 PUSH1 0xA0 SHL SUB DUP3 AND PUSH1 0x0 SWAP1 DUP2 MSTORE PUSH1 0x33 PUSH1 0x20 MSTORE PUSH1 0x40 SWAP1 KECCAK256 SLOAD DUP2 DUP2 LT ISZERO PUSH2 0x1404 JUMPI PUSH1 0x40 MLOAD PUSH3 0x461BCD PUSH1 0xE5 SHL DUP2 MSTORE PUSH1 0x20 PUSH1 0x4 DUP3 ADD MSTORE PUSH1 0x22 PUSH1 0x24 DUP3 ADD MSTORE PUSH32 0x45524332303A206275726E20616D6F756E7420657863656564732062616C616E PUSH1 0x44 DUP3 ADD MSTORE PUSH2 0x6365 PUSH1 0xF0 SHL PUSH1 0x64 DUP3 ADD MSTORE PUSH1 0x84 ADD PUSH2 0x6FB JUMP JUMPDEST PUSH1 0x1 PUSH1 0x1 PUSH1 0xA0 SHL SUB DUP4 AND PUSH1 0x0 DUP2 DUP2 MSTORE PUSH1 0x33 PUSH1 0x20 SWAP1 DUP2 MSTORE PUSH1 0x40 DUP1 DUP4 KECCAK256 DUP7 DUP7 SUB SWAP1 SSTORE PUSH1 0x35 DUP1 SLOAD DUP8 SWAP1 SUB SWAP1 SSTORE MLOAD DUP6 DUP2 MSTORE SWAP2 SWAP3 SWAP2 PUSH32 0xDDF252AD1BE2C89B69C2B068FC378DAA952BA7F163C4A11628F55A4DF523B3EF SWAP2 ADD PUSH1 0x40 MLOAD DUP1 SWAP2 SUB SWAP1 LOG3 POP POP POP JUMP JUMPDEST PUSH1 0x0 SLOAD PUSH2 0x100 SWAP1 DIV PUSH1 0xFF AND PUSH2 0x148B JUMPI PUSH1 0x40 MLOAD PUSH3 0x461BCD PUSH1 0xE5 SHL DUP2 MSTORE PUSH1 0x4 ADD PUSH2 0x6FB SWAP1 PUSH2 0x2090 JUMP JUMPDEST PUSH2 0x70E DUP3 DUP3 PUSH2 0x1762 JUMP JUMPDEST PUSH1 0x0 SLOAD PUSH2 0x100 SWAP1 DIV PUSH1 0xFF AND PUSH2 0x14BC JUMPI PUSH1 0x40 MLOAD PUSH3 0x461BCD PUSH1 0xE5 SHL DUP2 MSTORE PUSH1 0x4 ADD PUSH2 0x6FB SWAP1 PUSH2 0x2090 JUMP JUMPDEST JUMP JUMPDEST PUSH1 0x0 SLOAD PUSH2 0x100 SWAP1 DIV PUSH1 0xFF AND PUSH2 0x14E5 JUMPI PUSH1 0x40 MLOAD PUSH3 0x461BCD PUSH1 0xE5 SHL DUP2 MSTORE PUSH1 0x4 ADD PUSH2 0x6FB SWAP1 PUSH2 0x2090 JUMP JUMPDEST PUSH2 0x14BC PUSH2 0x17B0 JUMP JUMPDEST PUSH1 0x1 PUSH1 0x1 PUSH1 0xA0 SHL SUB DUP3 AND PUSH2 0x1543 JUMPI PUSH1 0x40 MLOAD PUSH3 0x461BCD PUSH1 0xE5 SHL DUP2 MSTORE PUSH1 0x20 PUSH1 0x4 DUP3 ADD MSTORE PUSH1 0x1F PUSH1 0x24 DUP3 ADD MSTORE PUSH32 0x45524332303A206D696E7420746F20746865207A65726F206164647265737300 PUSH1 0x44 DUP3 ADD MSTORE PUSH1 0x64 ADD PUSH2 0x6FB JUMP JUMPDEST PUSH2 0x154F PUSH1 0x0 DUP4 DUP4 PUSH2 0x15F7 JUMP JUMPDEST DUP1 PUSH1 0x35 PUSH1 0x0 DUP3 DUP3 SLOAD PUSH2 0x1561 SWAP2 SWAP1 PUSH2 0x1F4D JUMP JUMPDEST SWAP1 SWAP2 SSTORE POP POP PUSH1 0x1 PUSH1 0x1 PUSH1 0xA0 SHL SUB DUP3 AND PUSH1 0x0 DUP2 DUP2 MSTORE PUSH1 0x33 PUSH1 0x20 SWAP1 DUP2 MSTORE PUSH1 0x40 DUP1 DUP4 KECCAK256 DUP1 SLOAD DUP7 ADD SWAP1 SSTORE MLOAD DUP5 DUP2 MSTORE PUSH32 0xDDF252AD1BE2C89B69C2B068FC378DAA952BA7F163C4A11628F55A4DF523B3EF SWAP2 ADD PUSH1 0x40 MLOAD DUP1 SWAP2 SUB SWAP1 LOG3 POP POP JUMP JUMPDEST PUSH2 0x15C2 PUSH2 0x17E3 JUMP JUMPDEST PUSH1 0x97 DUP1 SLOAD PUSH1 0xFF NOT AND PUSH1 0x1 OR SWAP1 SSTORE PUSH32 0x62E78CEA01BEE320CD4E420270B5EA74000D11B0C9F74754EBDBFC544B05A258 PUSH2 0x1307 CALLER SWAP1 JUMP JUMPDEST PUSH2 0x68A PUSH2 0x17E3 JUMP JUMPDEST PUSH2 0x1609 DUP3 DUP3 PUSH2 0xBD0 JUMP JUMPDEST PUSH2 0x70E JUMPI PUSH2 0x1616 DUP2 PUSH2 0x1829 JUMP JUMPDEST PUSH2 0x1621 DUP4 PUSH1 0x20 PUSH2 0x183B JUMP JUMPDEST PUSH1 0x40 MLOAD PUSH1 0x20 ADD PUSH2 0x1632 SWAP3 SWAP2 SWAP1 PUSH2 0x20DB JUMP JUMPDEST PUSH1 0x40 DUP1 MLOAD PUSH1 0x1F NOT DUP2 DUP5 SUB ADD DUP2 MSTORE SWAP1 DUP3 SWAP1 MSTORE PUSH3 0x461BCD PUSH1 0xE5 SHL DUP3 MSTORE PUSH2 0x6FB SWAP2 PUSH1 0x4 ADD PUSH2 0x1C4D JUMP JUMPDEST PUSH1 0x1 PUSH1 0x1 PUSH1 0xA0 SHL SUB DUP2 AND EXTCODESIZE PUSH2 0x16C5 JUMPI PUSH1 0x40 MLOAD PUSH3 0x461BCD PUSH1 0xE5 SHL DUP2 MSTORE PUSH1 0x20 PUSH1 0x4 DUP3 ADD MSTORE PUSH1 0x2D PUSH1 0x24 DUP3 ADD MSTORE PUSH32 0x455243313936373A206E657720696D706C656D656E746174696F6E206973206E PUSH1 0x44 DUP3 ADD MSTORE PUSH13 0x1BDD08184818DBDB9D1C9858DD PUSH1 0x9A SHL PUSH1 0x64 DUP3 ADD MSTORE PUSH1 0x84 ADD PUSH2 0x6FB JUMP JUMPDEST PUSH1 0x0 DUP1 MLOAD PUSH1 0x20 PUSH2 0x219A DUP4 CODECOPY DUP2 MLOAD SWAP2 MSTORE DUP1 SLOAD PUSH1 0x1 PUSH1 0x1 PUSH1 0xA0 SHL SUB NOT AND PUSH1 0x1 PUSH1 0x1 PUSH1 0xA0 SHL SUB SWAP3 SWAP1 SWAP3 AND SWAP2 SWAP1 SWAP2 OR SWAP1 SSTORE JUMP JUMPDEST PUSH2 0x16FD DUP4 PUSH2 0x19DE JUMP JUMPDEST PUSH1 0x0 DUP3 MLOAD GT DUP1 PUSH2 0x170A JUMPI POP DUP1 JUMPDEST ISZERO PUSH2 0x68A JUMPI PUSH2 0xE7B DUP4 DUP4 PUSH2 0x1A1E JUMP JUMPDEST PUSH1 0x97 SLOAD PUSH1 0xFF AND PUSH2 0x14BC JUMPI PUSH1 0x40 MLOAD PUSH3 0x461BCD PUSH1 0xE5 SHL DUP2 MSTORE PUSH1 0x20 PUSH1 0x4 DUP3 ADD MSTORE PUSH1 0x14 PUSH1 0x24 DUP3 ADD MSTORE PUSH20 0x14185D5CD8589B194E881B9BDD081C185D5CD959 PUSH1 0x62 SHL PUSH1 0x44 DUP3 ADD MSTORE PUSH1 0x64 ADD PUSH2 0x6FB JUMP JUMPDEST PUSH1 0x0 SLOAD PUSH2 0x100 SWAP1 DIV PUSH1 0xFF AND PUSH2 0x1789 JUMPI PUSH1 0x40 MLOAD PUSH3 0x461BCD PUSH1 0xE5 SHL DUP2 MSTORE PUSH1 0x4 ADD PUSH2 0x6FB SWAP1 PUSH2 0x2090 JUMP JUMPDEST DUP2 MLOAD PUSH2 0x179C SWAP1 PUSH1 0x36 SWAP1 PUSH1 0x20 DUP6 ADD SWAP1 PUSH2 0x1B5E JUMP JUMPDEST POP DUP1 MLOAD PUSH2 0x68A SWAP1 PUSH1 0x37 SWAP1 PUSH1 0x20 DUP5 ADD SWAP1 PUSH2 0x1B5E JUMP JUMPDEST PUSH1 0x0 SLOAD PUSH2 0x100 SWAP1 DIV PUSH1 0xFF AND PUSH2 0x17D7 JUMPI PUSH1 0x40 MLOAD PUSH3 0x461BCD PUSH1 0xE5 SHL DUP2 MSTORE PUSH1 0x4 ADD PUSH2 0x6FB SWAP1 PUSH2 0x2090 JUMP JUMPDEST PUSH1 0x97 DUP1 SLOAD PUSH1 0xFF NOT AND SWAP1 SSTORE JUMP JUMPDEST PUSH1 0x97 SLOAD PUSH1 0xFF AND ISZERO PUSH2 0x14BC JUMPI PUSH1 0x40 MLOAD PUSH3 0x461BCD PUSH1 0xE5 SHL DUP2 MSTORE PUSH1 0x20 PUSH1 0x4 DUP3 ADD MSTORE PUSH1 0x10 PUSH1 0x24 DUP3 ADD MSTORE PUSH16 0x14185D5CD8589B194E881C185D5CD959 PUSH1 0x82 SHL PUSH1 0x44 DUP3 ADD MSTORE PUSH1 0x64 ADD PUSH2 0x6FB JUMP JUMPDEST PUSH1 0x60 PUSH2 0x591 PUSH1 0x1 PUSH1 0x1 PUSH1 0xA0 SHL SUB DUP4 AND PUSH1 0x14 JUMPDEST PUSH1 0x60 PUSH1 0x0 PUSH2 0x184A DUP4 PUSH1 0x2 PUSH2 0x2058 JUMP JUMPDEST PUSH2 0x1855 SWAP1 PUSH1 0x2 PUSH2 0x1F4D JUMP JUMPDEST PUSH8 0xFFFFFFFFFFFFFFFF DUP2 GT ISZERO PUSH2 0x186D JUMPI PUSH2 0x186D PUSH2 0x1D62 JUMP JUMPDEST PUSH1 0x40 MLOAD SWAP1 DUP1 DUP3 MSTORE DUP1 PUSH1 0x1F ADD PUSH1 0x1F NOT AND PUSH1 0x20 ADD DUP3 ADD PUSH1 0x40 MSTORE DUP1 ISZERO PUSH2 0x1897 JUMPI PUSH1 0x20 DUP3 ADD DUP2 DUP1 CALLDATASIZE DUP4 CALLDATACOPY ADD SWAP1 POP JUMPDEST POP SWAP1 POP PUSH1 0x3 PUSH1 0xFC SHL DUP2 PUSH1 0x0 DUP2 MLOAD DUP2 LT PUSH2 0x18B2 JUMPI PUSH2 0x18B2 PUSH2 0x2150 JUMP JUMPDEST PUSH1 0x20 ADD ADD SWAP1 PUSH1 0x1 PUSH1 0x1 PUSH1 0xF8 SHL SUB NOT AND SWAP1 DUP2 PUSH1 0x0 BYTE SWAP1 MSTORE8 POP PUSH1 0xF PUSH1 0xFB SHL DUP2 PUSH1 0x1 DUP2 MLOAD DUP2 LT PUSH2 0x18E1 JUMPI PUSH2 0x18E1 PUSH2 0x2150 JUMP JUMPDEST PUSH1 0x20 ADD ADD SWAP1 PUSH1 0x1 PUSH1 0x1 PUSH1 0xF8 SHL SUB NOT AND SWAP1 DUP2 PUSH1 0x0 BYTE SWAP1 MSTORE8 POP PUSH1 0x0 PUSH2 0x1905 DUP5 PUSH1 0x2 PUSH2 0x2058 JUMP JUMPDEST PUSH2 0x1910 SWAP1 PUSH1 0x1 PUSH2 0x1F4D JUMP JUMPDEST SWAP1 POP JUMPDEST PUSH1 0x1 DUP2 GT ISZERO PUSH2 0x1988 JUMPI PUSH16 0x181899199A1A9B1B9C1CB0B131B232B3 PUSH1 0x81 SHL DUP6 PUSH1 0xF AND PUSH1 0x10 DUP2 LT PUSH2 0x1944 JUMPI PUSH2 0x1944 PUSH2 0x2150 JUMP JUMPDEST BYTE PUSH1 0xF8 SHL DUP3 DUP3 DUP2 MLOAD DUP2 LT PUSH2 0x195A JUMPI PUSH2 0x195A PUSH2 0x2150 JUMP JUMPDEST PUSH1 0x20 ADD ADD SWAP1 PUSH1 0x1 PUSH1 0x1 PUSH1 0xF8 SHL SUB NOT AND SWAP1 DUP2 PUSH1 0x0 BYTE SWAP1 MSTORE8 POP PUSH1 0x4 SWAP5 SWAP1 SWAP5 SHR SWAP4 PUSH2 0x1981 DUP2 PUSH2 0x2166 JUMP JUMPDEST SWAP1 POP PUSH2 0x1913 JUMP JUMPDEST POP DUP4 ISZERO PUSH2 0x19D7 JUMPI PUSH1 0x40 MLOAD PUSH3 0x461BCD PUSH1 0xE5 SHL DUP2 MSTORE PUSH1 0x20 PUSH1 0x4 DUP3 ADD DUP2 SWAP1 MSTORE PUSH1 0x24 DUP3 ADD MSTORE PUSH32 0x537472696E67733A20686578206C656E67746820696E73756666696369656E74 PUSH1 0x44 DUP3 ADD MSTORE PUSH1 0x64 ADD PUSH2 0x6FB JUMP JUMPDEST SWAP4 SWAP3 POP POP POP JUMP JUMPDEST PUSH2 0x19E7 DUP2 PUSH2 0x1658 JUMP JUMPDEST PUSH1 0x40 MLOAD PUSH1 0x1 PUSH1 0x1 PUSH1 0xA0 SHL SUB DUP3 AND SWAP1 PUSH32 0xBC7CD75A20EE27FD9ADEBAB32041F755214DBC6BFFA90CC0225B39DA2E5C2D3B SWAP1 PUSH1 0x0 SWAP1 LOG2 POP JUMP JUMPDEST PUSH1 0x60 PUSH2 0x19D7 DUP4 DUP4 PUSH1 0x40 MLOAD DUP1 PUSH1 0x60 ADD PUSH1 0x40 MSTORE DUP1 PUSH1 0x27 DUP2 MSTORE PUSH1 0x20 ADD PUSH2 0x21DA PUSH1 0x27 SWAP2 CODECOPY PUSH1 0x60 PUSH1 0x0 DUP1 DUP6 PUSH1 0x1 PUSH1 0x1 PUSH1 0xA0 SHL SUB AND DUP6 PUSH1 0x40 MLOAD PUSH2 0x1A5B SWAP2 SWAP1 PUSH2 0x217D JUMP JUMPDEST PUSH1 0x0 PUSH1 0x40 MLOAD DUP1 DUP4 SUB DUP2 DUP6 GAS DELEGATECALL SWAP2 POP POP RETURNDATASIZE DUP1 PUSH1 0x0 DUP2 EQ PUSH2 0x1A96 JUMPI PUSH1 0x40 MLOAD SWAP2 POP PUSH1 0x1F NOT PUSH1 0x3F RETURNDATASIZE ADD AND DUP3 ADD PUSH1 0x40 MSTORE RETURNDATASIZE DUP3 MSTORE RETURNDATASIZE PUSH1 0x0 PUSH1 0x20 DUP5 ADD RETURNDATACOPY PUSH2 0x1A9B JUMP JUMPDEST PUSH1 0x60 SWAP2 POP JUMPDEST POP SWAP2 POP SWAP2 POP PUSH2 0x1AAC DUP7 DUP4 DUP4 DUP8 PUSH2 0x1AB6 JUMP JUMPDEST SWAP7 SWAP6 POP POP POP POP POP POP JUMP JUMPDEST PUSH1 0x60 DUP4 ISZERO PUSH2 0x1B22 JUMPI DUP3 MLOAD PUSH2 0x1B1B JUMPI PUSH1 0x1 PUSH1 0x1 PUSH1 0xA0 SHL SUB DUP6 AND EXTCODESIZE PUSH2 0x1B1B JUMPI PUSH1 0x40 MLOAD PUSH3 0x461BCD PUSH1 0xE5 SHL DUP2 MSTORE PUSH1 0x20 PUSH1 0x4 DUP3 ADD MSTORE PUSH1 0x1D PUSH1 0x24 DUP3 ADD MSTORE PUSH32 0x416464726573733A2063616C6C20746F206E6F6E2D636F6E7472616374000000 PUSH1 0x44 DUP3 ADD MSTORE PUSH1 0x64 ADD PUSH2 0x6FB JUMP JUMPDEST POP DUP2 PUSH2 0x1B2C JUMP JUMPDEST PUSH2 0x1B2C DUP4 DUP4 PUSH2 0x1B34 JUMP JUMPDEST SWAP5 SWAP4 POP POP POP POP JUMP JUMPDEST DUP2 MLOAD ISZERO PUSH2 0x1B44 JUMPI DUP2 MLOAD DUP1 DUP4 PUSH1 0x20 ADD REVERT JUMPDEST DUP1 PUSH1 0x40 MLOAD PUSH3 0x461BCD PUSH1 0xE5 SHL DUP2 MSTORE PUSH1 0x4 ADD PUSH2 0x6FB SWAP2 SWAP1 PUSH2 0x1C4D JUMP JUMPDEST DUP3 DUP1 SLOAD PUSH2 0x1B6A SWAP1 PUSH2 0x1E64 JUMP JUMPDEST SWAP1 PUSH1 0x0 MSTORE PUSH1 0x20 PUSH1 0x0 KECCAK256 SWAP1 PUSH1 0x1F ADD PUSH1 0x20 SWAP1 DIV DUP2 ADD SWAP3 DUP3 PUSH2 0x1B8C JUMPI PUSH1 0x0 DUP6 SSTORE PUSH2 0x1BD2 JUMP JUMPDEST DUP3 PUSH1 0x1F LT PUSH2 0x1BA5 JUMPI DUP1 MLOAD PUSH1 0xFF NOT AND DUP4 DUP1 ADD OR DUP6 SSTORE PUSH2 0x1BD2 JUMP JUMPDEST DUP3 DUP1 ADD PUSH1 0x1 ADD DUP6 SSTORE DUP3 ISZERO PUSH2 0x1BD2 JUMPI SWAP2 DUP3 ADD JUMPDEST DUP3 DUP2 GT ISZERO PUSH2 0x1BD2 JUMPI DUP3 MLOAD DUP3 SSTORE SWAP2 PUSH1 0x20 ADD SWAP2 SWAP1 PUSH1 0x1 ADD SWAP1 PUSH2 0x1BB7 JUMP JUMPDEST POP PUSH2 0x1BDE SWAP3 SWAP2 POP PUSH2 0x1BE2 JUMP JUMPDEST POP SWAP1 JUMP JUMPDEST JUMPDEST DUP1 DUP3 GT ISZERO PUSH2 0x1BDE JUMPI PUSH1 0x0 DUP2 SSTORE PUSH1 0x1 ADD PUSH2 0x1BE3 JUMP JUMPDEST PUSH1 0x0 PUSH1 0x20 DUP3 DUP5 SUB SLT ISZERO PUSH2 0x1C09 JUMPI PUSH1 0x0 DUP1 REVERT JUMPDEST DUP2 CALLDATALOAD PUSH1 0x1 PUSH1 0x1 PUSH1 0xE0 SHL SUB NOT DUP2 AND DUP2 EQ PUSH2 0x19D7 JUMPI PUSH1 0x0 DUP1 REVERT JUMPDEST PUSH1 0x0 JUMPDEST DUP4 DUP2 LT ISZERO PUSH2 0x1C3C JUMPI DUP2 DUP2 ADD MLOAD DUP4 DUP3 ADD MSTORE PUSH1 0x20 ADD PUSH2 0x1C24 JUMP JUMPDEST DUP4 DUP2 GT ISZERO PUSH2 0xE7B JUMPI POP POP PUSH1 0x0 SWAP2 ADD MSTORE JUMP JUMPDEST PUSH1 0x20 DUP2 MSTORE PUSH1 0x0 DUP3 MLOAD DUP1 PUSH1 0x20 DUP5 ADD MSTORE PUSH2 0x1C6C DUP2 PUSH1 0x40 DUP6 ADD PUSH1 0x20 DUP8 ADD PUSH2 0x1C21 JUMP JUMPDEST PUSH1 0x1F ADD PUSH1 0x1F NOT AND SWAP2 SWAP1 SWAP2 ADD PUSH1 0x40 ADD SWAP3 SWAP2 POP POP JUMP JUMPDEST DUP1 CALLDATALOAD PUSH1 0x1 PUSH1 0x1 PUSH1 0xA0 SHL SUB DUP2 AND DUP2 EQ PUSH2 0x1C97 JUMPI PUSH1 0x0 DUP1 REVERT JUMPDEST SWAP2 SWAP1 POP JUMP JUMPDEST PUSH1 0x0 DUP1 PUSH1 0x40 DUP4 DUP6 SUB SLT ISZERO PUSH2 0x1CAF JUMPI PUSH1 0x0 DUP1 REVERT JUMPDEST PUSH2 0x1CB8 DUP4 PUSH2 0x1C80 JUMP JUMPDEST SWAP5 PUSH1 0x20 SWAP4 SWAP1 SWAP4 ADD CALLDATALOAD SWAP4 POP POP POP JUMP JUMPDEST PUSH1 0x0 DUP1 PUSH1 0x0 PUSH1 0x60 DUP5 DUP7 SUB SLT ISZERO PUSH2 0x1CDB JUMPI PUSH1 0x0 DUP1 REVERT JUMPDEST PUSH2 0x1CE4 DUP5 PUSH2 0x1C80 JUMP JUMPDEST SWAP3 POP PUSH2 0x1CF2 PUSH1 0x20 DUP6 ADD PUSH2 0x1C80 JUMP JUMPDEST SWAP2 POP PUSH1 0x40 DUP5 ADD CALLDATALOAD SWAP1 POP SWAP3 POP SWAP3 POP SWAP3 JUMP JUMPDEST PUSH1 0x0 PUSH1 0x20 DUP3 DUP5 SUB SLT ISZERO PUSH2 0x1D14 JUMPI PUSH1 0x0 DUP1 REVERT JUMPDEST POP CALLDATALOAD SWAP2 SWAP1 POP JUMP JUMPDEST PUSH1 0x0 DUP1 PUSH1 0x40 DUP4 DUP6 SUB SLT ISZERO PUSH2 0x1D2E JUMPI PUSH1 0x0 DUP1 REVERT JUMPDEST DUP3 CALLDATALOAD SWAP2 POP PUSH2 0x1D3E PUSH1 0x20 DUP5 ADD PUSH2 0x1C80 JUMP JUMPDEST SWAP1 POP SWAP3 POP SWAP3 SWAP1 POP JUMP JUMPDEST PUSH1 0x0 PUSH1 0x20 DUP3 DUP5 SUB SLT ISZERO PUSH2 0x1D59 JUMPI PUSH1 0x0 DUP1 REVERT JUMPDEST PUSH2 0x19D7 DUP3 PUSH2 0x1C80 JUMP JUMPDEST PUSH4 0x4E487B71 PUSH1 0xE0 SHL PUSH1 0x0 MSTORE PUSH1 0x41 PUSH1 0x4 MSTORE PUSH1 0x24 PUSH1 0x0 REVERT JUMPDEST PUSH1 0x0 DUP1 PUSH1 0x40 DUP4 DUP6 SUB SLT ISZERO PUSH2 0x1D8B JUMPI PUSH1 0x0 DUP1 REVERT JUMPDEST PUSH2 0x1D94 DUP4 PUSH2 0x1C80 JUMP JUMPDEST SWAP2 POP PUSH1 0x20 DUP4 ADD CALLDATALOAD PUSH8 0xFFFFFFFFFFFFFFFF DUP1 DUP3 GT ISZERO PUSH2 0x1DB1 JUMPI PUSH1 0x0 DUP1 REVERT JUMPDEST DUP2 DUP6 ADD SWAP2 POP DUP6 PUSH1 0x1F DUP4 ADD SLT PUSH2 0x1DC5 JUMPI PUSH1 0x0 DUP1 REVERT JUMPDEST DUP2 CALLDATALOAD DUP2 DUP2 GT ISZERO PUSH2 0x1DD7 JUMPI PUSH2 0x1DD7 PUSH2 0x1D62 JUMP JUMPDEST PUSH1 0x40 MLOAD PUSH1 0x1F DUP3 ADD PUSH1 0x1F NOT SWAP1 DUP2 AND PUSH1 0x3F ADD AND DUP2 ADD SWAP1 DUP4 DUP3 GT DUP2 DUP4 LT OR ISZERO PUSH2 0x1DFF JUMPI PUSH2 0x1DFF PUSH2 0x1D62 JUMP JUMPDEST DUP2 PUSH1 0x40 MSTORE DUP3 DUP2 MSTORE DUP9 PUSH1 0x20 DUP5 DUP8 ADD ADD GT ISZERO PUSH2 0x1E18 JUMPI PUSH1 0x0 DUP1 REVERT JUMPDEST DUP3 PUSH1 0x20 DUP7 ADD PUSH1 0x20 DUP4 ADD CALLDATACOPY PUSH1 0x0 PUSH1 0x20 DUP5 DUP4 ADD ADD MSTORE DUP1 SWAP6 POP POP POP POP POP POP SWAP3 POP SWAP3 SWAP1 POP JUMP JUMPDEST PUSH1 0x0 DUP1 PUSH1 0x40 DUP4 DUP6 SUB SLT ISZERO PUSH2 0x1E4D JUMPI PUSH1 0x0 DUP1 REVERT JUMPDEST PUSH2 0x1E56 DUP4 PUSH2 0x1C80 JUMP JUMPDEST SWAP2 POP PUSH2 0x1D3E PUSH1 0x20 DUP5 ADD PUSH2 0x1C80 JUMP JUMPDEST PUSH1 0x1 DUP2 DUP2 SHR SWAP1 DUP3 AND DUP1 PUSH2 0x1E78 JUMPI PUSH1 0x7F DUP3 AND SWAP2 POP JUMPDEST PUSH1 0x20 DUP3 LT DUP2 EQ ISZERO PUSH2 0x1E99 JUMPI PUSH4 0x4E487B71 PUSH1 0xE0 SHL PUSH1 0x0 MSTORE PUSH1 0x22 PUSH1 0x4 MSTORE PUSH1 0x24 PUSH1 0x0 REVERT JUMPDEST POP SWAP2 SWAP1 POP JUMP JUMPDEST PUSH1 0x20 DUP1 DUP3 MSTORE PUSH1 0x2C SWAP1 DUP3 ADD MSTORE PUSH32 0x46756E6374696F6E206D7573742062652063616C6C6564207468726F75676820 PUSH1 0x40 DUP3 ADD MSTORE PUSH12 0x19195B1959D85D1958D85B1B PUSH1 0xA2 SHL PUSH1 0x60 DUP3 ADD MSTORE PUSH1 0x80 ADD SWAP1 JUMP JUMPDEST PUSH1 0x20 DUP1 DUP3 MSTORE PUSH1 0x2C SWAP1 DUP3 ADD MSTORE PUSH32 0x46756E6374696F6E206D7573742062652063616C6C6564207468726F75676820 PUSH1 0x40 DUP3 ADD MSTORE PUSH12 0x6163746976652070726F7879 PUSH1 0xA0 SHL PUSH1 0x60 DUP3 ADD MSTORE PUSH1 0x80 ADD SWAP1 JUMP JUMPDEST PUSH4 0x4E487B71 PUSH1 0xE0 SHL PUSH1 0x0 MSTORE PUSH1 0x11 PUSH1 0x4 MSTORE PUSH1 0x24 PUSH1 0x0 REVERT JUMPDEST PUSH1 0x0 DUP3 NOT DUP3 GT ISZERO PUSH2 0x1F60 JUMPI PUSH2 0x1F60 PUSH2 0x1F37 JUMP JUMPDEST POP ADD SWAP1 JUMP JUMPDEST PUSH1 0x1 DUP2 DUP2 JUMPDEST DUP1 DUP6 GT ISZERO PUSH2 0x1FA0 JUMPI DUP2 PUSH1 0x0 NOT DIV DUP3 GT ISZERO PUSH2 0x1F86 JUMPI PUSH2 0x1F86 PUSH2 0x1F37 JUMP JUMPDEST DUP1 DUP6 AND ISZERO PUSH2 0x1F93 JUMPI SWAP2 DUP2 MUL SWAP2 JUMPDEST SWAP4 DUP5 SHR SWAP4 SWAP1 DUP1 MUL SWAP1 PUSH2 0x1F6A JUMP JUMPDEST POP SWAP3 POP SWAP3 SWAP1 POP JUMP JUMPDEST PUSH1 0x0 DUP3 PUSH2 0x1FB7 JUMPI POP PUSH1 0x1 PUSH2 0x591 JUMP JUMPDEST DUP2 PUSH2 0x1FC4 JUMPI POP PUSH1 0x0 PUSH2 0x591 JUMP JUMPDEST DUP2 PUSH1 0x1 DUP2 EQ PUSH2 0x1FDA JUMPI PUSH1 0x2 DUP2 EQ PUSH2 0x1FE4 JUMPI PUSH2 0x2000 JUMP JUMPDEST PUSH1 0x1 SWAP2 POP POP PUSH2 0x591 JUMP JUMPDEST PUSH1 0xFF DUP5 GT ISZERO PUSH2 0x1FF5 JUMPI PUSH2 0x1FF5 PUSH2 0x1F37 JUMP JUMPDEST POP POP PUSH1 0x1 DUP3 SHL PUSH2 0x591 JUMP JUMPDEST POP PUSH1 0x20 DUP4 LT PUSH2 0x133 DUP4 LT AND PUSH1 0x4E DUP5 LT PUSH1 0xB DUP5 LT AND OR ISZERO PUSH2 0x2023 JUMPI POP DUP2 DUP2 EXP PUSH2 0x591 JUMP JUMPDEST PUSH2 0x202D DUP4 DUP4 PUSH2 0x1F65 JUMP JUMPDEST DUP1 PUSH1 0x0 NOT DIV DUP3 GT ISZERO PUSH2 0x2041 JUMPI PUSH2 0x2041 PUSH2 0x1F37 JUMP JUMPDEST MUL SWAP4 SWAP3 POP POP POP JUMP JUMPDEST PUSH1 0x0 PUSH2 0x19D7 PUSH1 0xFF DUP5 AND DUP4 PUSH2 0x1FA8 JUMP JUMPDEST PUSH1 0x0 DUP2 PUSH1 0x0 NOT DIV DUP4 GT DUP3 ISZERO ISZERO AND ISZERO PUSH2 0x2072 JUMPI PUSH2 0x2072 PUSH2 0x1F37 JUMP JUMPDEST POP MUL SWAP1 JUMP JUMPDEST PUSH1 0x0 PUSH1 0x20 DUP3 DUP5 SUB SLT ISZERO PUSH2 0x2089 JUMPI PUSH1 0x0 DUP1 REVERT JUMPDEST POP MLOAD SWAP2 SWAP1 POP JUMP JUMPDEST PUSH1 0x20 DUP1 DUP3 MSTORE PUSH1 0x2B SWAP1 DUP3 ADD MSTORE PUSH32 0x496E697469616C697A61626C653A20636F6E7472616374206973206E6F742069 PUSH1 0x40 DUP3 ADD MSTORE PUSH11 0x6E697469616C697A696E67 PUSH1 0xA8 SHL PUSH1 0x60 DUP3 ADD MSTORE PUSH1 0x80 ADD SWAP1 JUMP JUMPDEST PUSH32 0x416363657373436F6E74726F6C3A206163636F756E7420000000000000000000 DUP2 MSTORE PUSH1 0x0 DUP4 MLOAD PUSH2 0x2113 DUP2 PUSH1 0x17 DUP6 ADD PUSH1 0x20 DUP9 ADD PUSH2 0x1C21 JUMP JUMPDEST PUSH17 0x1034B99036B4B9B9B4B733903937B6329 PUSH1 0x7D SHL PUSH1 0x17 SWAP2 DUP5 ADD SWAP2 DUP3 ADD MSTORE DUP4 MLOAD PUSH2 0x2144 DUP2 PUSH1 0x28 DUP5 ADD PUSH1 0x20 DUP9 ADD PUSH2 0x1C21 JUMP JUMPDEST ADD PUSH1 0x28 ADD SWAP5 SWAP4 POP POP POP POP JUMP JUMPDEST PUSH4 0x4E487B71 PUSH1 0xE0 SHL PUSH1 0x0 MSTORE PUSH1 0x32 PUSH1 0x4 MSTORE PUSH1 0x24 PUSH1 0x0 REVERT JUMPDEST PUSH1 0x0 DUP2 PUSH2 0x2175 JUMPI PUSH2 0x2175 PUSH2 0x1F37 JUMP JUMPDEST POP PUSH1 0x0 NOT ADD SWAP1 JUMP JUMPDEST PUSH1 0x0 DUP3 MLOAD PUSH2 0x218F DUP2 DUP5 PUSH1 0x20 DUP8 ADD PUSH2 0x1C21 JUMP JUMPDEST SWAP2 SWAP1 SWAP2 ADD SWAP3 SWAP2 POP POP JUMP INVALID CALLDATASIZE ADDMOD SWAP5 LOG1 EXTCODESIZE LOG1 LOG3 0x21 MOD PUSH8 0xC828492DB98DCA3E KECCAK256 PUSH23 0xCC3735A920A3CA505D382BBC65D7A28E3265B37A647492 SWAP16 CALLER PUSH6 0x21B332C1681B SWAP4 EXTCODEHASH PUSH13 0xB9F3376673440D862A41646472 PUSH6 0x73733A206C6F PUSH24 0x2D6C6576656C2064656C65676174652063616C6C20666169 PUSH13 0x6564A2646970667358221220C0 0x26 0xE5 DUP11 0xE1 EXTCODESIZE 0x5C PUSH5 0x482EB691D8 ADD CALLDATASIZE PUSH22 0xB76B325E89FCA4EE10252D5638FF4C0C64736F6C6343 STOP ADDMOD MULMOD STOP CALLER "
				},
				"gasEstimates": {
					"creation": {
						"codeDepositCost": "1751600",
						"executionCost": "infinite",
						"totalCost": "infinite"
					},
					"external": {
						"DEFAULT_ADMIN_ROLE()": "262",
						"PAUSER_ROLE()": "infinite",
						"UPGRADER_ROLE()": "305",
						"allowance(address,address)": "infinite",
						"approve(address,uint256)": "24681",
						"balanceOf(address)": "2627",
						"burn(uint256)": "53026",
						"burnFrom(address,uint256)": "79692",
						"decimals()": "223",
						"decreaseAllowance(address,uint256)": "27028",
						"getRoleAdmin(bytes32)": "2534",
						"grantRole(bytes32,address)": "infinite",
						"hasRole(bytes32,address)": "2765",
						"increaseAllowance(address,uint256)": "27012",
						"initialize()": "infinite",
						"name()": "infinite",
						"pause()": "infinite",
						"paused()": "2361",
						"proxiableUUID()": "infinite",
						"renounceRole(bytes32,address)": "29069",
						"revokeRole(bytes32,address)": "infinite",
						"supportsInterface(bytes4)": "473",
						"symbol()": "infinite",
						"totalSupply()": "2327",
						"transfer(address,uint256)": "53344",
						"transferFrom(address,address,uint256)": "infinite",
						"unpause()": "infinite",
						"upgradeTo(address)": "infinite",
						"upgradeToAndCall(address,bytes)": "infinite"
					},
					"internal": {
						"_authorizeUpgrade(address)": "infinite",
						"_beforeTokenTransfer(address,address,uint256)": "infinite"
					}
				},
				"methodIdentifiers": {
					"DEFAULT_ADMIN_ROLE()": "a217fddf",
					"PAUSER_ROLE()": "e63ab1e9",
					"UPGRADER_ROLE()": "f72c0d8b",
					"allowance(address,address)": "dd62ed3e",
					"approve(address,uint256)": "095ea7b3",
					"balanceOf(address)": "70a08231",
					"burn(uint256)": "42966c68",
					"burnFrom(address,uint256)": "79cc6790",
					"decimals()": "313ce567",
					"decreaseAllowance(address,uint256)": "a457c2d7",
					"getRoleAdmin(bytes32)": "248a9ca3",
					"grantRole(bytes32,address)": "2f2ff15d",
					"hasRole(bytes32,address)": "91d14854",
					"increaseAllowance(address,uint256)": "39509351",
					"initialize()": "8129fc1c",
					"name()": "06fdde03",
					"pause()": "8456cb59",
					"paused()": "5c975abb",
					"proxiableUUID()": "52d1902d",
					"renounceRole(bytes32,address)": "36568abe",
					"revokeRole(bytes32,address)": "d547741f",
					"supportsInterface(bytes4)": "01ffc9a7",
					"symbol()": "95d89b41",
					"totalSupply()": "18160ddd",
					"transfer(address,uint256)": "a9059cbb",
					"transferFrom(address,address,uint256)": "23b872dd",
					"unpause()": "3f4ba83a",
					"upgradeTo(address)": "3659cfe6",
					"upgradeToAndCall(address,bytes)": "4f1ef286"
				}
			},
			"storageLayout": {
				"storage": [
					{
						"astId": 780,
						"contract": "PAXX.sol:PRAXXIS",
						"label": "_initialized",
						"offset": 0,
						"slot": "0",
						"type": "t_uint8"
					},
					{
						"astId": 783,
						"contract": "PAXX.sol:PRAXXIS",
						"label": "_initializing",
						"offset": 1,
						"slot": "0",
						"type": "t_bool"
					},
					{
						"astId": 2355,
						"contract": "PAXX.sol:PRAXXIS",
						"label": "__gap",
						"offset": 0,
						"slot": "1",
						"type": "t_array(t_uint256)50_storage"
					},
					{
						"astId": 1224,
						"contract": "PAXX.sol:PRAXXIS",
						"label": "_balances",
						"offset": 0,
						"slot": "51",
						"type": "t_mapping(t_address,t_uint256)"
					},
					{
						"astId": 1230,
						"contract": "PAXX.sol:PRAXXIS",
						"label": "_allowances",
						"offset": 0,
						"slot": "52",
						"type": "t_mapping(t_address,t_mapping(t_address,t_uint256))"
					},
					{
						"astId": 1232,
						"contract": "PAXX.sol:PRAXXIS",
						"label": "_totalSupply",
						"offset": 0,
						"slot": "53",
						"type": "t_uint256"
					},
					{
						"astId": 1234,
						"contract": "PAXX.sol:PRAXXIS",
						"label": "_name",
						"offset": 0,
						"slot": "54",
						"type": "t_string_storage"
					},
					{
						"astId": 1236,
						"contract": "PAXX.sol:PRAXXIS",
						"label": "_symbol",
						"offset": 0,
						"slot": "55",
						"type": "t_string_storage"
					},
					{
						"astId": 1816,
						"contract": "PAXX.sol:PRAXXIS",
						"label": "__gap",
						"offset": 0,
						"slot": "56",
						"type": "t_array(t_uint256)45_storage"
					},
					{
						"astId": 1958,
						"contract": "PAXX.sol:PRAXXIS",
						"label": "__gap",
						"offset": 0,
						"slot": "101",
						"type": "t_array(t_uint256)50_storage"
					},
					{
						"astId": 1099,
						"contract": "PAXX.sol:PRAXXIS",
						"label": "_paused",
						"offset": 0,
						"slot": "151",
						"type": "t_bool"
					},
					{
						"astId": 1204,
						"contract": "PAXX.sol:PRAXXIS",
						"label": "__gap",
						"offset": 0,
						"slot": "152",
						"type": "t_array(t_uint256)49_storage"
					},
					{
						"astId": 2738,
						"contract": "PAXX.sol:PRAXXIS",
						"label": "__gap",
						"offset": 0,
						"slot": "201",
						"type": "t_array(t_uint256)50_storage"
					},
					{
						"astId": 39,
						"contract": "PAXX.sol:PRAXXIS",
						"label": "_roles",
						"offset": 0,
						"slot": "251",
						"type": "t_mapping(t_bytes32,t_struct(RoleData)34_storage)"
					},
					{
						"astId": 334,
						"contract": "PAXX.sol:PRAXXIS",
						"label": "__gap",
						"offset": 0,
						"slot": "252",
						"type": "t_array(t_uint256)49_storage"
					},
					{
						"astId": 762,
						"contract": "PAXX.sol:PRAXXIS",
						"label": "__gap",
						"offset": 0,
						"slot": "301",
						"type": "t_array(t_uint256)50_storage"
					},
					{
						"astId": 1077,
						"contract": "PAXX.sol:PRAXXIS",
						"label": "__gap",
						"offset": 0,
						"slot": "351",
						"type": "t_array(t_uint256)50_storage"
					}
				],
				"types": {
					"t_address": {
						"encoding": "inplace",
						"label": "address",
						"numberOfBytes": "20"
					},
					"t_array(t_uint256)45_storage": {
						"base": "t_uint256",
						"encoding": "inplace",
						"label": "uint256[45]",
						"numberOfBytes": "1440"
					},
					"t_array(t_uint256)49_storage": {
						"base": "t_uint256",
						"encoding": "inplace",
						"label": "uint256[49]",
						"numberOfBytes": "1568"
					},
					"t_array(t_uint256)50_storage": {
						"base": "t_uint256",
						"encoding": "inplace",
						"label": "uint256[50]",
						"numberOfBytes": "1600"
					},
					"t_bool": {
						"encoding": "inplace",
						"label": "bool",
						"numberOfBytes": "1"
					},
					"t_bytes32": {
						"encoding": "inplace",
						"label": "bytes32",
						"numberOfBytes": "32"
					},
					"t_mapping(t_address,t_bool)": {
						"encoding": "mapping",
						"key": "t_address",
						"label": "mapping(address => bool)",
						"numberOfBytes": "32",
						"value": "t_bool"
					},
					"t_mapping(t_address,t_mapping(t_address,t_uint256))": {
						"encoding": "mapping",
						"key": "t_address",
						"label": "mapping(address => mapping(address => uint256))",
						"numberOfBytes": "32",
						"value": "t_mapping(t_address,t_uint256)"
					},
					"t_mapping(t_address,t_uint256)": {
						"encoding": "mapping",
						"key": "t_address",
						"label": "mapping(address => uint256)",
						"numberOfBytes": "32",
						"value": "t_uint256"
					},
					"t_mapping(t_bytes32,t_struct(RoleData)34_storage)": {
						"encoding": "mapping",
						"key": "t_bytes32",
						"label": "mapping(bytes32 => struct AccessControlUpgradeable.RoleData)",
						"numberOfBytes": "32",
						"value": "t_struct(RoleData)34_storage"
					},
					"t_string_storage": {
						"encoding": "bytes",
						"label": "string",
						"numberOfBytes": "32"
					},
					"t_struct(RoleData)34_storage": {
						"encoding": "inplace",
						"label": "struct AccessControlUpgradeable.RoleData",
						"members": [
							{
								"astId": 31,
								"contract": "PAXX.sol:PRAXXIS",
								"label": "members",
								"offset": 0,
								"slot": "0",
								"type": "t_mapping(t_address,t_bool)"
							},
							{
								"astId": 33,
								"contract": "PAXX.sol:PRAXXIS",
								"label": "adminRole",
								"offset": 0,
								"slot": "1",
								"type": "t_bytes32"
							}
						],
						"numberOfBytes": "64"
					},
					"t_uint256": {
						"encoding": "inplace",
						"label": "uint256",
						"numberOfBytes": "32"
					},
					"t_uint8": {
						"encoding": "inplace",
						"label": "uint8",
						"numberOfBytes": "1"
					}
				}
			},
			"userdoc": {
				"kind": "user",
				"methods": {
					"initialize()": {
						"notice": "\"In Ancient Greek the word praxis (πρᾶξις) referred to activity engaged in by free people.\""
					}
				},
				"version": 1
			}
		}
	}
}